:020000040800F2
:1000000000000220D13C0008911B0008951B00084D
:10001000991B00089D1B0008A11B000800000000A0
:10002000000000000000000000000000A51B000808
:10003000A91B000800000000AD1B0008B11B000850
:10004000213D0008213D0008213D0008213D000818
:10005000213D0008213D0008213D0008213D000808
:10006000213D0008213D0008213D0008213D0008F8
:10007000213D0008213D0008213D0008213D0008E8
:10008000213D0008213D0008213D0008000000003E
:10009000000000000000000000000000213D0008FA
:1000A000213D0008213D0008213D0008213D0008B8
:1000B000213D0008213D0008213D0008213D0008A8
:1000C000213D0008213D0008213D0008213D000898
:1000D000213D0008213D0008213D000800000000EE
:1000E000213D0008213D0008213D000800000000DE
:1000F000000000000000000000000000213D00089A
:1001000000000000213D0008213D0008213D0008BD
:1001100000000000000000000000000000000000DF
:10012000B51B0008213D0008213D0008213D0008C5
:10013000213D000800000000000000000000000059
:10014000000000000000000000000000213D000849
:10015000213D0008213D0008213D0008213D000807
:10016000213D0008213D00080000000000000000C3
:10017000000000000000000000000000000000007F
:1001800000000000213D0008000000000000000009
:08019000213D0008213D00089B
:1001A00001F0FF01102A2BDB10F0070F08D010F828
:1001B000013B013A8B422DD010F0070F42B3F6D12C
:1001C000F0B441EA012141EA014122F007047FF045
:1001D00000070023F0E80256083C85EA010586EA9C
:1001E000010685FA47F5A3FA87F586FA47F6A5FAD8
:1001F00087F68EB9EED1F0BC01F0FF0102F00702E4
:1002000032B110F8013B013A83EA010313B1F8D18E
:100210000020704701387047002D06BF354603386F
:10022000073815F0010F07D1013015F4807F02BFA8
:10023000013015F4C03F0130F0BC0138704700BFF9
:10024000034613F8012B002AFBD1181A0138704716
:1002500081F0004102E000BF83F0004330B54FEA77
:1002600041044FEA430594EA050F08BF90EA020FE4
:100270001FBF54EA000C55EA020C7FEA645C7FEA77
:10028000655C00F0E2804FEA5454D4EB5555B8BF9A
:100290006D420CDD2C4480EA020281EA030382EA0B
:1002A000000083EA010180EA020281EA0303362D9D
:1002B00088BF30BD11F0004F4FEA01314FF4801C70
:1002C0004CEA113102D0404261EB410113F0004F82
:1002D0004FEA03334CEA133302D0524263EB430339
:1002E00094EA050F00F0A780A4F10104D5F1200ED7
:1002F0000DDB02FA0EFC22FA05F2801841F1000132
:1003000003FA0EF2801843FA05F359410EE0A5F105
:1003100020050EF1200E012A03FA0EFC28BF4CF036
:10032000020C43FA05F3C01851EBE37101F00045EC
:1003300007D54FF0000EDCF1000C7EEB00006EEBF9
:100340000101B1F5801F1BD3B1F5001F0CD3490883
:100350005FEA30004FEA3C0C04F101044FEA4452DA
:1003600012F5800F80F09A80BCF1004F08BF5FEA61
:10037000500C50F1000041EB045141EA050130BD41
:100380005FEA4C0C404141EB0101013C28BFB1F553
:10039000801FE9D291F0000F04BF01460020B1FA9E
:1003A00081F308BF2033A3F10B03B3F120020CDA71
:1003B0000C3208DD02F1140CC2F10C0201FA0CF04F
:1003C00021FA02F10CE002F11402D8BFC2F1200CB4
:1003D00001FA02F120FA0CFCDCBF41EA0C0190406A
:1003E000E41AA2BF01EB0451294330BD6FEA0404B3
:1003F0001F3C1CDA0C340EDC04F11404C4F120029E
:1004000020FA04F001FA02F340EA030021FA04F3AF
:1004100045EA030130BDC4F10C04C4F1200220FA06
:1004200002F001FA04F340EA0300294630BD21FA44
:1004300004F0294630BD94F0000F83F4801306BF0A
:1004400081F480110134013D4EE77FEA645C18BFFE
:100450007FEA655C29D094EA050F08BF90EA020F95
:1004600005D054EA000C04BF1946104630BD91EA8D
:10047000030F1EBF0021002030BD5FEA545C05D190
:100480004000494128BF41F0004130BD14F58004CF
:100490003CBF01F5801130BD01F0004545F0FE4143
:1004A00041F470014FF0000030BD7FEA645C1ABF78
:1004B000194610467FEA655C1CBF0B46024650EAAF
:1004C000013406BF52EA033591EA030F41F40021DB
:1004D00030BD00BF90F0000F04BF0021704730B561
:1004E0004FF4806404F132044FF000054FF0000136
:1004F00050E700BF90F0000F04BF0021704730B5F7
:100500004FF4806404F1320410F0004548BF4042CB
:100510004FF000013EE700BF42004FEAE2014FEA20
:1005200031014FEA02701FBF12F07F4393F07F4FFB
:1005300081F06051704732F07F4208BF704793F0FE
:100540007F4F04BF41F40021704730B54FF4607411
:1005500001F0004521F000411CE700BF50EA010214
:1005600008BF704730B54FF000050AE050EA0102BD
:1005700008BF704730B511F0004502D5404261EB2D
:1005800041014FF4806404F132045FEA915C3FF46E
:10059000D8AE4FF003025FEADC0C18BF03325FEA0B
:1005A000DC0C18BF033202EBDC02C2F1200300FABC
:1005B00003FC20FA02F001FA03FE40EA0E0021FAE1
:1005C00002F11444BDE600BF70B54FF0FF0C4CF4CF
:1005D000E06C1CEA11541DBF1CEA135594EA0C0F81
:1005E00095EA0C0F00F0DEF82C4481EA030621EABC
:1005F0004C5123EA4C5350EA013518BF52EA0335F7
:1006000041F4801143F4801338D0A0FB02CE4FF0A8
:100610000005E1FB02E506F00042E0FB03E54FF0D8
:100620000006E1FB03569CF0000F18BF4EF0010ED0
:10063000A4F1FF04B6F5007F64F5407404D25FEACC
:100640004E0E6D4146EB060642EAC62141EA55517F
:100650004FEAC52040EA5E504FEACE2EB4F1FD0CC1
:1006600088BFBCF5E06F1ED8BEF1004F08BF5FEA3F
:10067000500E50F1000041EB045170BD06F00046F1
:1006800046EA010140EA020081EA0301B4EB5C049E
:10069000C2BFD4EB0C0541EA045170BD41F4801196
:1006A0004FF0000E013C00F3AB8014F1360FDEBFBB
:1006B000002001F0004170BDC4F10004203C35DA97
:1006C0000C341BDC04F11404C4F1200500FA05F31A
:1006D00020FA04F001FA05F240EA020001F00042BB
:1006E00021F0004110EBD37021FA04F642EB060131
:1006F0005EEA430E08BF20EAD37070BDC4F10C045B
:10070000C4F1200500FA04F320FA05F001FA04F21E
:1007100040EA020001F0004110EBD37041F100010A
:100720005EEA430E08BF20EAD37070BDC4F1200515
:1007300000FA05F24EEA020E20FA04F301FA05F27D
:1007400043EA020321FA04F001F0004121FA04F225
:1007500020EA020000EBD3705EEA430E08BF20EAF5
:10076000D37070BD94F0000F0FD101F0004640002F
:1007700041EB010111F4801F08BF013CF7D041EAB1
:10078000060195F0000F18BF704703F000465200B5
:1007900043EB030313F4801F08BF013DF7D043EA86
:1007A0000603704794EA0C0F0CEA135518BF95EA3C
:1007B0000C0F0CD050EA410618BF52EA4306D1D1C3
:1007C00081EA030101F000414FF0000070BD50EAE2
:1007D000410606BF1046194652EA430619D094EA6C
:1007E0000C0F02D150EA013613D195EA0C0F05D156
:1007F00052EA03361CBF104619460AD181EA0301AA
:1008000001F0004141F0FE4141F470014FF0000061
:1008100070BD41F0FE4141F4780170BD70B54FF0FC
:10082000FF0C4CF4E06C1CEA11541DBF1CEA13557C
:1008300094EA0C0F95EA0C0F00F0A7F8A4EB05045E
:1008400081EA030E52EA03354FEA013100F0888055
:100850004FEA03334FF0805545EA131343EA12631E
:100860004FEA022245EA111545EA10654FEA0026D3
:100870000EF000419D4208BF964244F1FD0404F58C
:10088000407402D25B084FEA3202B61A65EB0305E8
:100890005B084FEA32024FF480104FF4002CB6EBA5
:1008A000020E75EB030E22BFB61A754640EA0C0025
:1008B0005B084FEA3202B6EB020E75EB030E22BF65
:1008C000B61A754640EA5C005B084FEA3202B6EBA6
:1008D000020E75EB030E22BFB61A754640EA9C0065
:1008E0005B084FEA3202B6EB020E75EB030E22BF35
:1008F000B61A754640EADC0055EA060E18D04FEAF3
:10090000051545EA16754FEA06164FEAC30343EA92
:1009100052734FEAC2025FEA1C1CC0D111F4801F5F
:100920000BD141EA00014FF000004FF0004CB6E758
:1009300011F4801F04BF01430020B4F1FD0C88BFF7
:10094000BCF5E06F3FF6AFAEB5EB030C04BFB6EB02
:10095000020C5FEA500C50F1000041EB045170BDF5
:100960000EF0004E4EEA113114EB5C04C2BFD4EB22
:100970000C0541EA045170BD41F480114FF0000EA6
:10098000013C90E645EA060E8DE60CEA135594EA22
:100990000C0F08BF95EA0C0F3FF43BAF94EA0C0F25
:1009A0000AD150EA01347FF434AF95EA0C0F7FF49A
:1009B00025AF104619462CE795EA0C0F06D152EAEE
:1009C00003353FF4FDAE1046194622E750EA4106D2
:1009D00018BF52EA43067FF4C5AE50EA41047FF4E3
:1009E0000DAF52EA43057FF4EBAE12E74FF0FF3C48
:1009F00006E000BF4FF0010C02E000BF4FF0010C19
:100A00004DF804CD4FEA410C7FEA6C5C4FEA430C91
:100A100018BF7FEA6C5C1BD001B050EA410C0CBFE0
:100A200052EA430C91EA030F02BF90EA020F002042
:100A3000704710F1000F91EA030F58BF994208BFA9
:100A400090422CBFD8176FEAE37040F00100704766
:100A50004FEA410C7FEA6C5C02D150EA013C07D1BD
:100A60004FEA430C7FEA6C5CD6D152EA033CD3D008
:100A70005DF8040B704700BF8446104662468C4602
:100A80001946634600E000BF01B5FFF7B7FF002835
:100A900048BF10F1000F01BD4DF808EDFFF7F4FF5E
:100AA0000CBF012000205DF808FB00BF4DF808EDE9
:100AB000FFF7EAFF34BF012000205DF808FB00BF0C
:100AC0004DF808EDFFF7E0FF94BF012000205DF82E
:100AD00008FB00BF4DF808EDFFF7CEFF94BF0120E3
:100AE00000205DF808FB00BF4DF808EDFFF7C4FFDC
:100AF00034BF012000205DF808FB00BF4FEA410C25
:100B00007FEA6C5C02D150EA013C0AD14FEA430C07
:100B10007FEA6C5C02D152EA033C02D14FF0000044
:100B200070474FF0010070474FEA410212F5001282
:100B300015D211D56FF47873B3EB625212D94FEA24
:100B4000C12343F0004343EA505311F0004F23FA0E
:100B500002F018BF404270474FF00000704750EA63
:100B6000013005D111F0004008BF6FF00040704720
:100B70004FF00000704700BF4A0011D212F500127A
:100B800011D20DD56FF47873B3EB62520ED44FEAE5
:100B9000C12343F0004343EA505323FA02F0704765
:100BA0004FF00000704750EA013002D14FF0FF30A3
:100BB00070474FF0000070474FEA4102B2F1E04346
:100BC00024BFB3F5001CDCF1FE5C0DD901F0004C34
:100BD0004FEAC0024CEA5070B2F1004F40EB830084
:100BE00008BF20F00100704711F0804F21D113F1B0
:100BF0003872BCBF01F00040704741F480114FEAE9
:100C00005252C2F11802C2F1200C10FA0CF320FA71
:100C100002F018BF40F001004FEAC1234FEAD3238E
:100C200003FA0CFC40EA0C0023FA02F34FEA4303F8
:100C3000CCE77FEA625307D150EA01331EBF4FF081
:100C4000FE4040F44000704701F0004040F0FE409C
:100C500040F40000704700BF53B94AB9002908BFEB
:100C600000281CBF4FF0FF314FF0FF3000F00CB8F0
:100C7000ADF1080C6DE904CE05F060FFDDF804E08D
:100C8000DDE9022304B07047704700BF10B5054C82
:100C9000237833B9044B13B10448AFF30080012328
:100CA000237010BDF802002000000000F86D00085D
:100CB00008B5034B1BB103490348AFF3008008BDDF
:100CC00000000000FC020020F86D00080000000099
:100CD00000B51D481D4901600122002385B04FF475
:100CE00080310276C26180F830204261184A036187
:100CF000CDE90033CDE90233C0E9011380F820309B
:100D0000C3600023C0E90A2301F040F968B99FEDF0
:100D10000C7B07230C48029369468DED007B01F0A4
:100D2000C3FA28B905B05DF804FB00F0B3FEEEE7A6
:100D300000F0B0FE05B05DF804FB00BFAFF300802B
:100D4000080000000100000078030020002001409E
:100D50000100000F70B5254B026888B000249A424C
:100D6000CDE90244CDE90444069401D008B070BD39
:100D700003F58C3300945A6C1D4E42F480725A6411
:100D80005A6C02F480720092009A01941A6B42F03D
:100D900002021A631B6B03F0020301930322032375
:100DA000054602A91348CDE90223019B01F04EFD3F
:100DB000114A74624FF48063C6E9002433614FF432
:100DC00000624FF40053C6E9052330464FF48073A8
:100DD000C6E90244C6E9073401F092FB18B9AE63D4
:100DE000B56308B070BD00F055FEF8E70020014083
:100DF0001403002000040240106402402DE9F04179
:100E0000174E002382B0338000F064FD0028FBD130
:100E1000134DDFF85880134F13E000F02BFDB6F9A7
:100E2000004008EB84031868FFF776FB0B4639880F
:100E30000246CDE900410C4800F0DCFC642001F0E2
:100E400093F800F047FD0B2103462A460028E4D022
:100E500000F040FD0028FBD102B0BDE8F08100BFEA
:100E600022010020E0840120486E0008C003002019
:100E700070B54FF4FA7001F077F8194D194E44240B
:100E800000F028FDF0B9012314212A4600F0F2FCFD
:100E9000154BB5F900C096F800E003F11400594273
:100EA000CA18944516DD03F801EF8342F8D10F49C3
:100EB0000F4800F09FFC0A2001F056F800F00AFDF0
:100EC0000028E0D0C82001F04FF800F0BFFC3378D4
:100ED0002B8070BD03F8014F8342E1D1E7E700BFEB
:100EE0002201002020010020E3B40120E4B401200D
:100EF000686E000870B54FF4FA7001F035F8114EC5
:100F0000114C124D0EE0B4F800C086F800C000F09D
:100F1000B1FCB4F900202846114600F06BFC0A2011
:100F200001F022F800F0D6FC0346074A7F2120207A
:100F3000002BE8D000F08AFCBDE87040C82001F02A
:100F400013B800BF2001002022010020786E0008A5
:100F5000F8B500F07BFC00F0BDFC0028FBD1144D7F
:100F6000144F154E17E000F0FFFF01224FF40071FF
:100F7000284601F029FE384600F03CFC4FF47A7018
:100F800000F0F2FF284622464FF4007101F01CFEEB
:100F9000304600F02FFC00F09DFC04464FF47A70C0
:100FA000002CE0D000F096FC0028FBD1F8BD00BF7B
:100FB000000402408C6E0008946E00082DE9F04198
:100FC0004FF4FA70354C364D00F0CEFF00F03EFC89
:100FD0000023238009E000F04DFC2846B4F90010FE
:100FE00000F008FC322000F0BFFF00F073FC03218A
:100FF000034622460028EED0B4F9005000F06AFC07
:101000000028FBD1254E274F208009E000F032FC5C
:101010003846B4F9001000F0EDFB322000F0A4FFD8
:1010200000F058FC0321034632460028EED0B4F904
:10103000008000F04FFC0028FBD1208000F18040B0
:10104000012200F501304FF4007101F0BDFD134E97
:10105000154F0FE000F00EFCB4F90010384600F018
:10106000C9FBE8B221785FFA88F200F0F5F9322086
:1010700000F07AFF00F02EFC01233246FF21002809
:10108000E8D000F027FC02460028FAD1BDE8F04184
:1010900006484FF4007101F097BD00BF2201002007
:1010A0009C6E0008AC6E0008C06E00080004024090
:1010B00038B52F4800F09EFB00F00CFC05460028D8
:1010C000FAD12C4801224FF4007101F07DFD00247B
:1010D00002E00134DC2C17D0E1B2284600F090FA8F
:1010E000052000F041FF00F0F5FB0028F1D0214879
:1010F00000224FF4007101F067FD00F0EBFB0028C7
:10110000FBD138BD052C17D02146284600F078FACF
:10111000052000F029FF00F0DDFB013CE4B20028CF
:10112000F0D0144800224FF4007101F04DFD00F0A2
:10113000D1FB0028FBD138BD6C1CE5B20C2DC6D10B
:101140000446E0B2DC21013400F05AFA0C2CF8D14C
:1011500000F0C0FB0028FBD0064800224FF40071CD
:1011600001F032FD00F0B6FB0028FBD138BD00BF16
:10117000D06E0008000402402DE9F0472DED028BEF
:1011800035488CB001224FF4007101F01DFD334849
:1011900000F030FB00F09EFB0028FBD10FF2A80905
:1011A000D9E9008900F096FB0546002837D12C4F7D
:1011B0006E4618E0FFF752F8FFF7FEFC0446306079
:1011C0002046FFF7A9F922A3D3E90023FFF7FCF992
:1011D000FFF7D2FC0135C1B2504600F07FFA0C2D6A
:1011E00006F104062AD05FFA85FA00F073FB28BBEB
:1011F0003468B7EC018A2046FFF78EF907EE904A73
:10120000B4EEE78AF1EE10FA42464B46D2DCD7D56F
:10121000FFF722F8FFF7D0FC04463060D0E700F07B
:1012200059FB02460028FAD10B484FF400710CB06C
:10123000BDEC028BBDE8F04701F0C6BC012000F018
:1012400093FEAFE7AFF30080FCA9F1D24D62803F7F
:10125000000000000030614000040240F46E00080D
:10126000C003002010B51C4C0FCC90B00DF1080C41
:10127000ACE80F000FCCACE80F000FCCACE80F00CF
:1012800094E8030000238CE80300144CADF806300A
:101290000FE000F0EFFABDF9061010AB03EBC1034D
:1012A000204653F8382C013100F0A4FA322000F027
:1012B0005BFE00F00FFB062103460DEB0102002848
:1012C000E7D0BDF9063010AA02EBC30353F8343C53
:1012D000984710B010BD00BF106E0008206F0008C6
:1012E000354B364800222DE9F0475A62344C354DD3
:1012F00002F0B8F92EA7D7E9006704F5805834F852
:10130000020FA0F50060FFF7F5F832463B46FFF705
:101310005BF9FFF751FCA04545F8040BEFD12A4ECD
:10132000DFF8B4A0294F2A4CDFF8988006F1300985
:10133000A4F500554FF400632A464146504602F09A
:10134000F1FC95ED007ABCEEC77AA4F5FF5317EED9
:10135000102A92B207EE102AB8EEC77A1C3BF3ECC3
:10136000017AF4EEC77AF1EE10FAFCEEE77A06DDC8
:1013700017EE902A92B207EE102AB8EEC77A9C4276
:10138000EDD1F6EC017A67EE877A4E450AF10C0A48
:1013900004F50054E7EC017ACAD1084802F090F94C
:1013A000054A0C4B526A1A80BDE8F087AFF3008003
:1013B0006666666666664A3F00000140A8B5012081
:1013C000E2A40120E484012000000020C0030020EA
:1013D00080240020E0840120F0030020F8B51448A8
:1013E00002F040F9134914484FF4006200F07AFE0D
:1013F0000024E0B20021013400F002F9102CF8D1F1
:101400000E4C0F4E0F4D04F190072B4632462046EE
:1014100001210C3402F03AFDBC4206F1140605F13C
:101420000805F2D1BDE8F8404FF4FA7000F09CBD19
:101430005CB50120E4A4012078030020F003002023
:10144000300000208084012008B500F0FFF9BDE8DD
:101450000840FFF707BF00BFF0B54FF0000761F38A
:10146000070783B00D46144606460022614861F323
:101470000F27102101F0A8FB5E480022202101F077
:10148000A3FB032C26D8DFE804F069533D2708228C
:101490008DF8042058488DF80550642303228DF8F8
:1014A000065001F02BFF002C7BD0012C00F0948023
:1014B000022C00F0848051480122042101F084FBB9
:1014C0004C480122102101F07FFB4A4801222021D3
:1014D00001F07AFB03B0F0BD04214848002201F07E
:1014E00073FB002301A9ADF80430032EF2D801A349
:1014F00053F826F0E5150008911500088D15000831
:101500008F14000808213D48002201F05DFB0023F4
:1015100001A9ADF80430032EDCD801A353F826F05E
:10152000B1150008911500088D1500088F140008EA
:1015300010213248002201F047FB002301A9ADF839
:101540000430032EC6D801A353F826F0CB150008AB
:10155000911500088D1500088F1400084FF4806164
:101560002448002201F030FB002301A9ADF804302B
:10157000032EAFD801A353F826F000BF951500083D
:10158000911500088D1500088F14000818227FE7B8
:1015900010227DE71848ADF805706423032201F09E
:1015A000ADFE144801224FF4806101F00DFB87E786
:1015B0001148ADF805706423032201F09FFE0F4827
:1015C0000122082101F000FB7AE70B48ADF8057015
:1015D0006423032201F092FE08480122102101F049
:1015E000F3FA6DE7642303220348ADF8057001F0B8
:1015F00085FE60E70004024000B5012000000240C3
:1016000030B5032883B004460FD9072805D90B2825
:1016100054D90F2846D903B030BD04380122C0B2D6
:1016200003B0BDE83040FFF717BF2A4800220D463F
:10163000102101F0C9FA27480022202101F0C4FA44
:10164000244800224FF4806101F0BEFA0023022CEE
:10165000ADF804303AD0032C2CD0012C02D1102349
:101660008DF804304FF0000465F30704642301A9EA
:1016700065F30F2403221848ADF8054001F03EFE43
:10168000144801224FF4806101F09EFA11480122B2
:10169000102101F099FA0F480122202101F094FA5B
:1016A00003B030BD0C380322C0B203B0BDE83040F7
:1016B000FFF7D2BE08238DF80430D3E708380222A2
:1016C000C0B203B0BDE83040FFF7C6BE18238DF8A6
:1016D0000430C7E70004024000B5012030B5C0F176
:1016E0000B04E4B2032C83B010D9072C05D90B2CC2
:1016F00055D90F2C47D903B030BDC0F107000122E6
:10170000C0B203B0BDE83040FFF7A6BE2A480022B1
:101710000D46102101F058FA27480022202101F03F
:1017200053FA254800224FF4806101F04DFA00235E
:10173000022CADF804303BD0032C2CD0012C02D16C
:1017400010238DF804304FF0000465F30704642380
:1017500001A965F30F2403221848ADF8054001F0F4
:10176000CDFD154801224FF4806101F02DFA124899
:101770000122102101F028FA0F480122202101F056
:1017800023FA03B030BDC0430322C0B203B0BDE8AA
:101790003040FFF761BE08238DF80430D3E7C0F175
:1017A00003000222C0B203B0BDE83040FFF754BED0
:1017B00018238DF80430C6E70004024000B501206C
:1017C00000B583B000220A4B0192196B41F48001ED
:1017D00019631B6B03F48003019311463820019BAE
:1017E00000F02AFE382003B05DF804EB00F060BE84
:1017F000003802400FB430B58DB010AC282254F838
:10180000045B002102A803F0E1F8282123462A46C0
:1018100002A8019403F0CCF820200DF107030DF18C
:101820002F0113F8012F1F2A98BF18708B42F8D18F
:101830004FF0FF33282202A9034802F083F90DB0CC
:10184000BDE8304004B07047F0B5012000B583B06A
:101850004FF0130C4FF0FF3301220DF10701044844
:101860008DF807C002F06EF903B05DF804FB00BF0D
:10187000F0B5012070B5154C154E2568B6F800C0BE
:101880006C6AA4EB0C0E0EF1030CBCF1060F14D91C
:1018900014881CEA2E0C38BFF4464CF3870CA44481
:1018A0000FFA8CFC8C45A2F800C007DD13B1814211
:1018B000118000D210806B6A338070BD8445FADAE3
:1018C000002BF7D16B6A11803380F6E75CB50120FD
:1018D000F8B4012008B54FF40051034801F06EF947
:1018E000013818BF012008BD0008024070B500246F
:1018F0008AB0CDE90444CDE906442E4B0094089407
:101900001A6B2D4E2D4D42F004021A631A6B02F031
:1019100004020092009A01941A6B42F080021A634A
:101920001A6B02F080020192019A02941A6B42F043
:1019300001021A631A6B02F001020292029A0394E6
:101940001A6B42F002021A631B6B03F0020303934B
:10195000304601221C21039B01F036F92846012262
:101960004FF4866101F030F9224628464FF40071A9
:1019700001F02AF94FF40052002304A910480694FC
:10198000CDE9042300F062FF1C23304604A90126A0
:101990000493CDE90564079400F058FF4FF4C66343
:1019A00004A92846CDE90436CDE9064400F04EFFEF
:1019B0000AB070BD0038024000000240000402403E
:1019C0000008024010B5002394B0CDE90A33CDE9F8
:1019D0000C33CDE90333CDE9053320490193079357
:1019E000086C1F4A40F080500864096C01F0805177
:1019F000019101990293136843F440431360136803
:101A000001204FF4803103F44043CDE908010293F3
:101A10004FF480010224CDE90E41029804210220F6
:101A2000CDE912010C22602308A81092119301F055
:101A3000CFF808B172B6FEE70F210346CDE90314D3
:101A40004FF4805203A80321CDE90532079301F03A
:101A5000D5FA08B172B6FEE714B010BD00380240E6
:101A60000070004008B500F053FAFFF7ABFFFFF736
:101A70003DFFFFF7A5FEFFF72BF900F00DF800F092
:101A800041F900F0C7F900F001F9FFF7A7FCFFF7F3
:101A9000DBFCFCE772B6FEE70E480F494FF482729A
:101AA00010B50023C0E900124FF4007418210A2277
:101AB000C0E90233C0E90433C0E90641C0E9083394
:101AC000C0E90A3201F0B8FB00B910BDBDE8104012
:101AD000FFF7E0BF00B5012000300140000000002A
:101AE00010B51B4A016888B000239142CDE902334A
:101AF000CDE90433069301D008B010BD02F584325D
:101B00000093506C40F480505064506C00F480504E
:101B1000009000980193136B0E4843F00103136388
:101B2000136B9FED097B03F001030193032205234F
:101B300002A98DED027BCDE90523019C00F086FE14
:101B400008B010BDAFF30080A0000000020000004C
:101B5000003001400000024082B00C4B0021009197
:101B60005A6C42F480425A645A6C02F480420092E9
:101B7000009A01911A6C42F080521A641B6C03F0B7
:101B800080530193019B02B0704700BF00380240B0
:101B9000FEE700BFFEE700BFFEE700BFFEE700BFB5
:101BA000FEE700BF704700BF704700BF704700BF2F
:101BB00000F0C8B9014800F073BD00BF1403002055
:101BC0000120704708B502F053FF162303604FF061
:101BD000FF3008BD08B502F04BFF16230360FEE797
:101BE00070B5161E07DD0C468D19AFF3008004F8A2
:101BF000010BA542F9D1304670BD00BF70B5161E6D
:101C000007DD0C468D1914F8010BAFF30080A542D7
:101C1000F9D1304670BD00BF4FF0FF30704700BFB4
:101C20004FF400534B600020704700BF0120704705
:101C3000002070470C490D4A0B6810B50C4C121B64
:101C40002BB11844904207D80860184610BD094BC4
:101C50000B6018449042F7D902F00AFF0C2303608E
:101C60004FF0FF33184610BD58B501200000022088
:101C70000004000088B70120034AD2F8883043F4FA
:101C80007003C2F88830704700ED00E000B51B48D3
:101C90001B4A02606422002387B042604FF6FF7245
:101CA000CDE90233CDE90433CDE90033C0E9023296
:101CB000C0E90433836101F045FC98B94FF48053C7
:101CC0000E48029302A901F0C9FD98B90022002331
:101CD0000A486946CDE9002301F06AFE28B907B039
:101CE0005DF804FBFFF7D6FEE8E7FFF7D3FE07B089
:101CF0005DF804FBFFF7CEFEE8E700BFA8B50120C2
:101D00000000014000B519488DB04FF6FF71002367
:101D10004FF08042C1600321CDE90633CDE90033A5
:101D2000C0E90133049308930A930260036101221E
:101D3000836103910F2303A9059209920B9301F08C
:101D4000D3FC58B90022002308486946CDE9002396
:101D500001F02EFE28B90DB05DF804FBFFF79AFEE6
:101D6000F0E7FFF797FE0DB05DF804FB5CB50120CE
:101D70000A4B02689A4200D0704782B003F59C3348
:101D8000002201925A6C42F001025A645B6C03F02B
:101D900001030193019B02B0704700BF00000140A6
:101DA00000B5026889B00023B2F1804FCDE902335B
:101DB000CDE90433069302D009B05DF804FB02F5C7
:101DC0000E320093106C40F001001064106C00F0B3
:101DD0000100009000980193136B0D4843F001033C
:101DE0001363136B9FED087B03F00103019302A9BA
:101DF00001238DED027B019A069300F027FD09B0C7
:101E00005DF804FBAFF30080030000000200000057
:101E10000000024010B50B480B4C00234FF4165144
:101E20000C22C0E90041C0E90233C0E90432C0E934
:101E3000063301F0F5FD00B910BDBDE81040FFF715
:101E400029BE00BFF0B501200010014000000000D5
:101E500010B51B4A016888B000239142CDE90233D6
:101E6000CDE90433069301D008B010BD02F59432D9
:101E70000093506C40F010005064506C00F0100063
:101E8000009000980193136B0E4843F00203136314
:101E9000136B9FED097B03F00203019303220723D9
:101EA00002A98DED027BCDE90523019C00F0CEFC5B
:101EB00008B010BDAFF30080C000000002000000B9
:101EC000001001400004024038B50E4A0E4B127853
:101ED000054618684FF47A73B3FBF2F3B0FBF3F0E6
:101EE00000F0F4FA08B90F2D01D9012038BD0446DD
:101EF000024629464FF0FF3000F09EFA034B204681
:101F00001D6038BD28010020240100202C01002084
:101F100008B50B4B1A6842F400721A601A6842F452
:101F200080621A601A6842F480721A60032000F01E
:101F300071FA0F20FFF7C8FFFFF70EFE002008BD63
:101F4000003C0240034A044B11681B780B441360A9
:101F5000704700BF34B6012028010020014B1868EB
:101F6000704700BF34B6012038B50446FFF7F6FFCE
:101F7000631C054602D0044B1B781C44FFF7EEFFA0
:101F8000401BA042FAD338BD28010020002800F0F1
:101F90009E8038B5056C04463DB1236CDB060CD53C
:101FA000002384F83C30012038BDFEF7D3FE656481
:101FB000236C84F83C50DB06F2D4236C474A23F4AC
:101FC000885323F0020343F002032364516823681B
:101FD00021F44031516051686068014351605A6892
:101FE0002069A16822F480725A605A6842EA00228D
:101FF0005A605A68E06822F040725A605A680A4390
:102000005A609A68A16A22F400629A609A68024350
:102010009A60334A91429A6851D022F07062E06A25
:102020009A609A68114399609A6822F040529A60C7
:102030009A6802439A609A6822F002029A609A684B
:10204000217E42EA41029A6094F82020002A40D082
:102050005A68616A42F400625A605A6822F4604227
:102060005A605A68013942EA41325A60DA6AE169D3
:1020700022F47002DA62DA6A013942EA0152DA6263
:102080009A68616922F400729A609A6894F8300044
:1020900042EA40229A609A6822F480629A609A68C2
:1020A000002042EA81229A606064236C23F00303DB
:1020B00043F001032364002384F83C3038BD22F050
:1020C00070629A609A6822F040529A60B3E70120E9
:1020D00070475A6822F400625A60C7E70023014043
:1020E0000100000F70B5054690F83C0082B0002357
:1020F000012801937BD02E681346012285F83C20ED
:10210000B268D20714D4B26842F00102B260394A10
:102110001068394AA2FB0020800C00EB40000190BF
:10212000019A2AB1019C013C019401980028F9D13F
:10213000B268D40503D5B26822F48072B260B26886
:10214000D00740D5286C20F4E06020F0010040F476
:10215000807028647268520505D52A6C22F44052BA
:1021600042F480522A642A6CA86B12F480521CBF7D
:102170006A6C22F006026A64002285F83C200A4656
:102180001E49C1631E4901641E49C1646FF02201EA
:102190003160716841F080617160B16841F48071B3
:1021A000B16006F14C0100F03FFA174B5B68DB06AB
:1021B00014D12B689A6812F0405F0CD19A6842F0F3
:1021C00080429A6007E02B6C43F010032B646B6C29
:1021D00043F001036B64002002B070BD0B4A2B6812
:1021E0009342F8D19A6812F0405FF4D1E6E70220FA
:1021F00002B070BD2401002083DE1B433D22000895
:10220000152200082522000800230140002001407B
:10221000704700BF08B5806BFFF7FAFF08BD00BF2D
:10222000704700BF806B08B540230364436C43F0E4
:1022300004034364FFF7F4FF08BD00BF836B1A6C0F
:1022400012F0500F10B51A6C23D142F400721968C5
:102250001A648A6812F0405F17D11A7EAAB9CA6A56
:1022600012F4700F02D08A6850050ED44A6822F02A
:1022700020024A601A6C22F480721A641A6CD1042B
:1022800003D41A6C42F001021A641846FFF728F8CA
:1022900010BDD20604D49B6BBDE81040DB6C184720
:1022A0001846FFF7BDFF10BD70B590F83C3082B006
:1022B0000246012B4FF00000019000F09E800123A8
:1022C00082F83C300D6813688C68092DA8B228D8B4
:1022D0001E6905EB450E4FF0070C0CFA0EFC26EAC2
:1022E0000C061E611E6904FA0EF434431C614C682E
:1022F000062C04EB84012AD85C6B05394FF01F0CC7
:1023000088400CFA01F124EA01015963596B084332
:1023100058633B498B422BD0002082F83C0002B02E
:1023200070BD00EB400CDE68ACF11E0C4FF0070EE8
:1023300004FA0CF40EFA0CFC26EA0C06DE60DE68E9
:102340003443DC604C68062C04EB8401D4D90C2C9B
:102350001FD81C6B23391F26884006FA01F124EA96
:1023600001011963196B0843254918638B42D3D1C6
:10237000122D1BD0234B9D4222D0112DCCD1224BAC
:10238000596821F480015960596841F4000159608D
:10239000C2E7DC6A41391F26884006FA01F124EAC7
:1023A0000101D962D96A0843D862B2E7164B59686D
:1023B00021F400015960596841F480015960ABE78C
:1023C000114B124C5968124821F480015960596828
:1023D00041F4000159602368A0FB03039B0C03EB4D
:1023E00083035B000193019B002B95D0019B013B74
:1023F0000193019B002BF9D18EE7022002B070BD42
:1024000000200140120000100023014024010020A0
:1024100083DE1B430749CA6803024FF6FF0003F43B
:10242000E0630240134343F0BF6343F40033CB60E7
:10243000704700BF00ED00E01B4BDB68C3F30223D5
:1024400000B5C3F1070EBEF1040F03F1040C28BF61
:102450004FF0040EBCF1060F1CD9A3F1030C4FF092
:10246000FF3303FA0CF322EA03024FF0FF3303FABF
:102470000EF321EA030303FA0CF313431B010028B4
:10248000DBB20ADB00F1604000F5614080F8003308
:102490005DF804FB00229446E7E7044A00F00F00D1
:1024A000024413765DF804FB00ED00E0FCEC00E074
:1024B000002807DB4109044A00F01F000123834084
:1024C00042F82130704700BF00E100E00138B0F170
:1024D000807F01D30120704710B44FF0E023074CF8
:1024E00058614FF0F00C84F823C0002207211046F9
:1024F0009A615DF8044B1961704700BF00ED00E080
:1025000038B50446FFF72AFD002C6DD02368002261
:10251000022184F8351084F834201A6822F0010270
:1025200005461A6005E0FFF719FD431B052B37D858
:1025300023681A68D107F6D4D4E90120E168024380
:102540000A43D4E90451A0692A430A43E1691D689A
:1025500002430A4331492940256A2A430A43616AF2
:10256000042924D01A605A6922F007021143D8B214
:102570002B4A59611038A2FB0052120929496FF306
:102580000903895CE1655F2888BF04333F228A40E4
:10259000A36500209A600123606584F8353038BD5A
:1025A00003232022626584F83530184638BDD4E90B
:1025B0000B512943114319605969A26A21F007019F
:1025C000114341F00401002DD1D078B1B0F5005F86
:1025D00016D0022A03D9032AC9D1EA01C7D540225D
:1025E0000123626584F83530012038BD012A03D00B
:1025F00032F00202BBD1F0E7B5F1C07FB7D1EEE710
:10260000032AB4D801A050F822F000BFDF2500084B
:10261000DB250008DF250008F92500083F8010F0C1
:10262000ABAAAAAAB46F000870B490F83440856DC4
:10263000012C0AD090F835404FF0010C644580F829
:1026400034C005D0002380F83430022070BC7047BD
:10265000022680F83560046800264665266826F460
:102660008026266063608368402B0EBFA260A16055
:10267000E260C26D08BFE1603F239340AB60236816
:10268000026C43F0160323601AB1236843F0080379
:102690002360236843F001030020236070BC70476F
:1026A000F0B583B0674A876D166800230193C36D48
:1026B0003D6808229A402A42044603D0016808680F
:1026C000400778D401229A402A4203D02168496900
:1026D00008066AD404229A402A4203D02168096875
:1026E00089075CD410229A402A4203D021680868E6
:1026F000000741D420229A402A4214D02168086859
:10270000C00610D5BA6094F83520052A63D00B684E
:1027100013F4802F0B687ED0190340F18980E36B9E
:102720000BB120469847636D23B3636DDA071AD562
:1027300022684549052384F835301368A1FB061645
:1027400023F00103B60A136002E01368DB0704D527
:10275000019B0133B3420193F7D90122002384F88E
:10276000352084F83430E36C23B1204603B0BDE853
:10277000F040184703B0F0BDBA600A6812F4802F29
:102780000A6822D1D20503D40A6822F008020A603E
:10279000226C002AAED020469047E36DAAE7BA60CB
:1027A000626D42F0040262659CE7BA60626D42F0BD
:1027B000020262658EE7086820F004000860BA60D3
:1027C000626D42F0010262657CE71103E0D5A26C04
:1027D000002AE0D18EE70A6822F016020A604A69F0
:1027E00022F080024A61226C3AB30A6822F00802A1
:1027F0000A603F2202FA03F3216DBB60012200232D
:1028000084F8352084F834300029B3D0204603B052
:10281000BDE8F040084713F4807380D10A6822F0C5
:1028200010020A60012284F8352084F8343076E7FB
:10283000636C002B7FF475AF75E7A26C002AD4D1CE
:10284000D7E700BF24010020B5814E1B2DE9F04FD2
:10285000C04B0A68984285B04FF000034FF0010B5F
:1028600000F0C480DFF8FCA2894602E00133102B9F
:102870007BD00BFA03F101EA02089143F6D1D9F8B3
:10288000044004F0030C590003250CF1FF368D4081
:10289000012E6FEA05056BD9BCF1030F40F074817E
:1028A00006680CFA01F13540294314F4403F0160F9
:1028B000DCD000210391DAF8441041F48041CAF8D9
:1028C0004410DAF8441001F480410391039923F095
:1028D000030101F1804103F003060F2701F59C314C
:1028E000B60007FA06FC9C4F8D68B84225EA0C0535
:1028F00076D09A4FB84200F03B81DFF86CC2604559
:1029000000F03C81DFF864C260450CBF4FF0040C5E
:102910004FF0070C0CFA06F635438D609049896834
:10292000E6026FEA08058E4E54BF294048EA0101CD
:10293000B160F1688A4EA70254BF294048EA0101FC
:10294000F1607168A603864E54BF294048EA010130
:1029500071603168E40303F10103814C54BF2940E5
:1029600048EA0101102B216083D105B0BDE8F08F4A
:10297000866806EA050ED9F80C608E4046EA0E0617
:102980008660466826EA080EC4F300169E4046EAB2
:102990000E064660C66806EA050ED9F808608E4045
:1029A00046EA0E06BCF1020FC6607FF479AFDE087E
:1029B00000EB86060196376AD9F81060009703F09D
:1029C000070E4FEA8E0E0F2706FA0EF607FA0EFED6
:1029D000009F27EA0E0E019F46EA0E063E625FE761
:1029E0004FF0010C0CFA06F6354396E7DFF87081DC
:1029F00002E00133102BB8D00BFA03F402EA04060C
:102A00009443F6D14D6805F0030400945F0003245D
:102A100004FA07FC009C6FEA0C0A04F1FF3CBCF1CD
:102A2000010F4CD9032C40F0B980009CBC400768D2
:102A300007EA0A073C4315F4403F0460D9D0494FE8
:102A4000002403947C6C44F480447C647C6C04F427
:102A500080440394039C23F0030404F1804404F5B0
:102A60009C3403F003074FF00F0CBF000CFA07F77C
:102A7000D4F808C02CEA0707A76015F4801FD8F81F
:102A800008406FEA060762D13C40C8F8084015F4D8
:102A9000001FD8F80C4058D13C40C8F80C4015F441
:102AA000003FD8F804404ED13C40C8F80440ED0344
:102AB000D8F8004045D43C40C8F8004099E7D0F829
:102AC00008E0CC680AEA0E0E04FA07FC4CEA0E0C89
:102AD000C0F808C0D0F804E0C5F3001C2EEA060ECA
:102AE0000CFA03FC4CEA0E0CC0F804C08C68D0F859
:102AF0000CE004FA07FC009C0AEA0E0E4CEA0E0CED
:102B0000022CC0F80CC090D14FEAD30C4FEA8C0CC9
:102B10000C690CF1804C03F0070E0CF5003C4FEAF9
:102B20008E0E04FA0EF4DCF8209001940F2404FABF
:102B30000EFE019C29EA0E0944EA090ECCF820E0B9
:102B400073E73443B8E73443AFE73443A5E734438E
:102B50009BE700BF00000240000402400008024062
:102B6000003C014000380240000C024000100240CE
:102B70004FF0020C0CFA06F63543CEE64FF0030C8C
:102B80000CFA06F63543C8E6C66806EA050ED9F81B
:102B900008608E4046EA0E06C66081E6DFF818E05F
:102BA0008C68DEF80C9004FA07FC0AEA09094CEA82
:102BB000090CCEF80CC038E7000002400369194246
:102BC00014BF01200020704702B9090481617047D9
:102BD000002800F0D8812DE9F0410368DD0782B0BC
:102BE00004462FD59D498A6802F00C02042A00F0A1
:102BF000EC808A6802F00C02082A00F0E280636828
:102C0000B3F5803F00F0EB80B3F5A02F00F07381A7
:102C1000924D2A6822F480322A602A6822F48022A7
:102C20002A60002B40F0E080FFF798F9064605E0A7
:102C3000FFF794F9801B642800F200812B689F0342
:102C4000F6D423689D0728D5844A916811F00C0FAB
:102C500000F09B80916801F00C01082900F0918040
:102C6000E368002B00F00C817D4B7C4E01221A6042
:102C7000FFF774F9054605E0FFF770F9401B0228DD
:102C800000F2DC8033689F07F6D53368226923F0B1
:102C9000F80343EAC203336023681A075CD45D0774
:102CA0003AD56E4A136C13F0805340F0888001933C
:102CB000136C43F080531364136C03F0805301933F
:102CC000019B0125674E3368D80540F1A780A368B2
:102CD000012B00F0B780052B00F01D815F4E326F95
:102CE00022F001023267326F22F004023267002BB9
:102CF00040F0AD80FFF732F941F28838074605E031
:102D0000FFF72CF9C01B404500F29880336F9B07FA
:102D1000F6D4002D40F0F980A369CBB14F4DAA68DD
:102D200002F00C02082A00F0BC80022B4C4B4FF042
:102D300000021A6600F0F980FFF710F9044604E07B
:102D4000FFF70CF9001B022878D82B689B01F7D4F9
:102D5000002002B0BDE8F0816369FBB1404B3F4EFB
:102D60000122C3F8802EFFF7F9F8054604E0FFF7CB
:102D7000F5F8401B022861D8736F9B07F7D52368CD
:102D80008DE7526851023FF56BAF344A12689207E3
:102D900038D5E268012A35D00120DAE7304A2F4ED3
:102DA000C2F8803EFFF7DAF8054604E0FFF7D6F8F0
:102DB000401B022842D8736F9F07F7D4DFE7002536
:102DC00080E74A6851027FF51AAF244A12689203DD
:102DD0007FF538AF6268002A7FF434AFDCE71F4A22
:102DE000136843F480331360FFF7B8F81B4E0546B1
:102DF00004E0FFF7B3F8401B64281FD833689B0337
:102E0000F7D51EE7154920690A6822F0F80242EA60
:102E1000C0020A601A077FF542AF9DE7336843F4AA
:102E200080733360FFF79AF807463368D9053FF59A
:102E30004EAFFFF793F8C01B0228F6D9032002B06B
:102E4000BDE8F081054A136F43F001031367FFF7F4
:102E500085F8024F064641F288380AE00038024001
:102E60000000474200700040FFF778F8801B4045A3
:102E7000E4D83B6F9A07F7D5002D3FF44DAF44E0FF
:102E8000424A434E1360FFF769F8054604E0FFF736
:102E900065F8401B0228D1D833689907F7D4236816
:102EA000FBE6012B3FF478AF6B68E26903F4800125
:102EB00091427FF471AF226A03F03F0191427FF4A7
:102EC0006BAF616A47F6C0721A40B2EB811F7FF4A4
:102ED00063AFA26A520803F44031013AB1EB024FEA
:102EE0007FF45AAFE26A03F07063B3EB026F14BF72
:102EF000012000202DE7264B1A6842F480221A6038
:102F00001A6842F480321A606EE7214A136C23F08B
:102F10008053136400E71E4B1A6F42F004021A67D5
:102F20001A6F42F001021A6791E7FFF717F8064699
:102F300005E0FFF713F8801B02283FF67FAF2B68F0
:102F40009901F6D4D4E90731626A0B4343EA82134C
:102F5000D4E90A2052080D4943EA0063013A43EAE2
:102F6000024301226B600A66FEF7F8FF084D044633
:102F700005E0FEF7F3FF001B02283FF65FAF2B686A
:102F80009A01F6D5E4E60120704700BF00004742F1
:102F900000380240164908B58B6803F00C03042B77
:102FA0001BD0082B01D0134808BD4A684B684968FC
:102FB00013F4800302F03F0211D10E48C1F38811CF
:102FC000A1FB0001FDF748FE094B5B68C3F3014319
:102FD00001335B00B0FBF3F008BD074808BD0648AD
:102FE000C1F388110023A1FB0001FDF735FEEBE7DB
:102FF000003802400024F40040787D01002800F0F1
:103000008780484A136803F007038B422DE9F0419B
:103010000D46044609D2CBB21370136803F00703C0
:103020008B4202D00120BDE8F0812368980714D5B7
:10303000590704D53C498A6842F4E0528A601A076D
:1030400004D539498A6842F460428A603649A068EA
:103050008A6822F0F00202438A60DF0721D56268A5
:10306000012A57D0931E012B2F4B1B684DD999076E
:10307000D8D52D4EB36823F003031343B360FEF796
:103080006DFF41F28838074604E0FEF767FFC01B7A
:10309000404544D8B368626803F00C03B3EB820F79
:1030A000F3D1204A136803F00703AB4206D9EBB211
:1030B0001370136803F00703AB42B3D123685A07B8
:1030C00006D51949E0688A6822F4E05202438A6012
:1030D0001B0707D5144A2169936823F4604343EA28
:1030E000C1039360FFF756FF0F4A104C92681049D6
:1030F000C2F303120346A25C0E48D34000680B6083
:10310000FEF7E2FE0020BDE8F0819801B1D489E726
:1031100001207047044B1B689E03AAD482E703205A
:1031200081E700BF003C024000380240A46F000865
:10313000240100202C010020044B05499B68054A0E
:103140000868C3F38223D35CD8407047003802403C
:10315000240100209C6F0008044B05499B68054A28
:103160000868C3F34233D35CD8407047003802404C
:10317000240100209C6F00082DE9F04182B0164622
:103180001D460C460746FEF7E9FE35442D1AFEF7AC
:10319000E5FE284B1B68C3F3CB3305FB03F3013675
:1031A000019308D13A68936834EA0303FBD0002006
:1031B00002B0BDE8F08180463B689B6834EA0303B7
:1031C000F5D1FEF7CBFEA0EB0803AB4208D2019A83
:1031D000019B002A03F1FF3308BF00250193EBE7B1
:1031E000D7E900315A68B1F5827F22F0E0025A60D7
:1031F00013D0BA6AB2F5005F07D11A6822F4005200
:103200001A601A6842F400521A600122002387F8FB
:10321000512087F850300320CAE7BA68B2F5004F52
:1032200002D0B2F5806FE4D11A6822F040021A6031
:10323000DFE700BF2401002000285CD070B5044601
:10324000406A002847D00023C4E9043394F8513081
:103250000022A26203F0FF01002B42D094462168B5
:10326000A568A269266A022384F851300B6823F00E
:1032700040030B60636805F4044503F482732B4339
:10328000E56805F400652B43256905F002052B432D
:10329000656905F001052B43E56906F0800E02F42F
:1032A000007605F0380533432B43120C00F0100074
:1032B00043EA0E0302F0040243EA0C0302430B60EC
:1032C0004A60CB69002023F400630122CB61606572
:1032D00084F8512070BD6368B3F5827FB6D0E06199
:1032E000B4E7204684F85010FEF7FAFBD4E909034E
:1032F00003F4005CB3E70120704700BF2DE9F04103
:10330000044690F85000012882B000F085801D46E8
:10331000012384F8503088461746FEF71FFE94F8C4
:103320005130012B0646D8B209D0022001220023D9
:1033300084F8512084F8503002B0BDE8F081B8F133
:10334000000FF3D0002FF1D0A2682068C4F83080BD
:1033500000230321B2F5004F84F85110C4E9103363
:103360006365A786E786A363A387E387844600F0A7
:1033700083800368590603D4036843F04003036065
:10338000E3686268B3F5006F4AD0002A00F09680C7
:10339000012F00F09380E38E9BB2ABB1681C40F02C
:1033A000828023689A68910740F19380226B12789B
:1033B0001A73E18E236B013989B2E186E18E013304
:1033C00089B223630029ECD162685C4B5C491B68BD
:1033D000A1FB03135B0D4FF47A7101FB03F3B2F50C
:1033E000827F019307D19AE0019B2268013B019300
:1033F00093681B0602D5019B002BF5D1A36833B956
:1034000022680093D368009393680093009B606DDB
:10341000003818BF012089E7022002B0BDE8F08122
:10342000002A79D1414631F8023BC360E38E216323
:10343000013B9BB2E386E38E9BB2002BC5D06B1C95
:1034400060D183689F070FD5226B32F8023BC360BF
:10345000E38E2263013B9BB2E386E38E9BB2002B9B
:10346000B2D083689F07EFD4FEF778FDE38E9BB25E
:10347000002BA9D02068E4E7036823F04003036031
:10348000036843F48043036073E7226B12781A7376
:10349000E38E226B013B01329BB22263E386E38E13
:1034A0009BB2002B90D023689A689207EDD4FEF768
:1034B00055FD801BA842F2D3032037E798F800306F
:1034C0000373E38E226B013B01329BB22263E386DE
:1034D00061E7FEF743FDE38E9BB2002B7FF461AF03
:1034E00072E7226B32F8023BCCF80C30E38E226399
:1034F000013B9BB2E386E38E9BB2002B3FF464AFAB
:10350000D4F800C0DCF808309A07EAD4FEF726FDAC
:10351000831BAB42EFD3CFE7012F8CD182E7334639
:103520002A4680212046FFF727FE00283FF466AF99
:10353000636D20221343636562655FE72401002009
:10354000819F5E16002875D038B590F83D3004464E
:1035500003F0FF02002B54D022684049022384F874
:103560003D308A42136851D0B2F1804F20D0A1F58E
:103570007C418A421CD001F580618A4218D001F555
:1035800080618A4258D036498A4215D001F580615F
:103590008A4211D001F580618A420DD0A569616827
:1035A000E06823F080032B431360D062916210E047
:1035B000A16823F070030B432069A16923F44073D1
:1035C000034323F08003E0680B4361681360D0621B
:1035D00091620123536184F8463084F83E3084F8C8
:1035E0003F3084F8403084F8413084F8423084F829
:1035F000433084F8443084F8453084F83D3000206E
:1036000038BD80F83C20FEF7B3FBA5E7A068216930
:1036100023F07003034323F440730B43A16923F0A9
:1036200080030B431360E368D3626368936263694A
:103630001363CEE701207047A068216923F070036F
:10364000034323F440730B43A16923F080030B432E
:103650001360E368D36263689362BAE700000140D5
:103660000040014090F83D30012B24D10368134AFB
:103670000221934280F83D1012D0B3F1804F0FD059
:10368000A2F57C4293420BD002F58062934207D0B0
:1036900002F58062934203D002F59A32934204D13C
:1036A0009A6802F00702062A03D01A6842F0010263
:1036B0001A60002070470120704700BF00000140E1
:1036C0000368196A41F21112114208D1196A40F2D5
:1036D0004442114203D11A6822F001021A60012308
:1036E00080F83D3000207047002800F09E80F8B53B
:1036F00090F83D300D46044603F0FF02002B7BD0CE
:1037000023685449022284F83D209A6822F48042BA
:1037100022F007029A608B421A6872D0B3F1804F90
:1037200020D0A1F57C418B421CD001F580618B42F9
:1037300018D001F580618B4279D047498B4215D072
:1037400001F580618B4211D001F580618B420DD073
:10375000A069616822F080020243E0681A60D862C2
:10376000996210E0A16822F070020A43216922F4F4
:1037700040720A43A16922F080020A43E1681A609C
:103780006268D9629A6201265E6198689969AF6938
:10379000AA6821F4407121F0030142EA07220A439A
:1037A00022F47C4E2A69E9696F69120142EA01221A
:1037B000E9680A43196A21F0AA0C296A42EA01322F
:1037C00069682D682EF0FC0E41EA0711284342EA91
:1037D0000E0241EA0C0198609A61196284F8466011
:1037E00084F83E6084F83F6084F8426084F8436067
:1037F00084F83D600020F8BD80F83C20FEF7D0FA48
:103800007EE7A16822F070020A43216922F4407227
:103810000A43A16922F080020A431A60E268DA6270
:1038200062689A6262691A63ADE701207047A16815
:1038300022F070020A43216922F440720A43A1690E
:1038400022F080020A431A60E268DA6262689A62D1
:1038500099E700BF000001400040014090F83C2083
:10386000012A6ED00346026830B40120022483F896
:103870003C0083F83D40946824F47F4424F07704AE
:1038800094600C68602C76D011D8402C5BD02ED878
:10389000202C04D000F2888034F010011FD19168F0
:1038A00021F07001214341F00701916016E0B4F569
:1038B000805F13D0B4F5005F33D0702C0FD1D1E905
:1038C000015094682843CD6824F47F4140EA0520E4
:1038D00008439060916841F07701916000200121D8
:1038E000002283F83D1083F83C2030BC7047502CF8
:1038F000F5D14868CC68116A21F00A010843116AC1
:1039000021F001011162916921F0F00141EA0411F5
:1039100091611062916821F0700141F0570191604E
:10392000DCE7D1E9015094682843CD6824F47F4155
:1039300040EA052008439060916841F4804191601D
:10394000CCE7022070474868CC68116A21F00A0170
:103950000843116A21F001011162916921F0F0011F
:1039600041EA041191611062916821F0700141F007
:1039700047019160B2E74C68CD68116A21F01001EF
:1039800011629069116A20F4704021F0A00141EAAF
:10399000041140EA053090611162916821F07001D4
:1039A00041F06701916099E7302C3FF478AF96E7DA
:1039B00090F83C20012A2FD003460268022030B440
:1039C00083F83D0050680D68946820F0700028432B
:1039D00050601248824212D0B2F1804F0FD0A0F551
:1039E0007C4082420BD000F58060824207D000F517
:1039F0008060824203D000F59A30824204D1496847
:103A000024F080040C4394600020012283F83D20C0
:103A100083F83C0030BC7047022070470000014032
:103A2000002800F0868038B590F83D30044603F059
:103A3000FF02002B78D02368E068242284F83D2020
:103A4000DA6822F40052DA601969A26821F4405160
:103A500001432069196102436069D9680243E06942
:103A600021F4164121F00C0102430A43DA605A693D
:103A7000A069314922F4407202438B425A6135D029
:103A80002E4A934232D0FFF757FBE2691921B2F573
:103A9000004FD4E90053A0FB01012AD09A009B0FEC
:103AA000FDF7DAF8264AA2FB00135B09642101FB4B
:103AB000130000013230A2FB00201B0103EB501366
:103AC000AB602B6923F490432B616B6923F02A03CD
:103AD0006B61EB680021202243F40053EB6021640A
:103AE00084F83D2084F83E20084638BDFFF734FBBB
:103AF000CBE7DA184FF000035B41FDF7ADF8104A51
:103B0000A2FB00314909642303FB1103DB003233BC
:103B1000A2FB0323C3F342121B0902EB011203F4BD
:103B2000F8731344AB60CCE780F83C20FEF790F9C3
:103B300081E70120704700BF0010014000140140E0
:103B40001F85EB512DE9F843044690F83D002028ED
:103B500047D10D4600293CD01646002A39D01F46D1
:103B600094F83C30012B3CD0012384F83C304FF0DA
:103B700000092123C4F8409084F83D30FEF7EEF9A7
:103B8000A368A684B3F5805F8046E6846AD0E38CA0
:103B900000229BB284F83C202268002B68D07B1C5A
:103BA00038D113681F06FCD5B5B115F8013B536039
:103BB000E38C013B9BB2E384E38C9BB2002BF0D1FE
:103BC00013685906FCD5202384F83D300020BDE859
:103BD000F8830120BDE8F88339F8023BC3F30803FA
:103BE000E5E70220BDE8F883FEF7B8F9A0EB08038B
:103BF0009F42226813D313681906F5D5002D62D0B1
:103C000015F8013B5360E38C013B9BB2E384E38CEA
:103C10009BB27BB313681E06F0D4002FE4D102F1EF
:103C20000C0353E8003F23F4D07302F10C0040E88A
:103C300000310029F3D102F1140353E8003F23F0CF
:103C4000010302F1140040E800310029F3D12023E0
:103C500084F83D3084F83E30002384F83C30032063
:103C6000BDE8F8832369002B91D1A9461D468EE754
:103C7000781CA5D013685B06A5D45FB1FEF76EF97A
:103C8000A0EB08039F4204D323681B685D06F5D5AB
:103C900099E7226802F10C0353E8003F23F4D07344
:103CA00002F10C0040E800310029F3D102F11403C5
:103CB00053E8003F23F0010302F1140040E8003113
:103CC0000029F3D1C3E739F8023BC3F3080399E7AE
:103CD000DFF834D00D480E490E4A002302E0D458D4
:103CE000C4500433C4188C42F9D30B4A0B4C002344
:103CF00001E013600432A242FBD3FDF7BDFF00F0E8
:103D0000BDFEFDF7AFFE704700000220000000205E
:103D1000F80200207C730008F802002084B701201C
:103D2000FEE700002DE9F04F83B0914607784FEA97
:103D3000930C85681435466808364FEA0C1A90468D
:103D4000CDF804C002EB0A0B03F0030255ED053A6F
:103D500015ED043A55ED032A15ED022A55ED011A29
:103D6000344656ED025A56ED017ABCF1000F65D08B
:103D700001F1100009F11003DDF804E050ED044AF0
:103D800010ED034A10ED025A50ED016A23EEA41A19
:103D900031EE251A63EE845A23EE247A22EE016A6C
:103DA00037EE067A77EE277A35EEA77A63EE857AD4
:103DB00063EE040A22EE076A70EE860A62EEA44AF7
:103DC00021EE816A74EE864A70EEA44A77EEA40A68
:103DD00063EEA67A63EE054A22EE206A74EE864A06
:103DE00022EE844A21EE876A34EE064A34EE844A93
:103DF00077EE844A63EE265A62EE247A75EEA77A4D
:103E000022EE855A21EEA06A35EE065A77EE855AE3
:103E100062EEA67A21EEA46A77EE867A03ED041AA2
:103E200003ED037A43ED020A43ED014A10301033EB
:103E3000BEF1010EA2D15144584600E0404613465F
:103E4000BAB1B1EC017A23EE876A36EE256A63EEE9
:103E5000075A62EE066A75EEA65A75EEA75A62EE2A
:103E6000877A61EE866A77EEA67AA0EC016A013B5A
:103E7000E7D144ED025A44ED017A14350836414643
:103E8000013F7FF463AF03B0BDE8F08F38B504465F
:103E9000826001701D46CA001846002100F096FDA0
:103EA000656038BD2DE9FF4757EC106B002F0C46BD
:103EB00019463B46BBBF07F100431F4600232D2395
:103EC0000B700D9BDDF830A0914623F02008BCBF9D
:103ED00032461646B8F1460F05D0B8F1450F00D16D
:103EE0000134022100E0032103AB019302AB0093F4
:103EF00047EC106B5346224600F072FEB8F1470FB4
:103F0000054619D119F0010F0ED000EB040900226B
:103F1000002330463946FCF7BFFD08B1CDF80C90C0
:103F20003022039B4B451ED3039B0E9A5B1B2846F6
:103F3000136004B0BDE8F087B8F1460F00EB040948
:103F4000E5D10378302B0AD10022002330463946D0
:103F5000FCF7A2FD18B9C4F10104CAF80040DAF870
:103F600000309944D3E7591C03911A70D9E7F7B58B
:103F70000029BABF49422D232B230929027043701F
:103F800029DD0DF107031D460A271A46B1FBF7F696
:103F900007FB1614303402F8014C0C46632C03F175
:103FA000FF333146F1DC3031941E03F8011C411C13
:103FB0002346AB420AD30DF109039B1AAC4288BFDA
:103FC000002302330344181A03B0F0BD13F8016B49
:103FD00001F8016FEDE7302330318370C170031DAC
:103FE000F1E700002DE9F04F8DB00C46DDF8588068
:103FF00016461F46054600F0F1FC03680493184678
:10400000FCF71EF900230A93D8F800300590073317
:1040100023F0070303F1080294F818A0D4F800B0C5
:10402000C8F80020D3E9008929F000430793CDF8B0
:104030001880C4E91289DDE906019C4B4FF0FF327C
:10404000FCF75CFD70BBDDE90601984B4FF0FF32D9
:10405000FCF736FD30BB0022002340464946FCF702
:1040600025FD10B12D2384F84330914A914BBAF1CC
:10407000470F8CBF90469846032323612BF004031F
:1040800023604FF00009009733460BAA21462846CB
:1040900000F0D2F9013040F08D804FF0FF300DB0CC
:1040A000BDE8F08F42464B4640464946FCF726FDA8
:1040B00040B14B46002BBCBF2D2384F843307E4AD1
:1040C0007E4BD4E763680AF0DF0206925A1C3BD1AC
:1040D000062363604BF480620023226003930AABE3
:1040E000CDE901A309AB0093616849EC108B0DF198
:1040F00023032846FFF7D6FE069B0999472B8046E7
:1041000029D1C81C02DB6368994241DDAAF1020A89
:104110005FFA8AFA0139524604F150000991FFF71B
:1041200026FF0A9A1318012A8146236102DC2268BD
:10413000D20701D5013323619DF82330002BA2D093
:104140002D2384F843309EE7069A472AC2D1002BDC
:10415000C0D10123BDE7BAF1650FDBD9BAF1660F13
:1041600018D1002963680BDD216113B92268D007DB
:1041700002D501330B442361A1654FF00009DBE751
:1041800013B92268D20701D50233F4E70123F2E71D
:104190004FF0670A0A9B994205DB23682161D80723
:1041A000EAD54B1CE7E70029D4BFC1F10202012286
:1041B0001344E0E723685A0507D423694246314691
:1041C0002846B84701302BD167E7BAF1650F40F2B6
:1041D000DD80D4E9120100220023FCF75DFC0028F9
:1041E00033D0374A012331462846B84701303FF4DF
:1041F00054AFDDE90938434502DB2368D8070FD502
:10420000DDE9042331462846B84701303FF445AF85
:104210004FF0000908F1FF3804F11A0AC84509DC1B
:1042200023689B0700F10381E0680B9B9842B8BFAD
:10423000184634E70123524631462846B847013034
:104240003FF42BAF09F10109E8E7099B002B39DCAA
:104250001B4A012331462846B84701303FF41DAFC1
:10426000DDE9093959EA030302D12368D907D7D513
:10427000DDE9042331462846B84701303FF40DAF4D
:104280004FF0000A04F11A0B099B5B42534501DC15
:104290004B4693E701235A4631462846B84701303A
:1042A0003FF4FBAE0AF1010AEEE700BFFFFFEF7F2C
:1042B000C06F0008BC6F0008C86F0008C46F00081A
:1042C000CC6F0008A36DDDF828A05345A8BF534666
:1042D000002B994636DC4FF0000B29EAE97904F10E
:1042E0001A02A36D0693A3EB09035B4531DC099B1E
:1042F0009A453ADC2368DA0737D4099BAAEB03090D
:10430000069BAAEB03039945A8BF9946B9F1000F94
:1043100033DC4FF0000829EAE97904F11A0B099B14
:10432000AAEB0303A3EB090343457FF779AF01230E
:104330005A4631462846B84701303FF4AEAE08F140
:104340000108ECE7424631462846B8470130C2D161
:10435000A3E60123314628460692B84701303FF4D0
:104360009CAE069A0BF1010BBBE7DDE90423314655
:104370002846B8470130C0D18FE6069A4B464244E2
:1043800031462846B8470130C3D186E6DDF828A07B
:10439000BAF1010F01DCDB0736D501234246314675
:1043A0002846B84701303FF478AEDDE904233146B2
:1043B0002846B84701303FF470AED4E9120100221C
:1043C00000230AF1FF3AFCF767FBC0B9534608F136
:1043D000010231462846B84701300CD15DE6012381
:1043E0005A4631462846B84701303FF456AE08F1E8
:1043F0000108D045F3DB4B4604F15002DFE64FF0F5
:10440000000804F11A0BF4E701234246E1E7012317
:104410004A4631462846B84701303FF43EAE08F1DF
:104420000108E3680B995B1A4345F0DCFCE64FF0AA
:10443000000804F11909F4E72DE9F04716469846FB
:104440008A680B69DDF820909342B8BF1346336049
:1044500091F8432007460C460AB1013333602368C4
:10446000990642BF336802333360256815F00605AC
:1044700006D104F1190AE36832689B1AAB4226DCC4
:1044800094F843302268003B18BF012392062BD4D6
:1044900004F1430241463846C84701301ED0236824
:1044A000226903F00603042B02BFE5683368ED1AA6
:1044B000A3680CBF25EAE57500259342C4BF9B1A8B
:1044C000ED1800261A34B5421AD1002008E0012365
:1044D000524641463846C847013003D14FF0FF30BD
:1044E000BDE8F0870135C6E7E1185A1C302081F895
:1044F0004300224494F8451082F843100233C7E782
:104500000123224641463846C8470130E6D00136ED
:10451000D9E700002DE9FF470F7E0C9E782F9146CA
:1045200080460C469A4601F1430207D8622F0AD80A
:10453000002F00F0D180582F00F0B88004F142061F
:1045400084F842703AE0A7F16303152BF6D801A175
:1045500051F823F0AD450008C14500083D4500086D
:104560003D4500083D4500083D450008C14500089F
:104570003D4500083D4500083D4500083D45000813
:10458000BF460008EB450008794600083D45000895
:104590003D450008E14600083D450008EB450008A0
:1045A0003D4500083D4500088146000833681A1D56
:1045B0001B68326004F1420684F8423001239CE01B
:1045C00033682068191D3160060601D51D6803E0B7
:1045D0004506FBD5B3F90050002D03DA2D236D42BB
:1045E00084F8433058480A2311E0216833680806EC
:1045F00053F8045B02D4490648BFADB26F2F52484E
:10460000336014BF0A230823002184F8431066682E
:10461000A660002E05DB21682E4321F004012160F5
:104620004BD01646B5FBF3F103FB1157C75D06F8F7
:10463000017D2F46BB420D46F4D9082B0BD12368D0
:10464000DF0708D5236961689942DEBF302306F889
:10465000013C06F1FF36921B2261CDF800A04B46CB
:1046600003AA21464046FFF7E7FE01304AD14FF04A
:10467000FF3004B0BDE8F087236843F020032360D7
:104680003248782784F84570236831681F0651F84E
:10469000045B02D45F0648BFADB23160D90744BFA6
:1046A00043F0200323601DB11023ADE72648E9E75E
:1046B000236823F020032360F6E71646BDE733683E
:1046C00025686169181D30602E061B6801D51960C8
:1046D00002E06806FBD51980002323611646BCE77B
:1046E00033681A1D32601E68626800213046FBF78D
:1046F00057FD08B1801B606063682361002384F864
:104700004330AAE72369324649464046D047013044
:10471000ADD023689B0713D4E068039B9842B8BFD1
:104720001846A6E70123324649464046D0470130A5
:104730009DD00135E36803995B1AAB42F2DCEBE7ED
:10474000002504F11906F5E7CE6F0008DF6F0008B9
:10475000002310B50446C0E90033C0E90433836088
:1047600081814366C2818361194608225C3000F072
:104770002DF90D4B63620D4BA3620D4BE3620D4BA4
:1047800023630D4B24629C4206D003F168029442DD
:1047900002D0D0339C4205D104F15800BDE810404E
:1047A00000F090B910BD00BFD5480008F7480008D8
:1047B0002F4900085349000838B60120024A03492E
:1047C000034800F069B800BF300100200164000810
:1047D0004001002041680C4B994210B5044601D0BD
:1047E00001F00EFEA168094B994202D0204601F06B
:1047F00007FEE168064B994204D02046BDE8104010
:1048000001F0FEBD10BD00BF38B60120A0B60120EA
:1048100008B7012010B50B4B0B4C0C4A1A60204610
:1048200000220421FFF794FF04F16800012209210E
:10483000FFF78EFF04F1D0000222BDE810401221E4
:10484000FFF786BF70B7012038B60120BD470008CA
:10485000014800F038B900BF79B70120014800F0E5
:1048600033B900BF79B7012010B50446FFF7F0FF58
:10487000236A1BB1BDE81040FFF7F0BF044B236271
:10488000044B1B68002BF5D1FFF7C4FFF2E700BF14
:10489000D547000870B701202DE9F8430746884640
:1048A00014460026D4E90195B9F1010905D524681B
:1048B000002CF7D13046BDE8F883AB89012B07D92E
:1048C000B5F90E30013303D029463846C0470643B8
:1048D0006835E9E710B50C46B1F90E1000F0A4F800
:1048E0000028ABBF636DA3891B1823F48053ACBFB2
:1048F0006365A38110BD2DE9F0411F468B89DB055F
:1049000005460C46164605D5B1F90E1002230022C5
:1049100000F078F8A389B4F90E1023F48053A38132
:1049200032463B462846BDE8F04100F08FB810B54E
:104930000C46B1F90E1000F065F8431CA38915BFB1
:10494000606523F4805343F48053A38118BFA3818F
:1049500010BDB1F90E1000F045B830B51446002C6A
:104960009BB005461A4605DA8B2303604FF0FF30F3
:104970001BB030BD4FF40273ADF80C3014BF04F11E
:10498000FF332346029305934FF6FF730091049182
:10499000ADF80E3069461E9B01F0B2FB431CBCBF54
:1049A0008B232B60002CE3D0009B00221A70DFE7E2
:1049B00007B5009313460A46014603480068FFF70F
:1049C000CCFF03B05DF804FB3C0100200244034629
:1049D000934200D1704703F8011BF9E70048704784
:1049E0007C02002038B5064D0023044608462B60A3
:1049F000FDF712F9431C02D12B6803B1236038BDC7
:104A000074B7012038B5074D044608461146002208
:104A10002A601A46FDF70CF9431C02D12B6803B13A
:104A2000236038BD74B7012038B5074D04460846E9
:104A3000114600222A601A46FDF7D2F8431C02D123
:104A40002B6803B1236038BD74B7012038B5074D1A
:104A500004460846114600222A601A46FDF7CEF8A1
:104A6000431C02D12B6803B1236038BD74B7012009
:104A7000014B1868704700BF3C01002070B50D4D18
:104A80000D4C641BA4100026A64209D10B4D0C4C02
:104A900002F0B2F9641BA4100026A64205D170BD35
:104AA00055F8043B98470136EEE755F8043B984724
:104AB0000136F2E774730008747300087473000819
:104AC000787300087047704770472DE9F74F036906
:104AD0000C69A34207467EDB013C01F11408A300E8
:104AE00000F11405009305EB8403019358F824307A
:104AF00055F8242001339A4208EB8409B2FBF3F6FF
:104B00002ED34FF0000AC446AE46D3465CF8043BB1
:104B100098B206FB00A0020C1B0C06FB0323DEF878
:104B2000002080B292B2121A5A44DEF800004FEA16
:104B3000134A9BB2C3EB224303EB104392B242EA07
:104B40000342E1454EF8042B4FEA234BDED2009B93
:104B5000EB582BB9019B043B9D421A462FD33C6175
:104B6000384601F069F9002825DB2946002058F86D
:104B7000042BD1F800C01FFA82FE1FFA8CF3A3EBBE
:104B80000E030344120CC2EB234202EB1C429BB205
:104B900043EA0243C14541F8043B4FEA2240E6D2D2
:104BA00055F8242005EB840322B9043B9D421A46A4
:104BB0000BD33C610136304603B0BDE8F08F12687C
:104BC000043B002ACBD1013CC6E71268043B002A13
:104BD000EFD1013CEAE70020EEE700000000000012
:104BE0002DE9F04FC76999B08DED040B55EC104BD2
:104BF000229E099183460E9213937FB9102000F0F4
:104C0000F3FD0246CBF81C0020B9A54BEF21A548C7
:104C100001F056FCC0E901770760C760DBF81C3083
:104C2000196859B15A684A60012393408B6058460D
:104C300000F0D0FEDBF81C3000221A602B1EB9BF3A
:104C400023F00043059300233360059F964BBCBFC0
:104C500001223260BB4312D1139A42F20F731360E8
:104C6000C7F31303234300F04385239BDFF84CA2D3
:104C7000002B00F045850AF1030300F03FBD9DEDD8
:104C8000047B002251EC170B00238DED0C7BFBF70E
:104C900003FF804658B1139A01231360239B13B17D
:104CA000239A824B1360DFF818A200F029BD9DED16
:104CB0000C0B16AA17A9584601F06EF9C7F30A564D
:104CC0008146002E77D00D9BCDF85080C3F313039F
:104CD000DDE90C0143F07F5343F44013A6F2FF36A5
:104CE00019460022724BFBF7B7FA67A3D3E90023FA
:104CF000FBF76AFC66A3D3E90023FBF7AFFA04468F
:104D000030460D46FBF7F6FB63A3D3E90023FBF720
:104D10005BFC02460B4620462946FBF79FFA0446F9
:104D20000D46FBF701FF00220746002320462946D7
:104D3000FBF7BCFE40B13846FBF7DCFB22462B46B6
:104D4000FBF7AAFE00B9013F162F51D8594B03EBD0
:104D5000C703D3E90023DDE90C01FBF7A7FE002818
:104D600048D0013F00231293169B9B1B5A1E44BF41
:104D7000C3F101080023089254BF4FF000080893C4
:104D8000002F39DB089B0F973B44089300230A93BD
:104D9000099B092B61D8052BC4BF043B0993099BD0
:104DA000A3F10203CCBF00240124032B61D8DFE868
:104DB00003F05052352ADDE916631E4406F23243F1
:104DC000202BC1BFC3F140039F4006F2124324FAD7
:104DD00003F3D6BFC3F1200347EA030004FA03F04C
:104DE000FBF778FB0122A1F1F873013E149277E7FB
:104DF0000123B8E71290B7E77B420A930023A8EBA0
:104E000007080F93C4E701230B930E9BFB18009335
:104E10000133012B0393B8BF012306E001230B9359
:104E20000E9B002B28DD00930393DBF81C00002170
:104E3000042202F114059D4223D94160584600F036
:104E400089FD824600283DD11B4B024640F2AF113E
:104E5000DDE60023E3E70023D6E7012400230993DE
:104E60000B944FF0FF3300930393002212230E9212
:104E7000DBE701230B93F4E70123009303931A4626
:104E8000F5E701315200D4E761436F63A787D23F52
:104E9000B3C8608B288AC63FFB799F501344D33F29
:104EA000FD6F0008147000080000F07FCD6F00084F
:104EB0000000F83FA071000889700008F96F000831
:104EC000CC6F0008DBF81C301860039B0E2B00F23F
:104ED000A180002C00F09E80002F33DD9C4B07F05A
:104EE0000F0203EBC20393ED007BF8058DED067B0B
:104EF0004FEA271416D5974BDDE90C01D3E90823B7
:104F0000FBF78CFCCDE9040104F00F040326914D5E
:104F100054B9DDE90623DDE90401FBF77FFCCDE9A7
:104F2000040128E00226F2E7E10708D5DDE90601E1
:104F3000D5E90023FBF748FBCDE9060101366410F3
:104F40000835E5E700F0AF807C42814B814D04F0ED
:104F50000F0203EBC203D3E90023DDE90C01FBF7E9
:104F600033FBCDE90401241100230226002C40F07C
:104F70008F80002BD3D1129BDDE90445002B00F07C
:104F80009480754B002220462946FBF78FFD0028B0
:104F900000F08B80039B002B00F08780009B002B90
:104FA00034DD7B1E069320466C4B00222946FBF71E
:104FB0000BFBCDE90401009C01363046FBF79AFA61
:104FC000DDE90423FBF700FB654B0022FBF746F904
:104FD0000546A1F15076002C6AD1DDE90401614B50
:104FE0000022FBF739F902460B46CDE904232A4695
:104FF0003346FBF779FD002840F08782DDE90401A4
:105000002A4606F10043FBF751FD38BBDDE90C34BD
:10501000CDE90434179B002BC0F258810E2F00F30A
:1050200055814B4B03EBC70393ED007B0E9B002B8D
:105030008DED007B80F2E580039B002B00F3E18087
:105040000CD1484B002251EC170BFBF7BDFADDE900
:105050000423FBF73FFD002800F05582002425467D
:105060000E9BDB430693564600272146584600F028
:10507000B1FC002D00F0BD802FB1AF4203D0394606
:10508000584600F0A7FC2946584600F0A3FCB0E0C3
:10509000E20705D5D5E90023FBF796FA013601238F
:1050A0006410083562E7022665E7039C069784E7EB
:1050B000274B0B9903EBC40353E902235444002903
:1050C00054D029490020FBF7A9FB33462A46FBF7B9
:1050D000C3F8CDE910015646DDE90401FBF724FDD4
:1050E0000546FBF707FA02460B46DDE90401FBF72C
:1050F000B3F8303502460B46CDE9042306F8015BD0
:10510000DDE91023FBF7D2FC002872D1DDE904238E
:1051100011490020FBF7A0F8DDE91023FBF7C6FCDE
:10512000002840F0B480A6423FF470AFDDE91001E2
:105130000A4B0022FBF748FA084BCDE91001002288
:10514000DDE90401FBF740FACDE90401C4E700BF43
:10515000A0710008787100080000F03F00002440B2
:1051600000001C40000014400000E03F314628468B
:10517000FBF72AFACDE9100115945646DDE9040142
:10518000FBF7D2FC0546FBF7B5F902460B46DDE915
:105190000401FBF761F8303506F8015B02460B4667
:1051A000A642CDE904234FF0000224D1AB4BDDE948
:1051B0001001FBF753F802460B46DDE90401FBF74B
:1051C00093FC002863D1DDE91023A4490020FBF7FC
:1051D00043F802460B46DDE90401FBF767FC0028B3
:1051E0003FF414AF159E731E159316F8013C302B37
:1051F000F8D0069F3BE09A4BFBF7E6F9CDE90401B6
:10520000BCE7DDE904455646DDE900232046294692
:10521000FBF704FBFBF788FC8046FBF76BF9DDE945
:105220000023FBF7D1F902460B462046294608F138
:105230003004FBF711F806F8014B039DA6EB0A04B6
:10524000A54202460B4634D1FBF708F8DDE90023FE
:1052500004460D46FBF748FCC0B9DDE900232046B3
:105260002946FBF719FC10B118F0010F0ED1494681
:10527000584600F0AFFB00233370139B01371F60CB
:10528000239B002B00F03C821E6039E206973346D8
:105290001E4613F8012D392A07D19A45F8D1069AEE
:1052A0000132069230228AF800201A7801321A70F0
:1052B0009FE76B4B0022FBF787F90022002304468F
:1052C0000D46FBF7E9FB00289ED0D0E70B9A002A99
:1052D00000F0E180099A012A00F3C480149A002AA0
:1052E00000F0B78003F233430A9C4646089A012136
:1052F0001A4458469844089200F020FC05465EB1D6
:10530000089B002B08DDB342089AA8BF3346A8EBE0
:105310000308F61AD31A08930A9BF3B10B9B002BD0
:1053200000F0BD808CB129462246584600F0BEFCF4
:105330004A4601460546584600F016FC4946069086
:10534000584600F047FB069B99460A9B1A1B04D05F
:105350004946584600F0AAFC81460121584600F013
:10536000EDFB0F9B0446002B00F0CE811A46014650
:10537000584600F09BFC099B012B044600F39580E6
:10538000049B002B40F08D80059BC3F31303002B7F
:1053900040F08980059B23F000431B0D1B052BB1BA
:1053A000089B0133089308F1010801230A930F9B1E
:1053B000002B00F0AF81236904EB8303186900F030
:1053C00071FBC0F12000089B184410F01F0077D03B
:1053D000C0F12003042B6BDD089BC0F11C000344CB
:1053E000804406440893B8F1000F05DD4946424663
:1053F000584600F0B5FC8146089B002B05DD214690
:105400001A46584600F0ACFC0446129B002B59D0BB
:105410002146484600F010FD002853DA7B1E069313
:10542000494600230A22584600F0F6FA0B9B8146B3
:10543000002B00F07181002329460A22584600F013
:10544000EBFA009B002B054667DC099B022B41DC35
:1054500063E0169BC3F1360346E700BF0000E03F60
:1054600000002440039B5C1E0A9BA34209DB1C1B1B
:10547000039B002BBFF639AF039BA8EB0306002369
:1054800034E70A9B0F9A0A94E31A1A440F92039B7B
:10549000464600242AE70A9C0B9D46462FE70A9AB7
:1054A00056E7002382E7049B80E700230A9382E704
:1054B00099D0089A1C331A4498441E44089292E7E3
:1054C0000346F6E7039B0697002B20DC0093099B1D
:1054D000022B1EDD009B002B7FF4C2AD214605226E
:1054E000584600F099FA01460446484600F0A4FCEC
:1054F00000287FF7B5AD5646312306F8013B069BE1
:1055000001330693B0E5039C06972546F3E7039B1A
:1055100000930B9B002B00F00381002E05DD294634
:105520003246584600F01CFC05460A9B002B5AD018
:105530006968584600F00EFA064628B9834B0246C1
:1055400040F2EF21FFF763BB2A690232920005F1B6
:105550000C010C3000F0A6FF01223146584600F045
:10556000FFFB0AF101030393009B53440B93049B3D
:1055700003F001032F460A930546039B2146013B96
:1055800048460093FFF7A1FA3946049000F130082D
:10559000484600F051FC2A4608902146584600F043
:1055A00067FCC268064602BB0146484600F044FC60
:1055B0000246314658460E9200F00CFA099B0E9AAC
:1055C000039E42EA03010A9B194310D1B8F1390F37
:1055D00029D0089B002B02DD049B03F13108009BBE
:1055E00083F8008041E52846BBE70122E1E7089BFC
:1055F000002B04DB09990B430A990B4320D1002AA5
:10560000EDDD49460122584600F0AAFB21468146BD
:1056100000F012FC002803DCE1D118F0010FDED00D
:10562000B8F1390FD8D1009A3923137033461E468A
:10563000013B16F8012C392A51D001321A7014E5B9
:10564000002A07DDB8F1390FEDD0009A08F1010307
:1056500013700AE5039B0B9A03F8018C934228D040
:10566000494600230A22584600F0D6F9AF42814647
:105670004FF000034FF00A023946584607D100F0B8
:10568000CBF907460546039B0133039375E700F00A
:10569000C3F92946074600230A22584600F0BCF900
:1056A0000546F0E7009B002BCCBF1E460126564462
:1056B000002749460122584600F052FB2146814608
:1056C00000F0BAFB0028B1DC02D118F0010FADD117
:1056D00033461E4613F8012D302AFAD0C5E49A4508
:1056E000A5D1069B0133069331238AF80030BCE430
:1056F000239BDFF85CA01BB10AF10803239A136017
:10570000504619B0BDE8F08F099B012B7FF738AEEA
:105710000F9B0A93012056E6009B002B7FF7D7AE24
:10572000564621464846FFF7D0F900F1300806F802
:10573000018B009BA6EB0A029342B3DD494600238E
:105740000A22584600F068F98146EAE789700008A5
:10575000F06F000838B50546002941D051F8043CE7
:105760000C1F002BB8BFE41800F0E8F81D4A1368BE
:1057700033B9636014602846BDE8384000F0E4B8EF
:10578000A34208D9206821188B4201BF19685B68C1
:1057900009182160EDE71A465B680BB1A342FAD9FC
:1057A00011685018A0420BD1206801445018834260
:1057B0001160E0D118685B68536008441060DAE754
:1057C00002D90C232B60D6E7206821188B4204BF36
:1057D00019685B68636004BF091821605460CAE7F8
:1057E00038BD00BF80B70120024B0146186800F0A9
:1057F00025B800BF3C01002070B50F4E0C46316843
:10580000054611B900F03EFE30602146284600F002
:1058100039FE431C03D14FF0FF34204670BDC41C39
:1058200024F00304A042F8D0211A284600F02AFEF2
:105830000130F2D1EFE700BF7CB701202DE9F8433A
:10584000CD1C25F0030508350C2D38BF0C25002D87
:10585000064601DBA94204D90C2333600020BDE8D1
:10586000F883DFF8D48000F069F8D8F800301C46DF
:1058700044BB29463046FFF7BFFF431C044658D1BE
:10588000D8F800402746002F43D1002C4BD0236886
:105890003946304604EB030900F0F4FD814542D15E
:1058A00021686D1A29463046FFF7A6FF01303AD02D
:1058B00023682B442360D8F800305A6862BBC8F8CC
:1058C00000700FE02268521B20D40B2A17D96119EF
:1058D000A342256018BF5960636808BFC8F800106C
:1058E00062514B60304600F02FF804F10B00231D8D
:1058F00020F00700C21A1CBF1B1AA350AFE7626852
:10590000A3420CBFC8F800205A60EBE72346646846
:10591000AEE73C467F68B6E71A465B68A342FBD118
:1059200000235360DEE70C233360304600F00CF8B0
:1059300094E70560D6E700BF80B701200148FFF774
:10594000C2B800BF78B701200148FFF7BDB800BF5B
:1059500078B7012070B5C66904460D4676B91020A7
:10596000FFF742FF0246E06120B9184B18486B214F
:1059700000F0A6FDC0E901660660C660E669F3684E
:1059800083B1E369DB6853F82500B8B9012101FA56
:1059900005F6721D9200204600F0B0FD60B1C0E92E
:1059A00001560EE021220421204600F0A7FDE36904
:1059B000F060DB68002BE4D1002070BD026843F882
:1059C00025200023C0E90333F7E700BFFD6F00087F
:1059D0009A70000870B5C66905460C4676B9102065
:1059E000FFF702FF0246E86120B9094B09488F2101
:1059F00000F066FDC0E901660660C6603CB1EB6977
:105A00006268DB6853F82210216043F8224070BDC1
:105A1000FD6F00089A7000082DE9F0410D690746F6
:105A20000C461E4601F1140C0020DCF8003099B23F
:105A300002FB01611E0C0B0C02FB063389B2013024
:105A400001EB034185424CF8041B4FEA1346ECDCA2
:105A50000EB3A368AB4219DC616838460131FFF729
:105A600079FF804628B902460C4B0D48BA2100F058
:105A700027FD2269023204F10C0192000C3000F083
:105A800011FD21463846FFF7A5FF444604EB850388
:105A900001355E6125612046BDE8F081897000080E
:105AA0009A700008B0F5803F034636BF030400201B
:105AB0001020B3F1807F3CBF1B020830B3F1805F40
:105AC0003CBF1B010430B3F1804F3CBF9B00023050
:105AD000002B05DB13F0804F00F1010008BF2020F0
