:020000040800F2
:1000000000000220D54A00083121000835210008EF
:10001000392100083D2100084121000800000000AE
:100020000000000000000000000000004521000862
:1000300049210008000000004D210008512100085E
:10004000254B0008254B0008254B0008254B0008D0
:10005000254B0008254B0008254B0008254B0008C0
:10006000254B0008254B0008254B0008254B0008B0
:10007000254B0008254B0008254B0008254B0008A0
:10008000254B0008254B0008254B00080000000008
:10009000000000000000000000000000254B0008E8
:1000A000254B0008254B0008254B0008254B000870
:1000B000254B0008254B000855210008254B00085A
:1000C000254B0008254B0008254B0008254B000850
:1000D000254B0008254B0008254B000800000000B8
:1000E000254B0008254B0008254B000800000000A8
:1000F000000000000000000000000000254B000888
:1001000000000000254B0008254B0008254B000887
:1001100000000000000000000000000000000000DF
:1001200061210008254B0008254B0008254B0008DD
:10013000254B000800000000000000000000000047
:10014000000000000000000000000000254B000837
:10015000254B0008254B0008254B0008254B0008BF
:10016000254B0008254B000800000000000000009F
:10017000000000000000000000000000000000007F
:1001800000000000254B00080000000000000000F7
:08019000254B0008254B000877
:1001A00001F0FF01102A2BDB10F0070F08D010F828
:1001B000013B013A8B422DD010F0070F42B3F6D12C
:1001C000F0B441EA012141EA014122F007047FF045
:1001D00000070023F0E80256083C85EA010586EA9C
:1001E000010685FA47F5A3FA87F586FA47F6A5FAD8
:1001F00087F68EB9EED1F0BC01F0FF0102F00702E4
:1002000032B110F8013B013A83EA010313B1F8D18E
:100210000020704701387047002D06BF354603386F
:10022000073815F0010F07D1013015F4807F02BFA8
:10023000013015F4C03F0130F0BC0138704700BFF9
:10024000034613F8012B002AFBD1181A0138704716
:1002500081F0004102E000BF83F0004330B54FEA77
:1002600041044FEA430594EA050F08BF90EA020FE4
:100270001FBF54EA000C55EA020C7FEA645C7FEA77
:10028000655C00F0E2804FEA5454D4EB5555B8BF9A
:100290006D420CDD2C4480EA020281EA030382EA0B
:1002A000000083EA010180EA020281EA0303362D9D
:1002B00088BF30BD11F0004F4FEA01314FF4801C70
:1002C0004CEA113102D0404261EB410113F0004F82
:1002D0004FEA03334CEA133302D0524263EB430339
:1002E00094EA050F00F0A780A4F10104D5F1200ED7
:1002F0000DDB02FA0EFC22FA05F2801841F1000132
:1003000003FA0EF2801843FA05F359410EE0A5F105
:1003100020050EF1200E012A03FA0EFC28BF4CF036
:10032000020C43FA05F3C01851EBE37101F00045EC
:1003300007D54FF0000EDCF1000C7EEB00006EEBF9
:100340000101B1F5801F1BD3B1F5001F0CD3490883
:100350005FEA30004FEA3C0C04F101044FEA4452DA
:1003600012F5800F80F09A80BCF1004F08BF5FEA61
:10037000500C50F1000041EB045141EA050130BD41
:100380005FEA4C0C404141EB0101013C28BFB1F553
:10039000801FE9D291F0000F04BF01460020B1FA9E
:1003A00081F308BF2033A3F10B03B3F120020CDA71
:1003B0000C3208DD02F1140CC2F10C0201FA0CF04F
:1003C00021FA02F10CE002F11402D8BFC2F1200CB4
:1003D00001FA02F120FA0CFCDCBF41EA0C0190406A
:1003E000E41AA2BF01EB0451294330BD6FEA0404B3
:1003F0001F3C1CDA0C340EDC04F11404C4F120029E
:1004000020FA04F001FA02F340EA030021FA04F3AF
:1004100045EA030130BDC4F10C04C4F1200220FA06
:1004200002F001FA04F340EA0300294630BD21FA44
:1004300004F0294630BD94F0000F83F4801306BF0A
:1004400081F480110134013D4EE77FEA645C18BFFE
:100450007FEA655C29D094EA050F08BF90EA020F95
:1004600005D054EA000C04BF1946104630BD91EA8D
:10047000030F1EBF0021002030BD5FEA545C05D190
:100480004000494128BF41F0004130BD14F58004CF
:100490003CBF01F5801130BD01F0004545F0FE4143
:1004A00041F470014FF0000030BD7FEA645C1ABF78
:1004B000194610467FEA655C1CBF0B46024650EAAF
:1004C000013406BF52EA033591EA030F41F40021DB
:1004D00030BD00BF90F0000F04BF0021704730B561
:1004E0004FF4806404F132044FF000054FF0000136
:1004F00050E700BF90F0000F04BF0021704730B5F7
:100500004FF4806404F1320410F0004548BF4042CB
:100510004FF000013EE700BF42004FEAE2014FEA20
:1005200031014FEA02701FBF12F07F4393F07F4FFB
:1005300081F06051704732F07F4208BF704793F0FE
:100540007F4F04BF41F40021704730B54FF4607411
:1005500001F0004521F000411CE700BF50EA010214
:1005600008BF704730B54FF000050AE050EA0102BD
:1005700008BF704730B511F0004502D5404261EB2D
:1005800041014FF4806404F132045FEA915C3FF46E
:10059000D8AE4FF003025FEADC0C18BF03325FEA0B
:1005A000DC0C18BF033202EBDC02C2F1200300FABC
:1005B00003FC20FA02F001FA03FE40EA0E0021FAE1
:1005C00002F11444BDE600BF70B54FF0FF0C4CF4CF
:1005D000E06C1CEA11541DBF1CEA135594EA0C0F81
:1005E00095EA0C0F00F0DEF82C4481EA030621EABC
:1005F0004C5123EA4C5350EA013518BF52EA0335F7
:1006000041F4801143F4801338D0A0FB02CE4FF0A8
:100610000005E1FB02E506F00042E0FB03E54FF0D8
:100620000006E1FB03569CF0000F18BF4EF0010ED0
:10063000A4F1FF04B6F5007F64F5407404D25FEACC
:100640004E0E6D4146EB060642EAC62141EA55517F
:100650004FEAC52040EA5E504FEACE2EB4F1FD0CC1
:1006600088BFBCF5E06F1ED8BEF1004F08BF5FEA3F
:10067000500E50F1000041EB045170BD06F00046F1
:1006800046EA010140EA020081EA0301B4EB5C049E
:10069000C2BFD4EB0C0541EA045170BD41F4801196
:1006A0004FF0000E013C00F3AB8014F1360FDEBFBB
:1006B000002001F0004170BDC4F10004203C35DA97
:1006C0000C341BDC04F11404C4F1200500FA05F31A
:1006D00020FA04F001FA05F240EA020001F00042BB
:1006E00021F0004110EBD37021FA04F642EB060131
:1006F0005EEA430E08BF20EAD37070BDC4F10C045B
:10070000C4F1200500FA04F320FA05F001FA04F21E
:1007100040EA020001F0004110EBD37041F100010A
:100720005EEA430E08BF20EAD37070BDC4F1200515
:1007300000FA05F24EEA020E20FA04F301FA05F27D
:1007400043EA020321FA04F001F0004121FA04F225
:1007500020EA020000EBD3705EEA430E08BF20EAF5
:10076000D37070BD94F0000F0FD101F0004640002F
:1007700041EB010111F4801F08BF013CF7D041EAB1
:10078000060195F0000F18BF704703F000465200B5
:1007900043EB030313F4801F08BF013DF7D043EA86
:1007A0000603704794EA0C0F0CEA135518BF95EA3C
:1007B0000C0F0CD050EA410618BF52EA4306D1D1C3
:1007C00081EA030101F000414FF0000070BD50EAE2
:1007D000410606BF1046194652EA430619D094EA6C
:1007E0000C0F02D150EA013613D195EA0C0F05D156
:1007F00052EA03361CBF104619460AD181EA0301AA
:1008000001F0004141F0FE4141F470014FF0000061
:1008100070BD41F0FE4141F4780170BD70B54FF0FC
:10082000FF0C4CF4E06C1CEA11541DBF1CEA13557C
:1008300094EA0C0F95EA0C0F00F0A7F8A4EB05045E
:1008400081EA030E52EA03354FEA013100F0888055
:100850004FEA03334FF0805545EA131343EA12631E
:100860004FEA022245EA111545EA10654FEA0026D3
:100870000EF000419D4208BF964244F1FD0404F58C
:10088000407402D25B084FEA3202B61A65EB0305E8
:100890005B084FEA32024FF480104FF4002CB6EBA5
:1008A000020E75EB030E22BFB61A754640EA0C0025
:1008B0005B084FEA3202B6EB020E75EB030E22BF65
:1008C000B61A754640EA5C005B084FEA3202B6EBA6
:1008D000020E75EB030E22BFB61A754640EA9C0065
:1008E0005B084FEA3202B6EB020E75EB030E22BF35
:1008F000B61A754640EADC0055EA060E18D04FEAF3
:10090000051545EA16754FEA06164FEAC30343EA92
:1009100052734FEAC2025FEA1C1CC0D111F4801F5F
:100920000BD141EA00014FF000004FF0004CB6E758
:1009300011F4801F04BF01430020B4F1FD0C88BFF7
:10094000BCF5E06F3FF6AFAEB5EB030C04BFB6EB02
:10095000020C5FEA500C50F1000041EB045170BDF5
:100960000EF0004E4EEA113114EB5C04C2BFD4EB22
:100970000C0541EA045170BD41F480114FF0000EA6
:10098000013C90E645EA060E8DE60CEA135594EA22
:100990000C0F08BF95EA0C0F3FF43BAF94EA0C0F25
:1009A0000AD150EA01347FF434AF95EA0C0F7FF49A
:1009B00025AF104619462CE795EA0C0F06D152EAEE
:1009C00003353FF4FDAE1046194622E750EA4106D2
:1009D00018BF52EA43067FF4C5AE50EA41047FF4E3
:1009E0000DAF52EA43057FF4EBAE12E74FF0FF3C48
:1009F00006E000BF4FF0010C02E000BF4FF0010C19
:100A00004DF804CD4FEA410C7FEA6C5C4FEA430C91
:100A100018BF7FEA6C5C1BD001B050EA410C0CBFE0
:100A200052EA430C91EA030F02BF90EA020F002042
:100A3000704710F1000F91EA030F58BF994208BFA9
:100A400090422CBFD8176FEAE37040F00100704766
:100A50004FEA410C7FEA6C5C02D150EA013C07D1BD
:100A60004FEA430C7FEA6C5CD6D152EA033CD3D008
:100A70005DF8040B704700BF8446104662468C4602
:100A80001946634600E000BF01B5FFF7B7FF002835
:100A900048BF10F1000F01BD4DF808EDFFF7F4FF5E
:100AA0000CBF012000205DF808FB00BF4DF808EDE9
:100AB000FFF7EAFF34BF012000205DF808FB00BF0C
:100AC0004DF808EDFFF7E0FF94BF012000205DF82E
:100AD00008FB00BF4DF808EDFFF7CEFF94BF0120E3
:100AE00000205DF808FB00BF4DF808EDFFF7C4FFDC
:100AF00034BF012000205DF808FB00BF4FEA410C25
:100B00007FEA6C5C02D150EA013C0AD14FEA430C07
:100B10007FEA6C5C02D152EA033C02D14FF0000044
:100B200070474FF0010070474FEA410212F5001282
:100B300015D211D56FF47873B3EB625212D94FEA24
:100B4000C12343F0004343EA505311F0004F23FA0E
:100B500002F018BF404270474FF00000704750EA63
:100B6000013005D111F0004008BF6FF00040704720
:100B70004FF00000704700BF4A0011D212F500127A
:100B800011D20DD56FF47873B3EB62520ED44FEAE5
:100B9000C12343F0004343EA505323FA02F0704765
:100BA0004FF00000704750EA013002D14FF0FF30A3
:100BB00070474FF0000070474FEA4102B2F1E04346
:100BC00024BFB3F5001CDCF1FE5C0DD901F0004C34
:100BD0004FEAC0024CEA5070B2F1004F40EB830084
:100BE00008BF20F00100704711F0804F21D113F1B0
:100BF0003872BCBF01F00040704741F480114FEAE9
:100C00005252C2F11802C2F1200C10FA0CF320FA71
:100C100002F018BF40F001004FEAC1234FEAD3238E
:100C200003FA0CFC40EA0C0023FA02F34FEA4303F8
:100C3000CCE77FEA625307D150EA01331EBF4FF081
:100C4000FE4040F44000704701F0004040F0FE409C
:100C500040F40000704700BF53B94AB9002908BFEB
:100C600000281CBF4FF0FF314FF0FF3000F00CB8F0
:100C7000ADF1080C6DE904CE06F062FEDDF804E08B
:100C8000DDE9022304B07047704700BF10B5054C82
:100C9000237833B9044B13B10448AFF30080012328
:100CA000237010BD0003002000000000FC7B000842
:100CB00008B5034B1BB103490348AFF3008008BDDF
:100CC0000000000004030020FC7B0008000000007E
:100CD00000B5234823490160002385B04FF48031DB
:100CE0000122CDE90033CDE90233C0E901130376D7
:100CF00080F82030C36002230261C36180F8302095
:100D000042614FF080534FF00062C0E90A2301F0C6
:100D100005FDB0B99FED107B06231148029369468B
:100D20008DED007B01F08EFE98B9092202230C485C
:100D30006946CDE9002301F085FE28B905B05DF8CC
:100D400004FB01F037F9E5E701F034F905B05DF88F
:100D500004FB01F02FF9E8E70800000001000000A3
:100D6000800300200020014070B5254B026888B048
:100D700000249A42CDE90244CDE90444069401D00E
:100D800008B070BD03F58C3300945A6C1D4E42F4CC
:100D900080725A645A6C02F480720092009A019434
:100DA0001A6B42F002021A631B6B03F002030193F9
:100DB00003220323054602A91348CDE90223019B20
:100DC00002F014F9114A74624FF48063C6E90024FA
:100DD00033614FF400624FF40053C6E905233046F7
:100DE0004FF48073C6E90244C6E9073401F058FFA6
:100DF00018B9AE63B56308B070BD01F0DBF8F8E771
:100E0000002001401C030020000402401064024046
:100E1000704700BFF0B5124D124F134E002383B040
:100E20002B8013E000F0B0FFB5F9004007EB84031E
:100E30001868FFF771FB0B4631880246CDE9004187
:100E40000A4800F061FF642001F00EFC00F0CCFFC6
:100E50000B2103462A460028E4D003B0F0BD00BFB2
:100E60003AC501201404002038C50120687C000820
:100E700070B5164C164D174E0023238006E0012B4B
:100E800018D0022B1DD0642001F0EEFB00F0ACFF67
:100E9000022103462246C0B900F076FFB4F90030C3
:100EA0002B70002BEBD1304600F02EFFB4F9003050
:100EB000012BE6D1084800F027FFB4F90030022BDF
:100EC000E1D1064800F020FFDDE770BD3AC5012002
:100ED00035C50120887C0008B47C0008E07C00084F
:100EE00070B50C4C0C4E0D4D0123238009E000F031
:100EF0004BFF21783170284600F006FF642001F096
:100F0000B3FB00F071FF03460A2122460120002BAB
:100F1000EDD070BD3AC50120220100200C7D0008F3
:100F200070B50E4C0E4E0F4D012323800DE000F0E6
:100F30002BFF218801EB81014900284689B23180CD
:100F400000F0E2FE642001F08FFB00F04DFF03464D
:100F5000B42122460120002BE9D070BD3AC5012002
:100F6000200100201C7D000870B5164C164D174E50
:100F70000023238006E0012B18D0022B1DD0642013
:100F800001F072FB00F030FF022103462246C0B997
:100F900000F0FAFEB4F900302B70002BEBD1304694
:100FA00000F0B2FEB4F90030012BE6D1084800F0A1
:100FB000ABFEB4F90030022BE1D1064800F0A4FEEC
:100FC000DDE770BD3AC5012034C50120347D00083D
:100FD000607D00088C7D00082DE9F84FDFF8D08097
:100FE000314DDFF8D0A02DED028B0024474622E0E2
:100FF0002E4B1878FFF77EFA27A3D3E90023FFF7DB
:10100000E3FA42464B46FFF729F9FFF7D5FD0646BE
:1010100045F8040C3046FFF77FFA21A3D3E90023FB
:10102000FFF7D2FAFFF7A8FD0134C1B2584600F02D
:10103000DFFD0C2C2BD055F8046BDAED007AB7EC01
:10104000018A304638EE278AFFF766FA07EE906A83
:10105000B4EEE78AF1EE10FA5FFA84FB8046894627
:10106000C6DCD7D5114B1878FFF744FA0AA3D3E9A9
:101070000023FFF7A9FA02460B4640464946FFF710
:10108000EBF8FFF799FD064645F8040CC2E7BDEC06
:10109000028BBDE8F88F00BFFCA9F1D24D62503F32
:1010A0000000000000046040E40300202201002052
:1010B000140400202401002008B5064803F084F839
:1010C000002205484FF4007102F04EF9034B002254
:1010D0001A7008BDBCC501200004024036C50120BD
:1010E0005B4B5C482DE9F04700245C6202F0F8FF9E
:1010F000594B1B78002B6BD1584C594D0FF24019AE
:10110000D9E9008904F5005A2088A0F50060FFF7AE
:10111000F1F963880646A3F500600F46FFF7EAF988
:1011200002460B4630463946FFF798F842464B4692
:10113000FFF74AFAFFF740FD0434A24545F8040BD7
:10114000E2D1484EDFF82CA1474F484CDFF8108120
:1011500006F13009A4F500554FF400632A464146D4
:10116000504603F0E1FC95ED007ABCEEC77AA4F599
:10117000FF5317EE102A92B207EE102AB8EEC77A84
:101180001C3BF3EC017AB4EEE77AF1EE10FAFCEED8
:10119000E77A06D517EE902A92B207EE102AB8EE3B
:1011A000C77AA342EDD1F6EC017A27EE277A4E45B5
:1011B0000AF10C0A03F50054A7EC017ACAD12548BC
:1011C00002F0BCFF224A2A4B526A1A80BDE8F0871F
:1011D000012B1AD0022BB4D1214C204D1AA7D7E9EC
:1011E000006704F500586888A0F50060FFF782F9F1
:1011F00032463B46FFF7E8F9FFF7DEFC44F8040B04
:10120000A04505F10405EED19BE70FA7D7E90067DC
:10121000134DDFF8488038F82400A0F50060FFF790
:1012200069F932463B46FFF7CFF9FFF7C5FC0134B9
:10123000B4F5006F45F8040BEDD182E7AFF3008001
:101240006666666666663A3F6666666666664A3FD4
:1012500000000140D8C7012035C5012044240020EA
:10126000440400200000002014040020D464002066
:1012700038C50120444400202DE9F041DFF86480A6
:1012800098F8005035BB144E00272C46E0B20021E0
:10129000013400F0ADFC0C2C46F8047BF6D10F486D
:1012A00001224FF4007102F05FF80024E0B22946F9
:1012B000013400F09DFC0C2CF8D101356420EDB216
:1012C00001F0D2F90F2DF0D1054802F04BFF0123B8
:1012D00088F80030BDE8F081E403002000040240FB
:1012E000BCC5012036C501202DE9F843464D002735
:1012F0002E460024E0B20021013400F079FC0C2CD1
:1013000046F8047BF6D14148414C424E02F05CFF66
:101310000023238009E000F037FD3046B4F90010C7
:1013200000F0F2FC322001F09FF900F05DFD032196
:10133000034622460028EED0B4F9006000F054FDC8
:101340000028FBD1324FDFF8D880208009E000F080
:101350001BFD4046B4F9001000F0D6FC322001F02D
:1013600083F900F041FD032103463A460028EED000
:10137000B4F9008000F038FD0028FBD1244FDFF8DD
:10138000A49020800FE000F0FFFCB4F90010484664
:1013900000F0BAFCF0B221785FFA88F200F0E6FAC9
:1013A000322001F061F900F01FFD01233A46FF21D0
:1013B0000028E8D0184F002400263C70E0B200213D
:1013C000013400F015FC0C2C45F8046BF6D11348E1
:1013D00001224FF4007101F0C7FF00250024E0B2A4
:1013E0002946013400F004FC0C2CF8D101356420AE
:1013F000EDB201F039F90F2DF0D1044802F0B2FE40
:1014000001233B70BDE8F883E4030020BCC5012044
:101410003AC50120B87D000836C50120000402400D
:10142000C87D0008DC7D0008F8B55C4D00272E461D
:101430000024E0B20021013400F0DAFB0C2C46F865
:10144000047BF6D1564802F0BFFE564800F05CFC23
:101450000026002402E00134DC2C35D0E1B2304615
:1014600000F0C6FB052001F0FFF800F0BDFC0028ED
:10147000F1D04D4E002400273470E0B20021013439
:1014800000F0B6FB0C2C45F8047BF6D1474801224E
:101490004FF4007101F068FF00250024E0B22946F6
:1014A000013400F0A5FB0C2CF8D101356420EDB21D
:1014B00001F0DAF80F2DF0D1394802F053FE012384
:1014C0003370F8BD052C35D02146304600F090FB36
:1014D000052001F0C9F800F087FC013CE4B20028C7
:1014E000F0D0314E002400273470E0B200210134E6
:1014F00000F07EFB0C2C45F8047BF6D12B48012232
:101500004FF4007101F030FF00250024E0B22946BD
:10151000013400F06DFB0C2CF8D101356420EDB2E4
:1015200001F0A2F80F2DF0D11D4802F01BFE01239F
:101530003370F8BD0136F6B20C2E8AD10446E0B203
:10154000DC21013400F0E6FA0C2CF8D100F04CFC60
:101550000028FBD0144E002400273470E0B2002194
:10156000013400F045FB0C2C45F8047BF6D10F4804
:1015700001224FF4007101F0F7FE00250024E0B2D3
:101580002946013400F034FB0C2CF8D101356420DD
:10159000EDB201F069F80F2DF0D18DE7E4030020E2
:1015A000BCC50120EC7D000836C5012000040240C6
:1015B0002DE9F84F2DED028B00F016FC0028FBD131
:1015C000774C2378002B00F0DB80012B00F0DE80CD
:1015D00071A7D7E90067DFED738A9FED738A00F08A
:1015E00003FC044600285BD1DFF8D0A1DFF8D091DE
:1015F000BAF80030002B00F08380DFF8C8810BE0E0
:101600000134E4B225464FF4FA7001F02DF8BAF82F
:101610000030B5EB430F73DA00F0E6FB00287CD115
:1016200098ED017AD8ED007AD8ED026A77EE877AE4
:1016300098ED037A77EEA67AD8ED046A77EE877A8A
:1016400098ED057A77EEA67AD8ED066A77EE877A76
:1016500098ED077A77EEA67AD8ED086A77EE877A62
:1016600098ED097A77EEA67AD8ED0A6A77EE877A4E
:1016700098ED0B7A77EEA67A77EE877A67EEA87AFE
:1016800017EE900AFEF748FF32463B46FFF72CFA6A
:101690000028B5D099F8005055B101252C46B2E785
:1016A00000F0A2FB0028FBD1BDEC028BBDE8F88F57
:1016B000DFF800B12C46E0B20021013400F098FAC6
:1016C0000C2CABEC018AF6D1384801224FF40071A2
:1016D00001F04AFE0024E0B22946013400F088FA05
:1016E0000C2CF8D101356420EDB200F0BDFF0F2DB8
:1016F000F0D12F4802F036FD012389F80030CCE705
:101700002B4802F061FD294800224FF4007101F0DE
:101710002BFE002389F8003061E799F8005035BBB3
:10172000244E00272C46E0B20021013400F060FA7C
:101730000C2C46F8047BF6D11C4801224FF40071B2
:1017400001F012FE0024E0B22946013400F050FA04
:101750000C2CF8D101356420EDB200F085FF0F2D7F
:10176000F0D1134802F0FEFC012389F8003000F0AC
:101770003BFB002898D000F037FB0028F7D193E717
:1017800000F0EEFA2378012B7FF422AF0A4800F034
:10179000BBFA1DE7AFF300809A9999999999A93FEF
:1017A00034C50120ABAAAA3D00000000000402409D
:1017B000BCC50120E4030020107E000820010020A9
:1017C00036C501201404002010B596B019491A4CF2
:1017D000502202A804F07BF80023ADF806300FE099
:1017E00000F0D2FABDF9061016AB03EBC103204698
:1017F00053F8502C013100F087FA322000F034FF0A
:1018000000F0F2FA092103460DF106020028E7D0A4
:1018100000F0EAFA0028FBD1BDF9063016AA02EB67
:10182000C30353F84C3C984700F0DEFA0028FBD184
:1018300016B010BD187C00083C7E00082DE9F04170
:10184000374A3848002101F033F8374A37480E212B
:1018500002F030FF0024E0B20021013400F05AF918
:10186000102CF8D1324C334E334D04F190072B46F7
:101870003246204601210C3403F00AFABC4206F13C
:10188000140605F10805F2D12C492648DFF8C88076
:101890004FF4805201F040F8294802F021FC294819
:1018A00002F01EFC214802F05DFC274800F02CFAF3
:1018B0004FF4FA6000F0D8FE244800F025FA4FF407
:1018C000FA6000F0D1FE98F8005035BB204E00279A
:1018D0002C46E0B20021013400F08AF90C2C46F8C5
:1018E000047BF6D11B4801224FF4007101F03CFD4E
:1018F0000024E0B22946013400F07AF90C2CF8D12A
:1019000001356420EDB200F0AFFE0F2DF0D1074895
:1019100002F028FC012388F80030BDE8F08100BF08
:10192000E110000880030020D90F0008BCC5012089
:101930004444002030000020D4C40120442400206E
:1019400024C7012070C60120447E0008707E000874
:10195000E40300200004024036C5012008B5FFF76B
:1019600027FEBDE80840FFF72FBF00BFF0B54FF0DE
:10197000000761F3070783B00D46144606460022B0
:10198000614861F30F27102101F0EEFC5E48002250
:10199000202101F0E9FC032C26D8DFE804F069538C
:1019A0003D2708228DF8042058488DF805506423FF
:1019B00003228DF8065002F08FF9002C7BD0012C09
:1019C00000F09480022C00F0848051480122042110
:1019D00001F0CAFC4C480122102101F0C5FC4A4824
:1019E0000122202101F0C0FC03B0F0BD04214848D1
:1019F000002201F0B9FC002301A9ADF80430032E48
:101A0000F2D801A353F826F0F91A0008A51A000825
:101A1000A11A0008A319000808213D48002201F07E
:101A2000A3FC002301A9ADF80430032EDCD801A3E8
:101A300053F826F0C51A0008A51A0008A11A0008D4
:101A4000A319000810213248002201F08DFC002368
:101A500001A9ADF80430032EC6D801A353F826F02F
:101A6000DF1A0008A51A0008A11A0008A319000827
:101A70004FF480612448002201F076FC002301A984
:101A8000ADF80430032EAFD801A353F826F000BF01
:101A9000A91A0008A51A0008A11A0008A31900082D
:101AA00018227FE710227DE71848ADF805706423FF
:101AB000032202F011F9144801224FF4806101F071
:101AC00053FC87E71148ADF805706423032202F048
:101AD00003F90F480122082101F046FC7AE70B4880
:101AE000ADF805706423032202F0F6F808480122DD
:101AF000102101F039FC6DE7642303220348ADF89F
:101B0000057002F0E9F860E70004024060C50120BA
:101B10000000024030B5032883B004460FD90728DF
:101B200005D90B2854D90F2846D903B030BD043845
:101B30000122C0B203B0BDE83040FFF717BF2A480A
:101B400000220D46102101F00FFC27480022202121
:101B500001F00AFC244800224FF4806101F004FCEB
:101B60000023022CADF804303AD0032C2CD0012CE9
:101B700002D110238DF804304FF0000465F3070400
:101B8000642301A965F30F2403221848ADF805402A
:101B900002F0A2F8144801224FF4806101F0E4FB46
:101BA00011480122102101F0DFFB0F480122202102
:101BB00001F0DAFB03B030BD0C380322C0B203B031
:101BC000BDE83040FFF7D2BE08238DF80430D3E7DC
:101BD00008380222C0B203B0BDE83040FFF7C6BEED
:101BE00018238DF80430C7E70004024060C50120C7
:101BF00030B5C0F10B04E4B2032C83B010D9072C2C
:101C000005D90B2C55D90F2C47D903B030BDC0F1E5
:101C100007000122C0B203B0BDE83040FFF7A6BE06
:101C20002A4800220D46102101F09EFB2748002281
:101C3000202101F099FB254800224FF4806101F03A
:101C400093FB0023022CADF804303BD0032C2CD0A6
:101C5000012C02D110238DF804304FF0000465F3FD
:101C60000704642301A965F30F2403221848ADF883
:101C7000054002F031F8154801224FF4806101F06F
:101C800073FB12480122102101F06EFB0F48012264
:101C9000202101F069FB03B030BDC0430322C0B274
:101CA00003B0BDE83040FFF761BE08238DF8043073
:101CB000D3E7C0F103000222C0B203B0BDE8304058
:101CC000FFF754BE18238DF80430C6E70004024025
:101CD00060C5012000B583B00A4B00220192196B48
:101CE00041F4800119631B6B03F48003019302210B
:101CF0003820019B00F070FF382003B05DF804EB42
:101D000000F0A6BF003802400FB430B58DB010AC63
:101D1000282254F8045B002102A803F059FD282171
:101D200023462A4602A8019403F044FD20200DF129
:101D300007030DF12F0113F8012F1F2A98BF187008
:101D40008B42F8D14FF0FF33282202A9034802F05A
:101D5000FBFD0DB0BDE8304004B0704790C80120D5
:101D600000B583B04FF0130C4FF0FF3301220DF19B
:101D7000070104488DF807C002F0E6FD03B05DF8E6
:101D800004FB00BF90C8012070B5154C154E2568A6
:101D9000B6F800C06C6AA4EB0C0E0EF1030CBCF19B
:101DA000060F14D914881CEA2E0C38BFF4464CF3E5
:101DB000870CA4440FFA8CFC8C45A2F800C007DD08
:101DC00013B18142118000D210806B6A338070BDE4
:101DD0008445FADA002BF7D16B6A11803380F6E77D
:101DE00024C701203CC5012008B54FF40051034829
:101DF00001F0B4FA013818BF012008BD0008024004
:101E000070B500248AB0CDE90444CDE906442E4BD8
:101E1000009408941A6B2D4E2D4D42F004021A6363
:101E20001A6B02F004020092009A01941A6B42F0BD
:101E300080021A631A6B02F080020192019A0294E6
:101E40001A6B42F001021A631A6B02F0010202924D
:101E5000029A03941A6B42F002021A631B6B03F09E
:101E600002030393304601221C21039B01F07CFAFC
:101E7000284601224FF4866101F076FA2246284670
:101E80004FF4007101F070FA4FF40052002304A9DE
:101E900010480694CDE9042301F0A8F81C2330462D
:101EA00004A901260493CDE90564079401F09EF886
:101EB0004FF4C66304A92846CDE90436CDE90644AB
:101EC00001F094F80AB070BD0038024000000240F2
:101ED000000402400008024010B5002394B0CDE990
:101EE0000A33CDE90333CDE90533214901930C933E
:101EF0000793086C1F4A40F080500864096C01F099
:101F00008051019101990293136843F44043136097
:101F1000136803F44043022409204FF480310293F4
:101F200001224FF48003CDE90801CDE90D24029888
:101F30000F930C216022042308A8CDE91012CDE9EB
:101F4000124301F015FA08B172B6FEE70F210346FD
:101F5000CDE903144FF4805203A80321CDE90532E3
:101F6000079301F01BFC08B172B6FEE714B010BD78
:101F7000003802400070004008B500F049FBFFF750
:101F8000ABFFFFF73DFFFFF7A5FEFEF7A1FE00F058
:101F900053F800F08DF900F0BDFA00F04DF900F0B3
:101FA000BDF900F0F5F900F007F8FFF747FCFFF77F
:101FB000D5FCFCE772B6FEE710B50A480A4C0023D0
:101FC0007F21FF22C0E90043C0E90212C0E90433C7
:101FD000836101F04BFD00B910BDBDE81040FFF773
:101FE000E9BF00BF40C501200028004000B5104AED
:101FF000016887B000239142CDE901330393059333
:1020000002D007B05DF804FB02224FF4007368466B
:102010000092049301F080FC30B9064B0122C3F812
:102020003C2E07B05DF804FBFFF7C4FFF5E700BFE7
:1020300000280040000047420E480F494FF48272CA
:1020400010B50023C0E900124FF4007418210A22D1
:10205000C0E90233C0E90433C0E90641C0E90833EE
:10206000C0E90A3201F0D6FD00B910BDBDE810404C
:10207000FFF7A0BF60C50120003001400000000054
:1020800010B51B4A016888B000239142CDE90233A4
:10209000CDE90433069301D008B010BD02F58432B7
:1020A0000093506C40F480505064506C00F48050A9
:1020B000009000980193136B0E4843F001031363E3
:1020C000136B9FED097B03F00103019303220523AA
:1020D00002A98DED027BCDE90523019C00F086FF6E
:1020E00008B010BDAFF30080A000000002000000A7
:1020F000003001400000024082B00C4B00210091F2
:102100005A6C42F480425A645A6C02F48042009243
:10211000009A01911A6C42F080521A641B6C03F011
:1021200080530193019B02B0704700BF003802400A
:10213000FEE700BFFEE700BFFEE700BFFEE700BF0F
:10214000FEE700BF704700BF704700BF704700BF89
:1021500000F078BA014802F045B900BFBCC50120C3
:10216000014800F06DBE00BF1C0300200120704735
:1021700008B503F07FFB162303604FF0FF3008BD66
:1021800008B503F077FB16230360FEE770B5161E53
:1021900007DD0C468D19AFF3008004F8010BA54252
:1021A000F9D1304670BD00BF70B5161E07DD0C4674
:1021B0008D1914F8010BAFF30080A542F9D1304618
:1021C00070BD00BF4FF0FF30704700BF4FF40053A9
:1021D0004B600020704700BF01207047002070470F
:1021E0000C490D4A0B6810B50C4C121B2BB118444E
:1021F000904207D80860184610BD094B0B60184480
:102200009042F7D903F036FB0C2303604FF0FF3305
:10221000184610BDB8C501200000022000040000CF
:1022200028CA0120034AD2F8883043F47003C2F868
:102230008830704700ED00E000B51B481B4A026083
:102240006422002387B042604FF6FF72CDE902336B
:10225000CDE90433CDE90033C0E90232C0E90433EB
:10226000836101F071FE98B94FF480530E480293D8
:1022700002A902F075F998B9002200230A486946BC
:10228000CDE9002302F090FA28B907B05DF804FB0D
:10229000FFF790FEE8E7FFF78DFE07B05DF804FB5F
:1022A000FFF788FEE8E700BFD8C701200000014023
:1022B00000B519488DB04FF6FF7100234FF08042F2
:1022C000C1600321CDE90633CDE90033C0E9013314
:1022D000049308930A9302600361012283610391CE
:1022E0000F2303A9059209920B9301F085FF58B9BA
:1022F0000022002308486946CDE9002302F054FA81
:1023000028B90DB05DF804FBFFF754FEF0E7FFF7C6
:1023100051FE0DB05DF804FB24C7012000B51A483A
:102320001A4A026040F2E732002387B0426001227D
:10233000CDE90233CDE90433CDE90033C0E90232FF
:102340000361836101F000FE98B94FF480530E4899
:10235000029302A902F004F998B9202200230A4846
:102360006946CDE9002302F01FFA28B907B05DF8ED
:1023700004FBFFF71FFEE8E7FFF71CFE07B05DF860
:1023800004FBFFF717FEE8E770C6012000040040D9
:1023900000B51B481B4A026040F2E732002342604E
:1023A000632287B0C0E902328022CDE90233CDE951
:1023B0000433CDE900330361826101F0C5FD98B9B2
:1023C0004FF480530E48029302A902F0C9F898B95D
:1023D000002200230A486946CDE9002302F0E4F90F
:1023E00028B907B05DF804FBFFF7E4FDE8E7FFF765
:1023F000E1FD07B05DF804FBFFF7DCFDE8E700BF97
:10240000BCC501200008004000B5214A0368934282
:1024100085B017D01F4A934205D01F4A934220D05F
:1024200005B05DF804FB1D4B002202921A6C42F0CD
:1024300002021A641B6C03F002030293029B05B0B4
:102440005DF804FB154B002201925A6C42F0010228
:102450005A645B6C03F001030193019B05B05DF8C6
:1024600004FB0E4B00220392196C41F00401196425
:102470001B6C03F00403039301211E20039B00F057
:10248000ABFB1E2005B05DF804EB00F0E1BB00BF24
:1024900000000140000400400008004000380240F5
:1024A00000B5026889B00023B2F1804FCDE9023354
:1024B000CDE90433069302D009B05DF804FB02F5C0
:1024C0000E320093106C40F001001064106C00F0AC
:1024D0000100009000980193136B0D4843F0010335
:1024E0001363136B9FED087B03F00103019302A9B3
:1024F00001238DED027B019A069300F077FD09B070
:102500005DF804FBAFF30080030000000200000050
:102510000000024010B50B480B4C00234FF416513D
:102520000C22C0E90041C0E90233C0E90432C0E92D
:10253000063302F077F900B910BDBDE81040FFF78F
:1025400039BD00BF90C8012000100140000000000C
:1025500010B51B4A016888B000239142CDE90233CF
:10256000CDE90433069301D008B010BD02F59432D2
:102570000093506C40F010005064506C00F010005C
:10258000009000980193136B0E4843F0020313630D
:10259000136B9FED097B03F00203019303220723D2
:1025A00002A98DED027BCDE90523019C00F01EFD03
:1025B00008B010BDAFF30080C000000002000000B2
:1025C000001001400004024038B50E4A0E4B12784C
:1025D000054618684FF47A73B3FBF2F3B0FBF3F0DF
:1025E00000F044FB08B90F2D01D9012038BD044685
:1025F000024629464FF0FF3000F0EEFA034B20462A
:102600001D6038BD2C010020280100203001002071
:1026100008B50B4B1A6842F400721A601A6842F44B
:1026200080621A601A6842F480721A60032000F017
:10263000C1FA0020FFF7C8FFFFF75EFD002008BDCC
:10264000003C0240034A044B11681B780B441360A2
:10265000704700BFD4C801202C010020014B18682E
:10266000704700BFD4C8012038B50446FFF7F6FF15
:10267000631C054602D0044B1B781C44FFF7EEFF99
:10268000401BA042FAD338BD2C010020836B1A6C8A
:1026900012F0500F1A6C22D142F4007219681A64B9
:1026A0008A6812F0405F17D11A7EAAB9CA6A12F47A
:1026B000700F02D08A6850050ED44A6822F02002BA
:1026C0004A601A6C22F480721A641A6CD10403D422
:1026D0001A6C42F001021A649A6C18461047D2062E
:1026E00002D55A6D184610479B6BDB6C184700BF2C
:1026F000806BC36C184700BF806B40230364436C3E
:10270000426D43F004034364104700BF704700BFAD
:10271000704700BF704700BF704700BF002800F03F
:10272000AD80036C10B504463BB1236CDB061BD5B2
:10273000002384F83C30012010BD5549554AC36D33
:102740005548C4E912125549554AA265C4E9140115
:10275000002B00F09A80204698470023636484F899
:102760003C30236CDB06E3D4236C4E4A23F48853BD
:1027700023F0020343F0020323645168236821F429
:102780004031516051686068014351605A68206966
:10279000A16822F480725A605A6842EA00225A60A4
:1027A0005A68E06822F040725A605A680A435A60D8
:1027B0009A68A16A22F400629A609A6802439A6059
:1027C000394A91429A6851D022F07062E06A9A6068
:1027D0009A68114399609A6822F040529A609A6808
:1027E00002439A609A6822F002029A609A68217EF7
:1027F00042EA41029A6094F82020002A40D05A68A8
:10280000616A42F400625A605A6822F460425A6077
:102810005A68013942EA41325A60DA6AE16922F4BF
:102820007002DA62DA6A013942EA0152DA629A68BF
:10283000616922F400729A609A6894F8300042EA62
:1028400040229A609A6822F480629A609A68002016
:1028500042EA81229A606064236C23F0030343F010
:1028600001032364002384F83C3010BD22F0706221
:102870009A609A6822F040529A60B3E7012070474C
:102880005A6822F400625A60C7E7084BE36562E7C2
:102890001127000815270008192700080D27000830
:1028A000B12B0008002301400100000F690D000852
:1028B000F2B1036CDB0708D4036CCBB905291DD03A
:1028C000062915D1026600207047062910D801A3F9
:1028D00053F821F003290008132900080F290008E4
:1028E0000B29000807290008FD280008C528000852
:1028F000436C43F01003436401207047C26500201D
:1029000070478264DFE78265DDE74265DBE70265E9
:10291000D9E7C264D7E700BF70B5054690F83C0020
:1029200082B00023012801937BD02E681346012238
:1029300085F83C20B268D20714D4B26842F0010294
:10294000B260394A1068394AA2FB0020800C00EBC3
:1029500040000190019A2AB1019C013C0194019828
:102960000028F9D1B268D40503D5B26822F4807288
:10297000B260B268D00740D5286C20F4E06020F047
:10298000010040F4807028647268520505D52A6CF5
:1029900022F4405242F480522A642A6CA86B12F44A
:1029A00080521CBF6A6C22F006026A64002285F81D
:1029B0003C200A461E49C1631E4901641E49C16488
:1029C0006FF022013160716841F080617160B1681F
:1029D00041F48071B16006F14C0100F0F5F9174B3C
:1029E0005B68DB0614D12B689A6812F0405F0CD14B
:1029F0009A6842F080429A6007E02B6C43F0100323
:102A00002B646B6C43F001036B64002002B070BD5B
:102A10000B4A2B689342F8D19A6812F0405FF4D1C8
:102A2000E6E7022002B070BD2801002083DE1B43D0
:102A30008D260008F1260008F92600080023014031
:102A40000020014070B590F83C3082B00246012B66
:102A50004FF00000019000F09E80012382F83C308E
:102A60000D6813688C68092DA8B228D81E6905EB7B
:102A7000450E4FF0070C0CFA0EFC26EA0C061E6100
:102A80001E6904FA0EF434431C614C68062C04EBF6
:102A900084012AD85C6B05394FF01F0C88400CFA72
:102AA00001F124EA01015963596B084358633B491A
:102AB0008B422BD0002082F83C0002B070BD00EBAE
:102AC000400CDE68ACF11E0C4FF0070E04FA0CF45B
:102AD0000EFA0CFC26EA0C06DE60DE683443DC608D
:102AE0004C68062C04EB8401D4D90C2C1FD81C6B29
:102AF00023391F26884006FA01F124EA01011963EF
:102B0000196B0843254918638B42D3D1122D1BD072
:102B1000234B9D4222D0112DCCD1224B596821F458
:102B200080015960596841F400015960C2E7DC6ACC
:102B300041391F26884006FA01F124EA0101D962D1
:102B4000D96A0843D862B2E7164B596821F40001EC
:102B50005960596841F480015960ABE7114B124C40
:102B60005968124821F480015960596841F4000104
:102B700059602368A0FB03039B0C03EB83035B00FA
:102B80000193019B002B95D0019B013B0193019B7D
:102B9000002BF9D18EE7022002B070BD0020014069
:102BA00012000010002301402801002083DE1B4397
:102BB000704700BF0749CA6803024FF6FF0003F4DD
:102BC000E0630240134343F0BF6343F40033CB6040
:102BD000704700BF00ED00E01B4BDB68C3F302232E
:102BE00000B5C3F1070EBEF1040F03F1040C28BFBA
:102BF0004FF0040EBCF1060F1CD9A3F1030C4FF0EB
:102C0000FF3303FA0CF322EA03024FF0FF3303FA17
:102C10000EF321EA030303FA0CF313431B0100280C
:102C2000DBB20ADB00F1604000F5614080F8003360
:102C30005DF804FB00229446E7E7044A00F00F0029
:102C4000024413765DF804FB00ED00E0FCEC00E0CC
:102C5000002807DB4109044A00F01F0001238340DC
:102C600042F82130704700BF00E100E00138B0F1C8
:102C7000807F01D30120704710B44FF0E023074C50
:102C800058614FF0F00C84F823C000220721104651
:102C90009A615DF8044B1961704700BF00ED00E0D8
:102CA00038B50446FFF7DAFC002C6DD0236800220B
:102CB000022184F8351084F834201A6822F00102C9
:102CC00005461A6005E0FFF7C9FC431B052B37D802
:102CD00023681A68D107F6D4D4E90120E1680243D9
:102CE0000A43D4E90451A0692A430A43E1691D68F3
:102CF00002430A4331492940256A2A430A43616A4B
:102D0000042924D01A605A6922F007021143D8B26C
:102D10002B4A59611038A2FB0052120929496FF35E
:102D20000903895CE1655F2888BF04333F228A403C
:102D3000A36500209A600123606584F8353038BDB2
:102D400003232022626584F83530184638BDD4E963
:102D50000B512943114319605969A26A21F00701F7
:102D6000114341F00401002DD1D078B1B0F5005FDE
:102D700016D0022A03D9032AC9D1EA01C7D54022B5
:102D80000123626584F83530012038BD012A03D063
:102D900032F00202BBD1F0E7B5F1C07FB7D1EEE768
:102DA000032AB4D801A050F822F000BF7F2D0008FC
:102DB0007B2D00087F2D0008992D00083F8010F022
:102DC000ABAAAAAA5C7F000870B490F83440856D65
:102DD000012C0AD090F835404FF0010C644580F882
:102DE00034C005D0002380F83430022070BC704716
:102DF000022680F83560046800264665266826F4B9
:102E00008026266063608368402B0EBFA260A160AD
:102E1000E260C26D08BFE1603F239340AB6023686E
:102E2000026C43F0160323601AB1236843F00803D1
:102E30002360236843F001030020236070BC7047C7
:102E4000F0B583B0674A876D166800230193C36DA0
:102E50003D6808229A402A42044603D00168086867
:102E6000400778D401229A402A4203D02168496958
:102E700008066AD404229A402A4203D021680968CD
:102E800089075CD410229A402A4203D0216808683E
:102E9000000741D420229A402A4214D021680868B1
:102EA000C00610D5BA6094F83520052A63D00B68A7
:102EB00013F4802F0B687ED0190340F18980E36BF7
:102EC0000BB120469847636D23B3636DDA071AD5BB
:102ED00022684549052384F835301368A1FB06169E
:102EE00023F00103B60A136002E01368DB0704D580
:102EF000019B0133B3420193F7D90122002384F8E7
:102F0000352084F83430E36C23B1204603B0BDE8AB
:102F1000F040184703B0F0BDBA600A6812F4802F81
:102F20000A6822D1D20503D40A6822F008020A6096
:102F3000226C002AAED020469047E36DAAE7BA6023
:102F4000626D42F0040262659CE7BA60626D42F015
:102F5000020262658EE7086820F004000860BA602B
:102F6000626D42F0010262657CE71103E0D5A26C5C
:102F7000002AE0D18EE70A6822F016020A604A6948
:102F800022F080024A61226C3AB30A6822F00802F9
:102F90000A603F2202FA03F3216DBB600122002385
:102FA00084F8352084F834300029B3D0204603B0AB
:102FB000BDE8F040084713F4807380D10A6822F01E
:102FC00010020A60012284F8352084F8343076E754
:102FD000636C002B7FF475AF75E7A26C002AD4D127
:102FE000D7E700BF28010020B5814E1B2DE9F04F27
:102FF000C04B0A68984285B04FF000034FF0010BB8
:1030000000F0C480DFF8FCA2894602E00133102BF7
:103010007BD00BFA03F101EA02089143F6D1D9F80B
:10302000044004F0030C590003250CF1FF368D40D9
:10303000012E6FEA05056BD9BCF1030F40F07481D6
:1030400006680CFA01F13540294314F4403F016051
:10305000DCD000210391DAF8441041F48041CAF831
:103060004410DAF8441001F480410391039923F0ED
:10307000030101F1804103F003060F2701F59C31A4
:10308000B60007FA06FC9C4F8D68B84225EA0C058D
:1030900076D09A4FB84200F03B81DFF86CC26045B1
:1030A00000F03C81DFF864C260450CBF4FF0040CB7
:1030B0004FF0070C0CFA06F635438D60904989688D
:1030C000E6026FEA08058E4E54BF294048EA010126
:1030D000B160F1688A4EA70254BF294048EA010155
:1030E000F1607168A603864E54BF294048EA010189
:1030F00071603168E40303F10103814C54BF29403E
:1031000048EA0101102B216083D105B0BDE8F08FA2
:10311000866806EA050ED9F80C608E4046EA0E066F
:103120008660466826EA080EC4F300169E4046EA0A
:103130000E064660C66806EA050ED9F808608E409D
:1031400046EA0E06BCF1020FC6607FF479AFDE08D6
:1031500000EB86060196376AD9F81060009703F0F5
:10316000070E4FEA8E0E0F2706FA0EF607FA0EFE2E
:10317000009F27EA0E0E019F46EA0E063E625FE7B9
:103180004FF0010C0CFA06F6354396E7DFF8708134
:1031900002E00133102BB8D00BFA03F402EA040664
:1031A0009443F6D14D6805F0030400945F000324B6
:1031B00004FA07FC009C6FEA0C0A04F1FF3CBCF126
:1031C000010F4CD9032C40F0B980009CBC4007682B
:1031D00007EA0A073C4315F4403F0460D9D0494F41
:1031E000002403947C6C44F480447C647C6C04F480
:1031F00080440394039C23F0030404F1804404F509
:103200009C3403F003074FF00F0CBF000CFA07F7D4
:10321000D4F808C02CEA0707A76015F4801FD8F877
:1032200008406FEA060762D13C40C8F8084015F430
:10323000001FD8F80C4058D13C40C8F80C4015F499
:10324000003FD8F804404ED13C40C8F80440ED039C
:10325000D8F8004045D43C40C8F8004099E7D0F881
:1032600008E0CC680AEA0E0E04FA07FC4CEA0E0CE1
:10327000C0F808C0D0F804E0C5F3001C2EEA060E22
:103280000CFA03FC4CEA0E0CC0F804C08C68D0F8B1
:103290000CE004FA07FC009C0AEA0E0E4CEA0E0C45
:1032A000022CC0F80CC090D14FEAD30C4FEA8C0C22
:1032B0000C690CF1804C03F0070E0CF5003C4FEA52
:1032C0008E0E04FA0EF4DCF8209001940F2404FA18
:1032D0000EFE019C29EA0E0944EA090ECCF820E012
:1032E00073E73443B8E73443AFE73443A5E73443E7
:1032F0009BE700BF000002400004024000080240BB
:10330000003C014000380240000C02400010024026
:103310004FF0020C0CFA06F63543CEE64FF0030CE4
:103320000CFA06F63543C8E6C66806EA050ED9F873
:1033300008608E4046EA0E06C66081E6DFF818E0B7
:103340008C68DEF80C9004FA07FC0AEA09094CEADA
:10335000090CCEF80CC038E700000240036919429E
:1033600014BF01200020704702B909048161704731
:10337000002800F0D8812DE9F0410368DD0782B014
:1033800004462FD59D498A6802F00C02042A00F0F9
:10339000EC808A6802F00C02082A00F0E280636880
:1033A000B3F5803F00F0EB80B3F5A02F00F0738100
:1033B000924D2A6822F480322A602A6822F4802200
:1033C0002A60002B40F0E080FFF748F9064605E050
:1033D000FFF744F9801B642800F200812B689F03EB
:1033E000F6D423689D0728D5844A916811F00C0F04
:1033F00000F09B80916801F00C01082900F0918099
:10340000E368002B00F00C817D4B7C4E01221A609A
:10341000FFF724F9054605E0FFF720F9401B0228D5
:1034200000F2DC8033689F07F6D53368226923F009
:10343000F80343EAC203336023681A075CD45D07CC
:103440003AD56E4A136C13F0805340F08880019394
:10345000136C43F080531364136C03F08053019397
:10346000019B0125674E3368D80540F1A780A3680A
:10347000012B00F0B780052B00F01D815F4E326FED
:1034800022F001023267326F22F004023267002B11
:1034900040F0AD80FFF7E2F841F28838074605E0DA
:1034A000FFF7DCF8C01B404500F29880336F9B07A4
:1034B000F6D4002D40F0F980A369CBB14F4DAA6836
:1034C00002F00C02082A00F0BC80022B4C4B4FF09B
:1034D00000021A6600F0F980FFF7C0F8044604E025
:1034E000FFF7BCF8001B022878D82B689B01F7D4A3
:1034F000002002B0BDE8F0816369FBB1404B3F4E54
:103500000122C3F8802EFFF7A9F8054604E0FFF773
:10351000A5F8401B022861D8736F9B07F7D5236875
:103520008DE7526851023FF56BAF344A126892073B
:1035300038D5E268012A35D00120DAE7304A2F4E2B
:10354000C2F8803EFFF78AF8054604E0FFF786F8E8
:10355000401B022842D8736F9F07F7D4DFE700258E
:1035600080E74A6851027FF51AAF244A1268920335
:103570007FF538AF6268002A7FF434AFDCE71F4A7A
:10358000136843F480331360FFF768F81B4E054659
:1035900004E0FFF763F8401B64281FD833689B03DF
:1035A000F7D51EE7154920690A6822F0F80242EAB9
:1035B000C0020A601A077FF542AF9DE7336843F403
:1035C00080733360FFF74AF807463368D9053FF543
:1035D0004EAFFFF743F8C01B0228F6D9032002B014
:1035E000BDE8F081054A136F43F001031367FFF74D
:1035F00035F8024F064641F288380AE000380240AA
:103600000000474200700040FFF728F8801B40454B
:10361000E4D83B6F9A07F7D5002D3FF44DAF44E057
:10362000424A434E1360FFF719F8054604E0FFF7DE
:1036300015F8401B0228D1D833689907F7D42368BE
:10364000FBE6012B3FF478AF6B68E26903F480017D
:1036500091427FF471AF226A03F03F0191427FF4FF
:103660006BAF616A47F6C0721A40B2EB811F7FF4FC
:1036700063AFA26A520803F44031013AB1EB024F42
:103680007FF45AAFE26A03F07063B3EB026F14BFCA
:10369000012000202DE7264B1A6842F480221A6090
:1036A0001A6842F480321A606EE7214A136C23F0E4
:1036B0008053136400E71E4B1A6F42F004021A672E
:1036C0001A6F42F001021A6791E7FEF7C7FF06463C
:1036D00005E0FEF7C3FF801B02283FF67FAF2B6893
:1036E0009901F6D4D4E90731626A0B4343EA8213A5
:1036F000D4E90A2052080D4943EA0063013A43EA3B
:10370000024301226B600A66FEF7A8FF084D0446DB
:1037100005E0FEF7A3FF001B02283FF65FAF2B6812
:103720009A01F6D5E4E60120704700BF0000474249
:1037300000380240164908B58B6803F00C03042BCF
:103740001BD0082B01D0134808BD4A684B68496854
:1037500013F4800302F03F0211D10E48C1F3881127
:10376000A1FB0001FDF778FA094B5B68C3F3014345
:1037700001335B00B0FBF3F008BD074808BD064805
:10378000C1F388110023A1FB0001FDF765FAEBE707
:10379000003802400024F40040787D01002800F049
:1037A0008780484A136803F007038B422DE9F041F4
:1037B0000D46044609D2CBB21370136803F0070319
:1037C0008B4202D00120BDE8F0812368980714D510
:1037D000590704D53C498A6842F4E0528A601A07C6
:1037E00004D539498A6842F460428A603649A06843
:1037F0008A6822F0F00202438A60DF0721D56268FE
:10380000012A57D0931E012B2F4B1B684DD99907C6
:10381000D8D52D4EB36823F003031343B360FEF7EE
:103820001DFF41F28838074604E0FEF717FFC01B72
:10383000404544D8B368626803F00C03B3EB820FD1
:10384000F3D1204A136803F00703AB4206D9EBB269
:103850001370136803F00703AB42B3D123685A0710
:1038600006D51949E0688A6822F4E05202438A606A
:103870001B0707D5144A2169936823F4604343EA80
:10388000C1039360FFF756FF0F4A104C926810492E
:10389000C2F303120346A25C0E48D34000680B60DB
:1038A000FEF792FE0020BDE8F0819801B1D489E7CF
:1038B00001207047044B1B689E03AAD482E70320B3
:1038C00081E700BF003C0240003802404C7F000806
:1038D0002801002030010020044B05499B68054A5F
:1038E0000868C3F38223D35CD84070470038024095
:1038F00028010020447F0008044B05499B68054AC5
:103900000868C3F34233D35CD840704700380240A4
:1039100028010020447F0008F0B5036813F0050F6C
:1039200083B004460BD19D0744D41B0702D400206A
:1039300003B0F0BD494B227DC3F8E021F7E7484BC7
:10394000484E00229A66FEF789FE054604E0FEF71F
:1039500085FE431B022B2AD833681B01F7D4D4E918
:10396000021362681B0743EA811313433C4AC6F8FB
:10397000843001219166FEF771FE3A4E054604E05F
:10398000FEF76CFE431B022B11D833681F01F7D5DD
:103990002368C8E7FEF762FE41F2883706462B6FC0
:1039A0009A073CD4FEF75AFE801BB842F7D9032091
:1039B00003B0F0BD2B4B2C4D002201921A6C42F04B
:1039C00080521A641B6C03F080530193019B2B6897
:1039D00043F480732B60FEF741FE064604E0FEF7D9
:1039E0003DFE831B022BE2D82B68D805F7D51D4D71
:1039F00023692A6F12F4407203F4407112D08A4294
:103A000010D02B6F164A0121C2F8401E23F44073D8
:103A10000021C2F8401E2B672B6FD907BAD4236947
:103A200003F44071B1F5407F0CD00E498A6822F44E
:103A3000F8128A600B4A116FC3F30B030B43136731
:103A4000236872E70748826823F0704121F44071CF
:103A500022F4F8120A438260ECE700BF00104742EC
:103A600000004742003802400070004000286AD041
:103A700038B5437F044603F0FF02002B4CD0236887
:103A800053220220CA21607759625A62DA685506C9
:103A900029D599686268256921F4E00121F0400187
:103AA0009960616998682A430A430243E1689A6011
:103AB00019611A69A16842EA01421A61DA6822F0C2
:103AC0008002DA609A6891062AD51A6CA06922F4FD
:103AD00080221A641A6C012102431A640020617763
:103AE000FF225A6238BDDA6842F08002DA60FEF7DF
:103AF000B5FD05462368DA685006CAD4FEF7AEFD68
:103B0000401BB0F57A7FF5D9236804226277DA6822
:103B1000FF2201205A6238BD0277FEF767FAAEE74E
:103B2000DA6822F0A002DA60FEF798FD054605E0AB
:103B3000FEF794FD401BB0F57A7F06D82368DA685B
:103B40009206F5D5C1E70120704704222368627709
:103B50000120C5E72DE9F04182B016461D460C460E
:103B60000746FEF77BFD35442D1AFEF777FD284BFF
:103B70001B68C3F3CB3305FB03F30136019308D174
:103B80003A68936834EA0303FBD0002002B0BDE832
:103B9000F08180463B689B6834EA0303F5D1FEF769
:103BA0005DFDA0EB0803AB4208D2019A019B002AFD
:103BB00003F1FF3308BF00250193EBE7D7E900319C
:103BC0005A68B1F5827F22F0E0025A6013D0BA6AD7
:103BD000B2F5005F07D11A6822F400521A601A6821
:103BE00042F400521A600122002387F8512087F81E
:103BF00050300320CAE7BA68B2F5004F02D0B2F5E0
:103C0000806FE4D11A6822F040021A60DFE700BF3B
:103C10002801002000285CD070B50446406A0028C6
:103C200047D00023C4E9043394F851300022A26243
:103C300003F0FF01002B42D094462168A568A269D9
:103C4000266A022384F851300B6823F040030B608E
:103C5000636805F4044503F482732B43E56805F4B7
:103C600000652B43256905F002052B43656905F0C6
:103C700001052B43E56906F0800E02F4007605F09D
:103C8000380533432B43120C00F0100043EA0E03B7
:103C900002F0040243EA0C0302430B604A60CB6962
:103CA000002023F400630122CB61606584F8512079
:103CB00070BD6368B3F5827FB6D0E061B4E720469B
:103CC00084F85010FEF7DCF9D4E9090303F4005C32
:103CD000B3E70120704700BF2DE9F041044690F89A
:103CE0005000012882B000F085801D46012384F831
:103CF000503088461746FEF7B1FC94F85130012B3E
:103D00000646D8B209D002200122002384F85120AF
:103D100084F8503002B0BDE8F081B8F1000FF3D064
:103D2000002FF1D0A2682068C4F83080002303215E
:103D3000B2F5004F84F85110C4E910336365A786CB
:103D4000E786A363A387E387844600F08380036844
:103D5000590603D4036843F040030360E3686268D4
:103D6000B3F5006F4AD0002A00F09680012F00F0D2
:103D70009380E38E9BB2ABB1681C40F082802368D5
:103D80009A68910740F19380226B12781A73E18E42
:103D9000236B013989B2E186E18E013389B2236355
:103DA0000029ECD162685C4B5C491B68A1FB0313E2
:103DB0005B0D4FF47A7101FB03F3B2F5827F01933F
:103DC00007D19AE0019B2268013B019393681B068F
:103DD00002D5019B002BF5D1A36833B9226800936B
:103DE000D368009393680093009B606D003818BF00
:103DF000012089E7022002B0BDE8F081002A79D1D4
:103E0000414631F8023BC360E38E2163013B9BB224
:103E1000E386E38E9BB2002BC5D06B1C60D1836818
:103E20009F070FD5226B32F8023BC360E38E2263FB
:103E3000013B9BB2E386E38E9BB2002BB2D083683A
:103E40009F07EFD4FEF70AFCE38E9BB2002BA9D0AC
:103E50002068E4E7036823F040030360036843F449
:103E60008043036073E7226B12781A73E38E226B30
:103E7000013B01329BB22263E386E38E9BB2002BAF
:103E800090D023689A689207EDD4FEF7E7FB801B79
:103E9000A842F2D3032037E798F800300373E38E8B
:103EA000226B013B01329BB22263E38661E7FEF79E
:103EB000D5FBE38E9BB2002B7FF461AF72E7226BE0
:103EC00032F8023BCCF80C30E38E2263013B9BB20C
:103ED000E386E38E9BB2002B3FF464AFD4F800C0BE
:103EE000DCF808309A07EAD4FEF7B8FB831BAB4234
:103EF000EFD3CFE7012F8CD182E733462A468021CA
:103F00002046FFF727FE00283FF466AF636D2022AE
:103F10001343636562655FE728010020819F5E1699
:103F2000704700BF704700BF704700BF704700BFB9
:103F3000704700BF704700BF704700BF704700BFA9
:103F4000704700BF704700BF002800F0928038B56E
:103F500090F83D30044603F0FF020BBB836C5048E1
:103F600084F83C204F4A5049C4F88010C4E921022B
:103F70004E494F4A4F48C4E923124F4A4F49C4E9BA
:103F800025024F4A4F48C4E927124F4A4F49C4E916
:103F900029024F4AC4E92B12002B6CD020469847C7
:103FA00022684C49022384F83D308A4213684CD081
:103FB000B2F1804F20D0A1F57C418A421CD001F59E
:103FC00080618A4218D001F580618A4256D0424908
:103FD0008A4215D001F580618A4211D001F58061D5
:103FE0008A420DD0A5696168E06823F080032B4305
:103FF0001360D062916210E0A16823F070030B435C
:104000002069A16923F44073034323F08003E0682F
:104010000B4361681360D06291620123536184F89D
:10402000463084F83E3084F83F3084F8403084F8DD
:10403000413084F8423084F8433084F8443084F8C6
:10404000453084F83D30002038BDA068216923F058
:104050007003034323F440730B43A16923F08003EF
:104060000B431360E368D36263689362636913630D
:10407000D3E701207047194BA3648FE7A06821693B
:1040800023F07003034323F440730B43A16923F02F
:1040900080030B431360E368D36263689362BCE7F9
:1040A000253F00083D3F0008213F0008413F000830
:1040B0002D3F0008313F0008293F0008353F000828
:1040C000393F0008453F0008194800081D4800080E
:1040D0002148000800000140004001400924000878
:1040E00090F83D30012B24D10368134A02219342FA
:1040F00080F83D1012D0B3F1804F0FD0A2F57C4272
:1041000093420BD002F58062934207D002F58062A1
:10411000934203D002F59A32934204D19A6802F096
:104120000702062A03D01A6842F001021A60002032
:1041300070470120704700BF000001400368196A02
:1041400041F21112114208D1196A40F2444211425F
:1041500003D11A6822F001021A60012380F83D3071
:104160000020704790F83D30012B27D10368144997
:10417000022280F83D20DA688B4242F00102DA60C8
:1041800011D0B3F1804F0ED00E4A93420BD002F5FE
:104190008062934207D002F58062934203D002F519
:1041A0009A32934204D19A6802F00702062A03D099
:1041B0001A6842F001021A6000207047012070471F
:1041C00000000140000400400368DA6822F00102A8
:1041D000DA601A6A41F211110A4208D1196A40F2F2
:1041E0004442114203D11A6822F001021A600123ED
:1041F00080F83D3000207047002800F0BB80F8B503
:1042000090F83D300D46044603F0FF0213BB6549AC
:1042100080F83C20644A036FC0E920126349644A75
:10422000C0E922126349644AC0E924126349644A1E
:10423000C0E926126349644AC0E92812634A644906
:10424000C0E92A12634AC0F8B020002B00F0948025
:104250002046984723686049022284F83D209A68E6
:1042600022F4804222F007029A608B421A686DD0D5
:10427000B3F1804F20D0A1F57C418B421CD001F5D9
:1042800080618B4218D001F580618B4277D0534911
:104290008B4215D001F580618B4211D001F5806110
:1042A0008B420DD0A069616822F080020243E06871
:1042B0001A60D862996210E0A16822F070020A4385
:1042C000216922F440720A43A16922F080020A4364
:1042D000E1681A606268D9629A6201265E61986834
:1042E0009969AF69AA6821F4407121F0030142EA9B
:1042F00007220A4322F47C4E2A69E9696F69120198
:1043000042EA0122E9680A43196A21F0AA0C296AE3
:1043100042EA013269682D682EF0FC0E41EA07116D
:10432000284342EA0E0241EA0C0198609A61196240
:1043300084F8466084F83E6084F83F6084F8426008
:1043400084F8436084F83D600020F8BDA16822F045
:1043500070020A43216922F440720A43A16922F0E3
:1043600080020A431A60E268DA6262689A626269ED
:104370001A63B2E701207047194B036768E7A16829
:1043800022F070020A43216922F440720A43A169B3
:1043900022F080020A431A60E268DA6262689A6276
:1043A0009BE700BF213F0008253F00083D3F000874
:1043B000413F00082D3F0008313F0008293F000819
:1043C000353F0008393F0008453F00081D480008F8
:1043D0001948000821480008000001400040014041
:1043E000A124000803681A69910710B5044603D593
:1043F000DA68920700F18D801A69500702D5DA68F1
:10440000510771D41A69120702D5DA68100757D418
:104410001A69D20602D5DA68D0063CD41A69D107E7
:1044200002D5DA68D2072DD41A69100602D5DA68E7
:1044300011061ED41A69520602D5DA6850060FD446
:104440001A6991060BD5DA68920608D56FF020013B
:10445000D4F8A82019612046BDE81040104710BDCF
:104460006FF04001D4F888201961204690472368F6
:10447000E6E76FF08001D4F8B0201961204690473C
:104480002368D7E76FF00101D4F880201961204636
:1044900090472368C8E76FF010010822196122775E
:1044A000DB6913F4407F55D1D4F898302046984703
:1044B000D4F89C3020469847002223682277ADE745
:1044C0006FF00801042219612277DB6999073CD15A
:1044D000D4F8983020469847D4F89C302046984726
:1044E00000222368227793E76FF00401022219610A
:1044F00022779B6913F4407F22D1D4F8983020466C
:104500009847D4F89C3020469847002223682277A9
:1045100078E76FF002010122196102779B699B071E
:104520000AD1D0F898309847D4F89C302046984764
:104530000022236822775FE7D0F890309847F7E7AA
:10454000D4F8903020469847DFE7D4F890302046E2
:104550009847C5E7D4F8903020469847ACE700BFAD
:1045600090F83C20012A6ED00346026830B4012046
:10457000022483F83C0083F83D40946824F47F448F
:1045800024F0770494600C68602C76D011D8402C0D
:104590005BD02ED8202C04D000F2888034F010019B
:1045A0001FD1916821F07001214341F00701916012
:1045B00016E0B4F5805F13D0B4F5005F33D0702CF3
:1045C0000FD1D1E9015094682843CD6824F47F418C
:1045D00040EA052008439060916841F077019160BE
:1045E00000200121002283F83D1083F83C2030BCDC
:1045F0007047502CF5D14868CC68116A21F00A0147
:104600000843116A21F001011162916921F0F00162
:1046100041EA041191611062916821F0700141F04A
:1046200057019160DCE7D1E9015094682843CD68D7
:1046300024F47F4140EA052008439060916841F4EA
:1046400080419160CCE7022070474868CC68116ACD
:1046500021F00A010843116A21F0010111629169F8
:1046600021F0F00141EA041191611062916821F09A
:10467000700141F047019160B2E74C68CD68116A62
:1046800021F0100111629069116A20F4704021F04C
:10469000A00141EA041140EA05309061116291687D
:1046A00021F0700141F06701916099E7302C3FF4EF
:1046B00078AF96E703467AB390F83C0001282DD0F6
:1046C00093F83DC0BCF1010F5FFA8CF00DD093F868
:1046D0003D00E0B90D291AD8DFE801F02527292B84
:1046E0002D2F31333537393B3D221A2910D8DFE8D9
:1046F00001F01A1C1E20222426282A2C2E303217C4
:10470000373A4346494C4F5255583D4034000120FA
:10471000002283F83C207047012070470220704738
:10472000DA670020F4E79A64FBE7DA64F9E71A65D0
:10473000F7E75A65F5E79A65F3E7DA65F1E71A6690
:10474000EFE75A66EDE79A66EBE7DA66E9E71A679C
:10475000E7E75A67E5E79A67E3E7C3F8B020E0E7E1
:10476000C3F88020DDE7C3F88420DAE7C3F8A82087
:10477000D7E7C3F8AC20D4E7C3F88820D1E7C3F863
:104780008C20CEE7C3F89020CBE7C3F89420C8E78D
:10479000C3F89820C5E7C3F89C20C2E7C3F8A0205F
:1047A000BFE7C3F8A420BCE790F83C20012A2FD033
:1047B00003460268022030B483F83D0050680D685B
:1047C000946820F07000284350601248824212D052
:1047D000B2F1804F0FD0A0F57C4082420BD000F5A3
:1047E0008060824207D000F58060824203D000F5ED
:1047F0009A30824204D1496824F080040C439460CA
:104800000020012283F83D2083F83C0030BC704733
:104810000220704700000140704700BF704700BF92
:10482000704700BF002800F0868038B590F83D3012
:10483000044603F0FF02002B78D02368E0682422AE
:1048400084F83D20DA6822F40052DA601969A2681F
:1048500021F4405101432069196102436069D9681C
:104860000243E06921F4164121F00C0102430A439E
:10487000DA605A69A069314922F4407202438B42DE
:104880005A6135D02E4A934232D0FFF725F8E269BB
:104890001921B2F5004FD4E90053A0FB01012AD041
:1048A0009A009B0FFCF7D8F9264AA2FB00135B097C
:1048B000642101FB130000013230A2FB00201B0128
:1048C00003EB5013AB602B6923F490432B616B69AE
:1048D00023F02A036B61EB680021202243F400538C
:1048E000EB60216484F83D2084F83E20084638BD02
:1048F000FFF702F8CBE7DA184FF000035B41FCF753
:10490000ABF9104AA2FB00314909642303FB1103F0
:10491000DB003233A2FB0323C3F342121B0902EB79
:10492000011203F4F8731344AB60CCE780F83C2029
:10493000FDF70EFE81E70120704700BF0010014027
:10494000001401401F85EB512DE9F843044690F80F
:104950003D00202847D10D4600293CD01646002AAC
:1049600039D01F4694F83C30012B3CD0012384F809
:104970003C304FF000092123C4F8409084F83D30CA
:10498000FDF76CFEA368A684B3F5805F8046E684DD
:104990006AD0E38C00229BB284F83C202268002B72
:1049A00068D07B1C38D113681F06FCD5B5B115F84B
:1049B000013B5360E38C013B9BB2E384E38C9BB2ED
:1049C000002BF0D113685906FCD5202384F83D3024
:1049D0000020BDE8F8830120BDE8F88339F8023BE8
:1049E000C3F30803E5E70220BDE8F883FDF736FED0
:1049F000A0EB08039F42226813D313681906F5D56C
:104A0000002D62D015F8013B5360E38C013B9BB253
:104A1000E384E38C9BB27BB313681E06F0D4002FB3
:104A2000E4D102F10C0353E8003F23F4D07302F108
:104A30000C0040E800310029F3D102F1140353E8DF
:104A4000003F23F0010302F1140040E80031002987
:104A5000F3D1202384F83D3084F83E30002384F8DD
:104A60003C300320BDE8F8832369002B91D1A9468F
:104A70001D468EE7781CA5D013685B06A5D45FB1F0
:104A8000FDF7ECFDA0EB08039F4204D323681B68ED
:104A90005D06F5D599E7226802F10C0353E8003F63
:104AA00023F4D07302F10C0040E800310029F3D167
:104AB00002F1140353E8003F23F0010302F1140054
:104AC00040E800310029F3D1C3E739F8023BC3F3D2
:104AD000080399E7DFF834D00D480E490E4A002349
:104AE00002E0D458C4500433C4188C42F9D30B4AA2
:104AF0000B4C002301E013600432A242FBD3FDF70C
:104B000091FB00F0BDFEFDF737FA70470000022070
:104B100000000020FC020020248300080003002085
:104B200024CA0120FEE700002DE9F04F83B0914632
:104B300007784FEA930C85681435466808364FEAC3
:104B40000C1A9046CDF804C002EB0A0B03F00302E6
:104B500055ED053A15ED043A55ED032A15ED022AF7
:104B600055ED011A344656ED025A56ED017ABCF164
:104B7000000F65D001F1100009F11003DDF804E029
:104B800050ED044A10ED034A10ED025A50ED016A4F
:104B900023EEA41A31EE251A63EE845A23EE247A0A
:104BA00022EE016A37EE067A77EE277A35EEA77A9B
:104BB00063EE857A63EE040A22EE076A70EE860AD7
:104BC00062EEA44A21EE816A74EE864A70EEA44A2F
:104BD00077EEA40A63EEA67A63EE054A22EE206A17
:104BE00074EE864A22EE844A21EE876A34EE064A43
:104BF00034EE844A77EE844A63EE265A62EE247AD3
:104C000075EEA77A22EE855A21EEA06A35EE065A95
:104C100077EE855A62EEA67A21EEA46A77EE867A5E
:104C200003ED041A03ED037A43ED020A43ED014A52
:104C300010301033BEF1010EA2D15144584600E0AD
:104C400040461346BAB1B1EC017A23EE876A36EEDC
:104C5000256A63EE075A62EE066A75EEA65A75EE8D
:104C6000A75A62EE877A61EE866A77EEA67AA0ECA2
:104C7000016A013BE7D144ED025A44ED017A143553
:104C800008364146013F7FF463AF03B0BDE8F08FC3
:104C900038B50446826001701D46CA0018460021DE
:104CA00000F096FD656038BD2DE9FF4757EC106BAD
:104CB000002F0C4619463B46BBBF07F100431F4679
:104CC00000232D230B700D9BDDF830A0914623F0BF
:104CD0002008BCBF32461646B8F1460F05D0B8F1E1
:104CE000450F00D10134022100E0032103AB019301
:104CF00002AB009347EC106B5346224600F080FE57
:104D0000B8F1470F054619D119F0010F0ED000EB8D
:104D100004090022002330463946FBF7BDFE08B1E6
:104D2000CDF80C903022039B4B451ED3039B0E9A6B
:104D30005B1B2846136004B0BDE8F087B8F1460F4E
:104D400000EB0409E5D10378302B0AD100220023BF
:104D500030463946FBF7A0FE18B9C4F10104CAF881
:104D60000040DAF800309944D3E7591C03911A70D7
:104D7000D9E7F7B50029BABF49422D232B230929CA
:104D80000270437029DD0DF107031D460A271A46FC
:104D9000B1FBF7F607FB1614303402F8014C0C4651
:104DA000632C03F1FF333146F1DC3031941E03F8FC
:104DB000011C411C2346AB420AD30DF109039B1A87
:104DC000AC4288BF002302330344181A03B0F0BD7D
:104DD00013F8016B01F8016FEDE730233031837078
:104DE000C170031DF1E700002DE9F04F8DB00C46B6
:104DF000DDF8588016461F46054600F0F1FC0368B2
:104E000004931846FBF71CFA00230A93D8F80030E5
:104E10000590073323F0070303F1080294F818A064
:104E2000D4F800B0C8F80020D3E9008929F0004385
:104E30000793CDF81880C4E91289DDE906019C4B7F
:104E40004FF0FF32FBF75AFE70BBDDE90601984BCD
:104E50004FF0FF32FBF734FE30BB00220023404608
:104E60004946FBF723FE10B12D2384F84330914AC5
:104E7000914BBAF1470F8CBF9046984603232361AC
:104E80002BF0040323604FF00009009733460BAA70
:104E90002146284600F0D2F9013040F08D804FF0D5
:104EA000FF300DB0BDE8F08F42464B4640464946C4
:104EB000FBF724FE40B14B46002BBCBF2D2384F8EA
:104EC00043307E4A7E4BD4E763680AF0DF020692E5
:104ED0005A1C3BD1062363604BF48062002322609E
:104EE00003930AABCDE901A309AB0093616849ECD8
:104EF000108B0DF123032846FFF7D6FE069B099978
:104F0000472B804629D1C81C02DB6368994241DDEA
:104F1000AAF1020A5FFA8AFA0139524604F15000F6
:104F20000991FFF726FF0A9A1318012A8146236187
:104F300002DC2268D20701D5013323619DF82330BA
:104F4000002BA2D02D2384F843309EE7069A472AEF
:104F5000C2D1002BC0D10123BDE7BAF1650FDBD967
:104F6000BAF1660F18D1002963680BDD216113B90E
:104F70002268D00702D501330B442361A1654FF0AD
:104F80000009DBE713B92268D20701D50233F4E741
:104F90000123F2E74FF0670A0A9B994205DB236879
:104FA0002161D807EAD54B1CE7E70029D4BFC1F13E
:104FB000020201221344E0E723685A0507D423695B
:104FC000424631462846B84701302BD167E7BAF14F
:104FD000650F40F2DD80D4E9120100220023FBF7C7
:104FE0005BFD002833D0374A012331462846B847B5
:104FF00001303FF454AFDDE90938434502DB236853
:10500000D8070FD5DDE9042331462846B8470130DB
:105010003FF445AF4FF0000908F1FF3804F11A0AD8
:10502000C84509DC23689B0700F10381E0680B9BFE
:105030009842B8BF184634E7012352463146284605
:10504000B84701303FF42BAF09F10109E8E7099BAC
:10505000002B39DC1B4A012331462846B847013072
:105060003FF41DAFDDE9093959EA030302D1236892
:10507000D907D7D5DDE9042331462846B8470130A2
:105080003FF40DAF4FF0000A04F11A0B099B5B428D
:10509000534501DC4B4693E701235A4631462846E7
:1050A000B84701303FF4FBAE0AF1010AEEE700BF5A
:1050B000FFFFEF7F687F0008647F0008707F0008B3
:1050C0006C7F0008747F0008A36DDDF828A05345AD
:1050D000A8BF5346002B994636DC4FF0000B29EA57
:1050E000E97904F11A02A36D0693A3EB09035B456A
:1050F00031DC099B9A453ADC2368DA0737D4099BEF
:10510000AAEB0309069BAAEB03039945A8BF99469E
:10511000B9F1000F33DC4FF0000829EAE97904F116
:105120001A0B099BAAEB0303A3EB090343457FF783
:1051300079AF01235A4631462846B84701303FF43B
:10514000AEAE08F10108ECE7424631462846B847C2
:105150000130C2D1A3E60123314628460692B84762
:1051600001303FF49CAE069A0BF1010BBBE7DDE981
:10517000042331462846B8470130C0D18FE6069A4D
:105180004B46424431462846B8470130C3D186E6F3
:10519000DDF828A0BAF1010F01DCDB0736D50123C9
:1051A000424631462846B84701303FF478AEDDE943
:1051B000042331462846B84701303FF470AED4E9A5
:1051C0001201002200230AF1FF3AFBF765FCC0B987
:1051D000534608F1010231462846B84701300CD148
:1051E0005DE601235A4631462846B84701303FF470
:1051F00056AE08F10108D045F3DB4B4604F15002EE
:10520000DFE64FF0000804F11A0BF4E701234246F1
:10521000E1E701234A4631462846B84701303FF4CA
:105220003EAE08F10108E3680B995B1A4345F0DCD8
:10523000FCE64FF0000804F11909F4E72DE9F04706
:10524000164698468A680B69DDF820909342B8BFED
:105250001346336091F8432007460C460AB10133E8
:1052600033602368990642BF336802333360256890
:1052700015F0060506D104F1190AE36832689B1A95
:10528000AB4226DC94F843302268003B18BF012370
:1052900092062BD404F1430241463846C8470130F8
:1052A0001ED02368226903F00603042B02BFE568C1
:1052B0003368ED1AA3680CBF25EAE5750025934213
:1052C000C4BF9B1AED1800261A34B5421AD100202B
:1052D00008E00123524641463846C847013003D111
:1052E0004FF0FF30BDE8F0870135C6E7E1185A1CE2
:1052F000302081F84300224494F8451082F843108E
:105300000233C7E70123224641463846C8470130E9
:10531000E6D00136D9E700002DE9FF470F7E0C9E4D
:10532000782F914680460C469A4601F1430207D8F1
:10533000622F0AD8002F00F0D180582F00F0B880DB
:1053400004F1420684F842703AE0A7F16303152B9A
:10535000F6D801A151F823F0B1530008C553000855
:1053600041530008415300084153000841530008CD
:10537000C553000841530008415300084153000839
:1053800041530008C3540008EF5300087D5400083F
:105390004153000841530008E554000841530008F8
:1053A000EF5300084153000841530008855400089A
:1053B00033681A1D1B68326004F1420684F84230DB
:1053C00001239CE033682068191D3160060601D571
:1053D0001D6803E04506FBD5B3F90050002D03DA44
:1053E0002D236D4284F8433058480A2311E0216888
:1053F0003368080653F8045B02D4490648BFADB2CF
:105400006F2F5248336014BF0A230823002184F809
:1054100043106668A660002E05DB21682E4321F04C
:10542000040121604BD01646B5FBF3F103FB115785
:10543000C75D06F8017D2F46BB420D46F4D9082B07
:105440000BD12368DF0708D5236961689942DEBF65
:10545000302306F8013C06F1FF36921B2261CDF89D
:1054600000A04B4603AA21464046FFF7E7FE013065
:105470004AD14FF0FF3004B0BDE8F087236843F015
:10548000200323603248782784F845702368316808
:105490001F0651F8045B02D45F0648BFADB231600D
:1054A000D90744BF43F0200323601DB11023ADE7AB
:1054B0002648E9E7236823F020032360F6E7164631
:1054C000BDE7336825686169181D30602E061B68CA
:1054D00001D5196002E06806FBD51980002323611D
:1054E0001646BCE733681A1D32601E6862680021E8
:1054F0003046FAF755FE08B1801B6060636823618F
:10550000002384F84330AAE72369324649464046DF
:10551000D0470130ADD023689B0713D4E068039BCC
:105520009842B8BF1846A6E701233246494640468E
:10553000D04701309DD00135E36803995B1AAB4237
:10554000F2DCEBE7002504F11906F5E7767F0008A9
:10555000877F0008002310B50446C0E90033C0E986
:105560000433836081814366C281836119460822C6
:105570005C3000F02DF90D4B63620D4BA3620D4BB7
:10558000E3620D4B23630D4B24629C4206D003F172
:105590006802944202D0D0339C4205D104F15800F5
:1055A000BDE8104000F090B910BD00BFD95600080A
:1055B000FB5600083357000857570008D8C8012089
:1055C000024A0349034800F069B800BF34010020D3
:1055D000217200084401002041680C4B994210B52B
:1055E000044601D001F01CFEA168094B994202D08B
:1055F000204601F015FEE168064B994204D0204692
:10560000BDE8104001F00CBE10BD00BFD8C801209D
:1056100040C90120A8C9012010B50B4B0B4C0C4A06
:105620001A60204600220421FFF794FF04F168006D
:1056300001220921FFF78EFF04F1D0000222BDE80C
:1056400010401221FFF786BF10CA0120D8C80120E0
:10565000C1550008014800F038B900BF19CA01203F
:10566000014800F033B900BF19CA012010B5044643
:10567000FFF7F0FF236A1BB1BDE81040FFF7F0BF52
:10568000044B2362044B1B68002BF5D1FFF7C4FFCA
:10569000F2E700BFD955000810CA01202DE9F843F0
:1056A0000746884614460026D4E90195B9F1010958
:1056B00005D52468002CF7D13046BDE8F883AB89C6
:1056C000012B07D9B5F90E30013303D029463846EE
:1056D000C04706436835E9E710B50C46B1F90E102E
:1056E00000F0A4F80028ABBF636DA3891B1823F456
:1056F0008053ACBF6365A38110BD2DE9F0411F4607
:105700008B89DB0505460C46164605D5B1F90E100A
:105710000223002200F078F8A389B4F90E1023F4D4
:105720008053A38132463B462846BDE8F04100F055
:105730008FB810B50C46B1F90E1000F065F8431C97
:10574000A38915BF606523F4805343F48053A3817C
:1057500018BFA38110BDB1F90E1000F045B830B5E7
:105760001446002C9BB005461A4605DA8B230360CD
:105770004FF0FF301BB030BD4FF40273ADF80C306A
:1057800014BF04F1FF332346029305934FF6FF73D2
:1057900000910491ADF80E3069461E9B01F0C0FBEC
:1057A000431CBCBF8B232B60002CE3D0009B00224A
:1057B0001A70DFE707B5009313460A46014603480F
:1057C0000068FFF7CCFF03B05DF804FB4001002048
:1057D00002440346934200D1704703F8011BF9E7E6
:1057E000004870478002002038B5064D002304466B
:1057F00008462B60FCF7E6FC431C02D12B6803B182
:10580000236038BD14CA012038B5074D0446084648
:10581000114600222A601A46FCF7E0FC431C02D124
:105820002B6803B1236038BD14CA012038B5074D79
:1058300004460846114600222A601A46FCF7A6FCD8
:10584000431C02D12B6803B1236038BD14CA012068
:1058500038B5074D04460846114600222A601A460C
:10586000FCF7A2FC431C02D12B6803B1236038BDB6
:1058700014CA0120014B1868704700BF4001002086
:1058800070B50D4D0D4C641BA4100026A64209D125
:105890000B4D0C4C02F0B2F9641BA4100026A6427A
:1058A00005D170BD55F8043B98470136EEE755F831
:1058B000043B98470136F2E71C8300081C8300086C
:1058C0001C830008208300087047704770470A4413
:1058D000914200F1FF3300D1704710B511F8014B30
:1058E00003F8014F9142F9D110BD2DE9F74F03693B
:1058F0000C69A34207467EDB013C01F11408A300BA
:1059000000F11405009305EB8403019358F824304B
:1059100055F8242001339A4208EB8409B2FBF3F6D0
:105920002ED34FF0000AC446AE46D3465CF8043B83
:1059300098B206FB00A0020C1B0C06FB0323DEF84A
:10594000002080B292B2121A5A44DEF800004FEAE8
:10595000134A9BB2C3EB224303EB104392B242EAD9
:105960000342E1454EF8042B4FEA234BDED2009B65
:10597000EB582BB9019B043B9D421A462FD33C6147
:10598000384601F069F9002825DB2946002058F83F
:10599000042BD1F800C01FFA82FE1FFA8CF3A3EB90
:1059A0000E030344120CC2EB234202EB1C429BB2D7
:1059B00043EA0243C14541F8043B4FEA2240E6D2A4
:1059C00055F8242005EB840322B9043B9D421A4676
:1059D0000BD33C610136304603B0BDE8F08F12684E
:1059E000043B002ACBD1013CC6E71268043B002AE5
:1059F000EFD1013CEAE70020EEE7000000000000E4
:105A00002DE9F04FC76999B08DED040B55EC104BA3
:105A1000229E099183460E9213937FB9102000F0C5
:105A2000F3FD0246CBF81C0020B9A54BEF21A54899
:105A300001F048FCC0E901770760C760DBF81C3063
:105A4000196859B15A684A60012393408B605846DF
:105A500000F0D0FEDBF81C3000221A602B1EB9BF0C
:105A600023F00043059300233360059F964BBCBF92
:105A700001223260BB4312D1139A42F20F731360BA
:105A8000C7F31303234300F04385239BDFF84CA2A5
:105A9000002B00F045850AF1030300F03FBD9DEDAA
:105AA000047B002251EC170B00238DED0C7BFAF7E1
:105AB000F3FF804658B1139A01231360239B13B15F
:105AC000239A824B1360DFF818A200F029BD9DEDE8
:105AD0000C0B16AA17A9584601F06EF9C7F30A561F
