:020000040800F2
:1000000000000220F923000815090008170900085C
:10001000190900081B0900081D090008000000005C
:100020000000000000000000000000001F090008A0
:100030002109000800000000230900082509000824
:1000400049240008492400084924000849240008DC
:1000500049240008492400084924000849240008CC
:1000600049240008492400084924000849240008BC
:1000700049240008492400084924000849240008AC
:100080004924000849240008492400080000000011
:1000900000000000000000000000000049240008EB
:1000A000492400084924000849240008492400087C
:1000B000492400084924000849240008492400086C
:1000C000492400084924000849240008492400085C
:1000D00049240008492400084924000800000000C1
:1000E00049240008492400084924000800000000B1
:1000F000000000000000000000000000492400088B
:100100000000000049240008492400084924000890
:1001100000000000000000000000000000000000DF
:100120002D09000849240008492400084924000832
:10013000492400080000000000000000000000004A
:10014000000000000000000000000000492400083A
:1001500049240008492400084924000849240008CB
:1001600049240008492400080000000000000000A5
:10017000000000000000000000000000000000007F
:1001800000000000492400080000000000000000FA
:0801900049240008492400087D
:1001A00001F0FF01102A2BDB10F0070F08D010F828
:1001B000013B013A8B422DD010F0070F42B3F6D12C
:1001C000F0B441EA012141EA014122F007047FF045
:1001D00000070023F0E80256083C85EA010586EA9C
:1001E000010685FA47F5A3FA87F586FA47F6A5FAD8
:1001F00087F68EB9EED1F0BC01F0FF0102F00702E4
:1002000032B110F8013B013A83EA010313B1F8D18E
:100210000020704701387047002D06BF354603386F
:10022000073815F0010F07D1013015F4807F02BFA8
:10023000013015F4C03F0130F0BC0138704700BFF9
:1002400053B94AB9002908BF00281CBF4FF0FF313D
:100250004FF0FF3000F00CB8ADF1080C6DE904CEA2
:1002600002F0AAFDDDF804E0DDE9022304B07047E6
:10027000704700BF10B5054C237833B9044B13B158
:100280000448AFF300800123237010BD60000020FC
:10029000000000007430000808B5034B1BB103498F
:1002A0000348AFF3008008BD000000006400002098
:1002B0007430000800B585B00023009301930293C9
:1002C00003931C481C4A02604FF4803242608360F2
:1002D00001220261027680F82030C36217498162F0
:1002E000C3600223C36180F83020426100F00EFD3C
:1002F000B0B90823009301230193062302936946B2
:100300000C4800F02DFE70B90923009302230193DD
:100310006946084800F024FE40B905B05DF804FBCA
:1003200000F01AFAE5E700F017FAEDE700F014FA2A
:10033000F3E700BFDC000020002001400100000FB7
:1003400030B589B000230393049305930693079374
:10035000026803F1804303F590339A4201D009B05B
:1003600030BD04460025019503F58C335A6C42F4E8
:1003700080725A645A6C02F480720192019A02955A
:100380001A6B42F002021A631B6B03F00203029322
:10039000029B03230393049303A9104801F034F94B
:1003A0000F48104B036045608560C5604FF4806363
:1003B00003614FF4006343614FF4005383614FF4D2
:1003C0008073C3610562456200F094FF18B9044B65
:1003D000A3639C63C3E700F0BFF9F8E700040240A1
:1003E0007C0000201064024008B54FF4FA7000F061
:1003F000DFFB18E00133132B0EDC154AB2F90020A5
:100400009A4203DD134908781349C8549A42F1DC33
:10041000114A4421D154EDE70F49104800F0AEF8DD
:100420000A2000F0C5FB00F023F938B90123084A7F
:100430001421002000F0E8F80023DCE7C82000F0D9
:10044000B7FB00F0CFF8034B1A78014B1A8008BDB8
:100450000200002000000020280100209C3000083D
:1004600010B54FF4FA7000F0A3FB12E00E4C228896
:100470000E4B1A70002322467F21202000F0C4F882
:10048000B4F900100A460A4800F078F80A2000F093
:100490008FFB00F0EDF80028E8D000F0A3F8C820AA
:1004A00000F086FB10BD00BF02000020000000200D
:1004B000AC30000800B587B0164B0FCB0DF1180C0F
:1004C0000CE90F000023ADF8063014E000230DF115
:1004D00006020121184600F097F8BDF9061006AB98
:1004E00003EBC10353F8102C01310B4800F046F820
:1004F000322000F05DFB00F0BBF80028E6D0BDF92B
:10050000063006AA02EBC30353F80C3C984707B029
:100510005DF804FB8C300008C030000808B50448C2
:1005200001F0EAFC02220349034800F01BFC08BD6D
:100530009C01002024010020DC00002008B500F010
:1005400051F8FFF7B7FF08BD00B583B00021019156
:10055000094B1A6B42F480021A631B6B03F480038D
:100560000193019B0A46382000F016FE382000F067
:1005700023FE03B05DF804FB003802400FB470B5F1
:100580008CB010AC54F8046B28252A46002102A830
:1005900001F094FF019423463246294602A801F057
:1005A0007FFF002300E00133272B0DDC03F1300235
:1005B0006A4412F8282C1F2AF5D8202103F13002B2
:1005C0006A4402F8281CEEE74FF0FF33282202A904
:1005D000034801F0A4FE0CB0BDE8704004B07047C1
:1005E000E401002000B583B013238DF807304FF0ED
:1005F000FF3301220DF10701024801F090FE03B024
:100600005DF804FBE401002030B4174C2468646AF0
:10061000164DB5F800C0A4EB0C0C0CF10304062C2D
:1006200019D96446BCF1000F17DB158844F3870421
:1006300015FA84F424B214808C4201DD83B1118058
:10064000B2F90040844201DA63B11080064B1B68A6
:100650005A6A064B1A8030BC70470CF10304E4E779
:100660001080EDE71180F1E79C0100203C010020A3
:1006700008B54FF40051044801F0AAF8012801D050
:10068000012008BD0020FCE700080240F0B58BB057
:1006900000240594069407940894099401942A4B25
:1006A0001A6B42F004021A631A6B02F00402019200
:1006B000019A02941A6B42F080021A631A6B02F0DC
:1006C00080020292029A03941A6B42F001021A63AA
:1006D0001A6B02F001020392039A04941A6B42F01F
:1006E00002021A631B6B03F002030493049B174F6F
:1006F00022461C21384601F072F8154D22464FF46F
:100700000D71284601F06BF84FF4005305930694E1
:10071000079405A90F4800F077FF1C2305930126D5
:1007200006960794089405A9384600F06DFF4FF42B
:100730000D73059306960794089405A9284600F0C2
:1007400063FF0BB0F0BD00BF003802400000024064
:10075000000402400008024072B6FEE700B595B002
:100760003022002108A801F0A9FE0023039304937E
:1007700005930693079301931F4A116C41F0805132
:100780001164126C02F080520192019A02931B4B89
:100790001A6842F440421A601B6803F44043029313
:1007A000029B012308934FF48033099302230E9395
:1007B0004FF480020F920C22109260221192129339
:1007C0000423139308A801F011F888B90F230393A9
:1007D00002230493002305934FF48052069207935B
:1007E000032103A801F052FA20B915B05DF804FB0B
:1007F000FFF7B2FFFFF7B0FF003802400070004083
:1008000008B500F0A9F9FFF7A9FFFFF73FFFFFF7D1
:100810009BFEFFF74FFD00F009F800F0BDF800F077
:1008200023F9FFF77BFEFFF789FEFCE708B50D48CB
:100830000D4B03604FF48273436000238360C360F9
:10084000036143614FF400728261C36103624362DA
:1008500083620A23C36201F0EFFA00B908BDFFF713
:100860007BFFFBE7400100200030014000B589B06C
:100870000023039304930593069307930268154B93
:100880009A4202D009B05DF804FB0021019103F502
:1008900084335A6C42F480525A645A6C02F4805287
:1008A0000192019A02911A6B42F001021A631B6BCA
:1008B00003F001030293029BE023039302230493BA
:1008C000032306930523079303A9034800F09CFE26
:1008D000D8E700BF003001400000024082B0002194
:1008E00000910B4B5A6C42F480425A645A6C02F4E9
:1008F00080420092009A01911A6C42F080521A6470
:100900001B6C03F080530193019B02B0704700BF42
:1009100000380240FEE7FEE7FEE7FEE7FEE770472D
:100920007047704708B500F031F908BD08B50248B6
:1009300000F07CFD08BD00BF7C00002010B5034620
:100940000C4A0D490D48006840B10C48006803444A
:10095000521A934206D8094A136010BD0748084C42
:100960000460F2E701F0B2FD0C2303604FF0FF30AA
:10097000F3E700BF000002200004000098010020FF
:1009800078030020034AD2F8883043F47003C2F899
:100990008830704700ED00E000B58DB024220021C2
:1009A00003A801F08BFD00230193029313484FF03D
:1009B00080420260436083604FF6FF72C260036151
:1009C0008361032303930123059309930F230B935F
:1009D00003A901F015FB50B900230193029301A96B
:1009E000064801F065FB28B90DB05DF804FBFFF780
:1009F000B3FEF1E7FFF7B0FEF6E700BF9C01002071
:100A000000B589B0002303930493059306930793DD
:100A10000368B3F1804F02D009B05DF804FB0021F8
:100A2000019103F50E331A6C42F001021A641A6C3C
:100A300002F001020192019A02911A6B42F0010246
:100A40001A631B6B03F001030293029B03230393BE
:100A5000022304930123079303A9024800F0D4FD65
:100A6000DAE700BF0000024008B50A480A4B0360FD
:100A70004FF41653436000238360C36003610C226C
:100A800042618361C36101F01BFC00B908BDFFF73F
:100A900063FEFBE7E40100200010014000B589B0CF
:100AA000002303930493059306930793026803F1CD
:100AB000804303F588339A4202D009B05DF804FB05
:100AC0000021019103F594335A6C42F010025A64EC
:100AD0005A6C02F010020192019A02911A6B42F0D4
:100AE00002021A631B6B03F002030293029BC023F2
:100AF000039302230493032306930723079303A975
:100B0000014800F081FDD8E70004024010B504461A
:100B10000E4B1A784FF47A73B3FBF2F30C4A106859
:100B2000B0FBF3F000F056FB68B90F2C01D901209F
:100B30000AE0002221464FF0FF3000F02DFB054B6C
:100B40001C60002000E0012010BD00BF0800002054
:100B5000040000200C00002008B50B4B1A6842F47A
:100B600000721A601A6842F480621A601A6842F4CD
:100B700080721A60032000F0FDFA0F20FFF7C6FF15
:100B8000FFF7ACFE002008BD003C0240034A11689C
:100B9000034B1B780B441360704700BF28020020F2
:100BA00008000020014B1868704700BF2802002091
:100BB00038B50446FFF7F6FF0546B4F1FF3F02D013
:100BC000044B1B781C44FFF7EDFF401BA042FAD3F7
:100BD00038BD00BF080000204A4B5A6822F440325A
:100BE0005A605A6841680A435A600268536823F49D
:100BF0008073536002685368016943EA01235360BC
:100C00000268536823F04073536002685368816838
:100C10000B4353600268936823F400639360026897
:100C20009368C1680B439360826A374B9A4257D0EE
:100C30000268936823F07063936002689368816A26
:100C40000B4393600268936823F0405393600268FB
:100C50009368C16A0B4393600268936823F00203B0
:100C6000936002689368017E43EA4103936090F8C1
:100C70002030002B3FD00268536843F40063536078
:100C80000268536823F46043536001684B68426A0A
:100C9000013A43EA42334B600268D36A23F470039B
:100CA000D3620168CB6AC269013A43EA0253CB625C
:100CB0000268936823F4007393600268936890F865
:100CC000301043EA412393600268936823F4806301
:100CD000936002689368416943EA81239360704797
:100CE0000268936823F0706393600268936823F04E
:100CF00040539360B0E70268536823F40063536085
:100D0000CAE700BF002301400100000F38B310B54F
:100D10000446036C43B1236C13F0100F0BD0012079
:100D2000002384F83C3010BDFFF70AFB0023636406
:100D300084F83C30EFE7236C23F4885323F002035C
:100D400043F0020323642046FFF746FF002060645F
:100D5000236C23F0030343F001032364E0E7012045
:100D60007047000010B582B013460022019290F83F
:100D70003C20012A00F094800446012280F83C20A7
:100D80000268906810F0010F13D1906840F00100E4
:100D90009060464A1068464AA2FB0020800C00EB97
:100DA0004000019002E0019801380190019800286C
:100DB000F9D12268906810F4807F03D0906820F405
:100DC000807090602268906810F0010F5DD0206CF8
:100DD00020F4E06020F0010040F48070206452684C
:100DE00012F4806F05D0226C22F4405242F48052FB
:100DF0002264226C12F4805F34D0626C22F006020E
:100E00006264002284F83C20A26B2A48D063A26B63
:100E100029481064A26B2948D06422686FF0220030
:100E200010602068426842F08062426020688268F8
:100E300042F48072826020680A4600F14C01A06B87
:100E400000F0BEFA1E4B5B6813F01F0F0DD1236834
:100E50009A6812F0405F25D19A6842F080429A6009
:100E600000201BE000226264CBE72368154A93420E
:100E700001D0002012E09A6812F0405F14D19A6805
:100E800042F080429A60002008E0236C43F0100397
:100E90002364636C43F001036364002002B010BD5F
:100EA0000220FBE70020F9E70020F7E7040000201C
:100EB00083DE1B43EF0E0008CD0E0008D90E00089C
:100EC00000230140002001407047704708B5806B47
:100ED000FFF7FBFF08BD704708B5806B4023036434
:100EE000436C43F004034364FFF7F5FF08BD08B506
:100EF0000346806B026C12F0500F25D1036C43F453
:100F00000073036403689A6812F0405F19D1027E8F
:100F1000BAB9DA6A12F4700F03D09A6812F4806FCB
:100F20000FD15A6822F020025A60036C23F48073B8
:100F30000364036C13F4805F03D1036C43F001037B
:100F40000364FFF7C1FF08BD026C12F0100F04D15B
:100F5000826BD26C18469047F5E7FFF7BCFFF2E7CB
:100F600030B482B00022019290F83C20012A00F0B7
:100F7000C0800346012280F83C200A68092A40D933
:100F80000468E06892B202EB42021E3A4FF0070C8E
:100F90000CFA02F220EA0202E2601C68E0680A88A9
:100FA00002EB42021E3A8D6805FA02F20243E26049
:100FB0004A68062A3CD81C68606B02EB8202053A3C
:100FC0004FF01F0C0CFA02F220EA020262631C6866
:100FD000606B4A6802EB8202053AB1F800C00CFA75
:100FE00002F2024362631868434A904250D0186884
:100FF000414A904259D0002083F83C0002B030BCF6
:1010000070470468206992B202EB42024FF0070C6D
:101010000CFA02F220EA020222611C6820690A88A6
:1010200002EB42028D6805FA02F202432261BFE739
:101030000C2A16D81D68286B02EB8202233A1F2463
:1010400004FA02F220EA02022A631D68286B4A6849
:1010500002EB8202233A0C8804FA02F202432A636A
:10106000C1E71D68E86A02EB8202413A1F2404FAD4
:1010700002F220EA0202EA621D68E86A4A6802EBAC
:101080008202413A0C8804FA02F20243EA62AAE7B9
:101090000A68122AABD1194A506820F40000506047
:1010A000506840F480005060A1E70A68144882420A
:1010B00001D0112A9FD1114A506820F4800050605D
:1010C000506840F40000506009680D4A914292D186
:1010D0000C4A12680C49A1FB0212920C02EB82022C
:1010E00052000192019A002A85D0019A013A019298
:1010F000F8E7022082E700BF002001400023014002
:10110000120000100400002083DE1B43002808DBCF
:101110000901C9B200F1604000F5614080F8001398
:10112000704700F00F000901C9B2014B1954704714
:1011300014ED00E000B500F00700C0F1070CBCF1B1
:10114000040F28BF4FF0040C031D062B0FD9C31E3C
:101150004FF0FF3E0EFA0CF021EA000199400EFA22
:1011600003FE22EA0E0241EA02005DF804FB0023BE
:10117000EEE70000074AD36823F4E0631B041B0C6E
:10118000000200F4E060034343F0BF6343F4003324
:10119000D360704700ED00E010B50446054BD868F9
:1011A000C0F30220FFF7C6FF01462046FFF7AEFF5F
:1011B00010BD00BF00ED00E0002807DB00F01F02BB
:1011C000400901239340024A42F82030704700BF93
:1011D00000E100E00138B0F1807F0BD24FF0E02356
:1011E0005861054AF02182F82310002098610722F7
:1011F0001A6170470120704700ED00E030B40568C7
:101200002C6824F480242C60046863608368402B7D
:1012100005D0036899600368DA6030BC70470368E2
:101220009A600368D960F8E710B40368D9B210393E
:101230000A4AA2FB01421209094CA25CC2655F295D
:1012400007D96FF3090304338365806D5DF8044BA0
:1012500070476FF309038365F7E700BFABAAAAAA3B
:1012600000310008836A826992B9012B0AD0022BEF
:1012700002D00BB100207047C36A13F0807F28D1E1
:1012800000207047C36AB3F1C07F24D000207047AC
:10129000B2F5005F09D0022B25D9032B25D1C36AF3
:1012A00013F0807F23D100207047032B03D8DFE8A1
:1012B00003F01404140A00207047C36A13F0807FFF
:1012C0000DD100207047C36AB3F1C07F09D0002060
:1012D00070470120704701207047012070470120AE
:1012E000704701207047012070470020704701209F
:1012F0007047000070B50446FFF754FC002C5BD02B
:101300000546022384F83530002384F834302268FF
:10131000136823F00103136023681A6812F0010FA9
:101320000AD0FFF73FFC431B052BF5D9202363654B
:10133000032084F8350070BD1A68204911406268A6
:10134000A0680243E06802432069024360690243E7
:10135000A0690243E0690243206A02430A43616ACA
:1013600004291ED01A602668756925F00705636A8E
:101370001D43042B07D1A36A1D43E36A1BB120461A
:10138000FFF770FF90B975612046FFF74DFFE26DE2
:101390003F239340836000206065012384F835304B
:1013A000C9E7E16A206B01430A43DBE74023636539
:1013B000012084F83500BEE70120BCE73F8010F033
:1013C00038B50446856D90F8340001282BD00120F3
:1013D00084F8340094F83500C0B2012804D000230A
:1013E00084F83430022038BD022084F83500002013
:1013F00060652046FFF702FFE26D3F239340AB603C
:101400002268136843F016031360236C23B122682B
:10141000136843F0080313602268136843F0010364
:1014200013600020DFE70220DDE70000F0B583B0A5
:10143000044600230193724B1D68724BA3FB0535D4
:10144000AD0A876D3E68C26D08239340334210D0C9
:1014500003681A6812F0040F0BD01A6822F0040215
:101460001A60C26D08239340BB60436D43F00103D3
:101470004365E26D01239340334209D022685269EB
:1014800012F0800F04D0BB60636D43F0020363650C
:10149000E26D04239340334209D02268126812F0AF
:1014A000020F04D0BB60636D43F004036365E26D1B
:1014B00010239340334224D02268126812F0080FA0
:1014C0001FD0BB6023681A6812F4802F0DD01B68F0
:1014D00013F4002F04D1236C9BB12046984710E0F1
:1014E000A36C73B1204698470BE01A6812F4807F12
:1014F00003D11A6822F008021A60236C0BB120464F
:101500009847E26D20239340334255D022681268F9
:1015100012F0100F50D0BB6094F83530DBB2052BC1
:101520000ED023681A6812F4802F33D01B6813F48E
:10153000002F2AD1636C002B3ED0204698473BE019
:101540002268136823F0160313602268536923F09E
:1015500080035361236CA3B12268136823F008034E
:101560001360E26D3F239340BB60012384F8353064
:10157000002384F83430236D002B3FD02046984759
:101580003CE0A36C002BE7D1EBE7E36BA3B1204673
:10159000984711E01A6812F4807F09D11A6822F086
:1015A00010021A60012384F83530002384F83430A7
:1015B000E36B0BB120469847636DFBB1636D13F08D
:1015C000010F17D0052384F835302268136823F003
:1015D00001031360019B01330193AB4204D82368DC
:1015E0001B6813F0010FF5D1012384F83530002377
:1015F00084F83430E36C0BB12046984703B0F0BD5B
:1016000004000020B5814E1B00230F2B00F2D78071
:1016100070B582B065E085684FEA430E032404FA92
:101620000EF425EA0405CC6804FA0EF42C43846019
:10163000446824EA02044A68C2F300129A40224332
:1016400042605CE0DC08083450F8242003F0070511
:10165000AD004FF00F0E0EFA05FE22EA0E0E0A69DB
:10166000AA4042EA0E0240F824205CE0042200E096
:10167000002202FA0EF22A430234514D45F824208A
:10168000504A94686FEA0C0224EA0C054E6816F47E
:10169000801F01D04CEA04054A4CA560E46802EAC8
:1016A00004054E6816F4001F01D04CEA0405454CB1
:1016B000E560646802EA04054E6816F4003F01D054
:1016C0004CEA04053F4C6560246822404D6815F4DF
:1016D000803F01D04CEA04023A4C226001330F2BC8
:1016E0006BD801229A400C6804EA020C32EA040426
:1016F000F4D14C6804F00304013C012C8BD94A68F6
:1017000002F00302032A09D0C4685D000322AA4044
:1017100024EA02048A68AA402243C2604A6802F0AE
:101720000302022A8ED004684FEA430E032202FA13
:101730000EF224EA02044A6802F0030202FA0EF2F0
:10174000224302604A6812F4403FC7D0002201924F
:101750001D4A546C44F480445464526C02F4804238
:101760000192019A9C08A51C154A52F8255003F0D5
:10177000030E4FEA8E0E0F2202FA0EF225EA020540
:10178000124A90423FF474AF02F5806290420ED04C
:1017900002F5806290420CD002F5806290420AD03D
:1017A00002F5806290423FF461AF072261E70122B7
:1017B0005FE702225DE703225BE702B070BD70477E
:1017C00000380140003C0140003802400000024067
:1017D0000369194201D001207047002070470AB107
:1017E000816170470904816170470000002800F0A2
:1017F000E08170B582B00446036813F0010F3BD05E
:101800009F4B9B6803F00C03042B2CD09C4B9B68D4
:1018100003F00C03082B21D06368B3F5803F4FD051
:10182000B3F5A02F52D0964B1A6822F480321A607A
:101830001A6822F480221A606368002B50D0FFF7E8
:10184000B1F905468E4B1B6813F4003F14D1FFF726
:10185000A9F9401B6428F5D90320B1E1884B5B68E6
:1018600013F4800FD8D0864B1B6813F4003F03D0CD
:101870006368002B00F09F81236813F0020F54D09F
:101880007F4B9B6813F00C0F3ED07D4B9B6803F0A1
:101890000C03082B33D0E368002B68D0794B01226E
:1018A0001A60FFF77FF90546754B1B6813F0020FAE
:1018B00054D1FFF777F9401B0228F5D903207FE1C7
:1018C0006F4A136843F480331360B5E76C4B1A68B2
:1018D00042F480221A601A6842F480321A60ABE740
:1018E000FFF760F90546664B1B6813F4003FC3D051
:1018F000FFF758F9401B6428F5D9032060E1604BDD
:101900005B6813F4800FC6D15D4B1B6813F0020FA8
:1019100003D0E368012B40F05081594A136823F04B
:10192000F803216943EAC1031360236813F0080F29
:1019300042D063696BB3534B0122C3F8802EFFF78B
:1019400031F905464E4B5B6F13F0020F34D1FFF7B0
:1019500029F9401B0228F5D9032031E1484A1368D0
:1019600023F0F803216943EAC1031360DDE7454B27
:1019700000221A60FFF716F90546414B1B6813F069
:10198000020FD2D0FFF70EF9401B0228F5D9032031
:1019900016E13C4B0022C3F8802EFFF703F9054601
:1019A000374B5B6F13F0020F06D0FFF7FBF8401BBD
:1019B0000228F5D9032003E1236813F0040F77D040
:1019C0002F4B1B6C13F0805F33D1002301932C4B02
:1019D0001A6C42F080521A641B6C03F0805301931E
:1019E000019B0125284B1B6813F4807F23D0A3683B
:1019F000012B34D0052B38D0214B1A6F22F0010275
:101A00001A671A6F22F004021A67A368002B3DD0F0
:101A1000FFF7C8F806461A4B1B6F13F0020F46D1AA
:101A2000FFF7C0F8801B41F288339842F3D90320B6
:101A3000C6E00025D6E7144A136843F480731360A8
:101A4000FFF7B0F80646104B1B6813F4807FCED129
:101A5000FFF7A8F8801B0228F5D90320B0E0084A58
:101A6000136F43F001031367CFE7054B1A6F42F082
:101A700004021A671A6F42F001021A67C5E700BF35
:101A8000003802400000474200700040FFF78AF82B
:101A90000646524B1B6F13F0020F08D0FFF782F877
:101AA000801B41F288339842F3D9032088E0EDB9D6
:101AB000A369002B00F08380484A926802F00C0270
:101AC000082A51D0022B17D0454B00221A66FFF787
:101AD00069F80446414B1B6813F0007F42D0FFF7C2
:101AE00061F8001B0228F5D9032069E03B4A136C1A
:101AF00023F080531364DBE7394B00221A66FFF7AB
:101B000051F80546354B1B6813F0007F06D0FFF7F0
:101B100049F8401B0228F5D9032051E0E369226A05
:101B20001343626A43EA8213A26A5208013A43EA03
:101B30000243E26A43EA0263284A5360284B0122C7
:101B40001A66FFF72FF80446244B1B6813F0007F3A
:101B500006D1FFF727F8001B0228F5D903202FE054
:101B600000202DE000202BE0012B2BD01B4B5B68CD
:101B700003F48001E269914226D103F03F02216A19
:101B80008A4223D1616A47F6C0721A40B2EB811FC4
:101B90001ED103F44031A26A5208013AB1EB024F60
:101BA00018D103F07063E26AB3EB026F14D1002026
:101BB00006E001207047012002E0012000E0002043
:101BC00002B070BD0120FBE70120F9E70120F7E733
:101BD0000120F5E70120F3E70120F1E7003802409A
:101BE0000000474208B5264B9B6803F00C03042B0A
:101BF00041D0082B41D1224B5A6802F03F025B686A
:101C000013F4800F12D01E4B5968C1F388111D4880
:101C10000023A1FB0001FEF713FB194B5B68C3F324
:101C2000014301335B00B0FBF3F008BD144B58686F
:101C3000C0F388104FEA401CBCEB000C6EEB0E0E9C
:101C40004FEA8E1343EA9C634FEA8C11B1EB0C010F
:101C500063EB0E03DB0043EA5173C90011EB000C88
:101C600043F10003990200234FEA8C2041EA9C5182
:101C7000FEF7E6FAD1E70348D7E70348D5E700BF08
:101C80000038024040787D010024F400002800F074
:101C90009B8070B50D4604464F4B1B6803F007034D
:101CA0008B4208D2CBB24C4A1370136803F007037F
:101CB0008B4240F08B80236813F0020F17D013F093
:101CC000040F04D0454A936843F4E05393602368BB
:101CD00013F0080F04D0414A936843F460439360C3
:101CE0003E4A936823F0F003A1680B439360236896
:101CF00013F0010F32D06368012B21D09A1E012A04
:101D000025D9364A126812F0020F61D033498A6829
:101D100022F0030213438B60FEF744FF06462F4B6D
:101D20009B6803F00C036268B3EB820F16D0FEF7DA
:101D300039FF801B41F288339842F0D9032042E0FA
:101D4000264A126812F4003FE0D101203BE0234A0A
:101D5000126812F0007FD9D1012034E01E4B1B68BD
:101D600003F00703AB4207D9EAB21B4B1A701B689A
:101D700003F00703AB422DD1236813F0040F06D004
:101D8000164A936823F4E053E1680B439360236899
:101D900013F0080F07D0114A936823F460432169B8
:101DA00043EAC1039360FFF71DFF0C4B9B68C3F32D
:101DB00003130B4AD35CD8400A4B18600A4B1868CF
:101DC000FEF7A4FE002070BD012070470120FAE755
:101DD0000120F8E70120F6E7003C0240003802400D
:101DE000F0300008040000200C000020014B1868AF
:101DF000704700BF0400002008B5FFF7F7FF044B51
:101E00009B68C3F38223034AD35CD84008BD00BF5C
:101E100000380240E830000808B5FFF7E7FF044B40
:101E20009B68C3F34233034AD35CD84008BD00BF6C
:101E300000380240E830000800285AD010B50446A7
:101E4000436A33B94368B3F5827F05D00023C36189
:101E500002E00023036143610023A36294F8513040
:101E6000002B40D0022384F851302268136823F0FD
:101E700040031360636803F48273A26802F40442AF
:101E80001343E26802F400621343226902F0020283
:101E90001343626902F001021343A26902F4007263
:101EA0001343E26902F038021343226A02F080020F
:101EB0001343A26A02F40052216813430B60638B40
:101EC00003F00403626A02F01002216813434B60BE
:101ED0002268D36923F40063D36100206065012385
:101EE00084F8513010BD84F850302046FEF7BEFC17
:101EF000B8E701207047000090F83D30DBB2012BBD
:101F00002AD1022380F83D300368154A934218D045
:101F1000B3F1804F15D0A2F57C42934211D002F567
:101F2000806293420DD002F58062934209D002F59F
:101F30009A32934205D01A6842F001021A600020DA
:101F400070479A6802F00702062A07D01A6842F022
:101F500001021A600020704701207047002070477E
:101F6000000001400368254A90420ED0B0F1804F36
:101F70000BD0A2F57C42904207D002F580629042DD
:101F800003D002F58062904203D123F070034A68C7
:101F900013431A4A90421AD0B0F1804F17D0A2F5DD
:101FA0007C42904213D002F5806290420FD002F53D
:101FB000806290420BD002F59A32904207D002F52F
:101FC0008062904203D002F58062904203D123F4F4
:101FD0004073CA68134323F080034A6913430360C4
:101FE0008B68C3620B688362044B984202D0012362
:101FF000436170470B690363F9E700BF00000140CC
:10200000002853D0F8B50D46044690F83D30002B1B
:1020100047D0022384F83D302268936823F480433C
:1020200023F007039360214651F8040BFFF79AFF52
:1020300021688B688A690E6A2868184322F4407206
:1020400022F00302AB68AF6943EA0723134323F48A
:102050007C4323F0FC03EA68EF6942EA07221A4353
:102060002B6A1B032F6943EA0713134326F0AA06C2
:102070006A686D6942EA05123243886021688B61A3
:1020800023681A62012384F8463084F83E3084F8CD
:102090003F3084F8423084F8433084F83D300020EB
:1020A000F8BD80F83C30FEF7ABFCB2E7012070478A
:1020B00090F83C20012A35D010B40346012280F864
:1020C0003C20022280F83D2002685068946820F08D
:1020D000700C086840EA0C0050601A68124882428E
:1020E00012D0B2F1804F0FD0A0F57C4082420BD0CD
:1020F00000F58060824207D000F58060824203D004
:1021000000F59A30824204D124F0800449682143CA
:102110009160012283F83D20002083F83C005DF8A7
:10212000044B7047022070470000014010B5044680
:102130000268136923F44053C1680B431361836839
:1021400002691A4343691A43C3691A430168CB6899
:1021500023F4164323F00C031343CB600268536946
:1021600023F4407381690B4353610368314A9342FE
:1021700006D002F58062934202D0FFF73DFE01E0F7
:10218000FFF74AFEE369B3F5004F29D00021031899
:1021900049411B1841F10001C90041EA5371DB00BC
:1021A000181863684FEA83024FEA937341F1000104
:1021B000FEF746F8204AA2FB00314909642303FBDD
:1021C00011031B013233A2FB03235B0903F0F0026E
:1021D00002EB011203F00F03216813448B6010BD62
:1021E0000023021843EB0301121841F10001C9005A
:1021F00041EA5271D200101841F100016268921850
:102200005B41FEF71DF80C4AA2FB0031490964232B
:1022100003FB1103DB003233A2FB03235B095A00EB
:1022200002F4F87202EB011203F007032168134471
:102230008B60D4E7001001401F85EB512DE9F84376
:1022400005460F4616469946DDF820802B681C6827
:1022500037EA04040CBF01240024B4422DD1B8F1A4
:10226000FF3FF3D0B8F1000F05D0FEF79BFCA0EBC9
:1022700009004045EAD92A6802F10C0353E8003FFF
:1022800023F4D0730C3242E800310029F3D12A68DC
:1022900002F1140353E8003F23F00103143242E833
:1022A00000310029F3D1202385F83D3085F83E30F8
:1022B000002385F83C30032000E00020BDE8F883CF
:1022C00058B310B5044690F83D300BB3242384F87E
:1022D0003D302268D36823F40053D3602046FFF7D3
:1022E00025FF2268136923F4904313612268536920
:1022F00023F02A0353612268D36843F40053D36068
:1023000000202064202384F83D3084F83E3010BD46
:1023100080F83C30FEF7C2FBD8E7012070472DE97A
:10232000F04182B01E4690F83D30DBB2202B54D1F4
:1023300004460D469046002953D0002A53D090F809
:102340003C30012B51D0012380F83C300023036442
:10235000212380F83D30FEF725FC0746A4F82480B1
:10236000A4F82680A368B3F5805F05D04FF000087D
:10237000002384F83C3012E0236913B14FF00008C9
:10238000F6E7A8460025F3E738F8023B2268C3F3D6
:1023900008035360E28C92B2013A92B2E284E38C79
:1023A0009BB273B100963B46002280212046FFF786
:1023B00045FFE0B9002DE7D015F8012B23685A60DE
:1023C000E8E700963B46002240212046FFF736FF13
:1023D00078B9202384F83D3000E0022002B0BDE847
:1023E000F0810120FAE70120F8E70220F6E7032058
:1023F000F4E70320F2E70000DFF834D00D480E497F
:102400000E4A002302E0D458C4500433C4188C424E
:10241000F9D30B4A0B4C002301E013600432A242B3
:10242000FBD3FEF7AFFA00F057F8FEF7E9F9704773
:102430000000022000000020600000204C31000855
:102440006000002074030020FEE730B51446002C25
:102450009BB005461A4605DA8B2303604FF0FF3028
:102460001BB030BD4FF40273ADF80C3014BF04F153
:10247000FF332346029305934FF6FF7300910491B7
:10248000ADF80E3069461E9B00F0A0F9431CBCBF9E
:102490008B232B60002CE3D0009B00221A70DFE717
:1024A00007B5009313460A46014603480068FFF744
:1024B000CCFF03B05DF804FB10000020024403468B
:1024C000934200D1704703F8011BF9E7014B1868EC
:1024D000704700BF1000002070B50D4D0D4C641BFF
:1024E000A4100026A64209D10B4D0C4C00F0C2FDF1
:1024F000641BA4100026A64205D170BD55F8043B0C
:1025000098470136EEE755F8043B98470136F2E765
:1025100044310008443100084431000848310008C3
:102520007047704738B50546002941D051F8043C42
:102530000C1F002BB8BFE41800F0E0F81D4A136828
:1025400033B9636014602846BDE8384000F0DCB859
:10255000A34208D9206821188B4201BF19685B6823
:1025600009182160EDE71A465B680BB1A342FAD95E
:1025700011685018A0420BD12068014450188342C2
:102580001160E0D118685B68536008441060DAE7B6
:1025900002D90C232B60D6E7206821188B4204BF98
:1025A00019685B68636004BF091821605460CAE75A
:1025B00038BD00BF7003002070B50F4E0C46316867
:1025C000054611B900F0A4FB30602146284600F012
:1025D0009FFB431C03D14FF0FF34204670BDC41C49
:1025E00024F00304A042F8D0211A284600F090FB02
:1025F0000130F2D1EFE700BF6C0300202DE9F84372
:10260000CD1C25F0030508350C2D38BF0C25002DF9
:10261000064601DBA94204D90C2333600020BDE843
:10262000F883DFF8D48000F069F8D8F800301C4651
:1026300044BB29463046FFF7BFFF431C044658D130
:10264000D8F800402746002F43D1002C4BD02368F8
:102650003946304604EB030900F05AFB814542D16C
:1026600021686D1A29463046FFF7A6FF01303AD09F
:1026700023682B442360D8F800305A6862BBC8F83E
:1026800000700FE02268521B20D40B2A17D9611961
:10269000A342256018BF5960636808BFC8F80010DE
:1026A00062514B60304600F02FF804F10B00231DFF
:1026B00020F00700C21A1CBF1B1AA350AFE76268C4
:1026C000A3420CBFC8F800205A60EBE723466468B9
:1026D000AEE73C467F68B6E71A465B68A342FBD18B
:1026E00000235360DEE70C233360304600F00CF823
:1026F00094E70560D6E700BF700300200148FFF7AC
:102700000FBF00BF680300200148FFF70ABF00BFEA
:10271000680300202DE9F0478E681F46BE420B6813
:1027200082460C4690462DD8B1F90C2012F4906FD9
:1027300026D06569096905EB4505A3EB010905EBA1
:10274000D5757B1C4B446D109D4238BF1D4653050B
:1027500027D52946FFF752FF064660B321694A464E
:1027600000F0E6FAA38923F4906343F08003A38189
:10277000266165614E44A5EB09052660A5603E46CD
:10278000BE4200D93E4620683246414600F0A6FAD5
:10279000A3689B1BA3602368334423600020BDE82B
:1027A000F0872A4600F0D2FA06460028E0D12169D7
:1027B0005046FFF7B7FE0C23CAF80030A38943F058
:1027C0004003A3814FF0FF30E9E700002DE9F04F0F
:1027D00098468B891B069DB007460D46144610D5BA
:1027E0000B6973B94021FFF709FF2860286130B9F0
:1027F0000C233B604FF0FF301DB0BDE8F08F40234D
:102800006B610023099320238DF82930CDF80C80CB
:102810003023DFF89C818DF82A304FF001092346E0
:102820009A4613F8012B0AB1252AF9D1BAEB040B09
:102830000BD05B46224629463846FFF76BFF013036
:1028400000F0A780099A5A4409929AF80030002BA8
:1028500000F09F8000234FF0FF32CDE905230AF1FD
:10286000010A049307938DF853301A9354460522B6
:1028700014F8011B4E48FDF793FC049AD8B9D00612
:1028800044BF20238DF85330110744BF2B238DF80C
:1028900053309AF800302A2B15D0079A544600205E
:1028A0004FF00A0C214611F8013B303B092B4BD964
:1028B000B0B1079214E0A0EB080309FA03F3134345
:1028C0000493A246D2E7039B191D1B680391002BBA
:1028D000BBBF5B4242F0020207930793B8BF04926A
:1028E00023782E2B0AD163782A2B32D1039B1A1D11
:1028F0001B68039243EAE37302340593DFF8C0A038
:10290000217803225046FDF74BFC38B1049BA0EB25
:102910000A004022824013430134049314F8011B3F
:1029200024488DF828100622FDF73AFC002836D0FE
:10293000214B1BBB039B073323F00703083303938F
:10294000099B334409936AE70CFB02320C460120D1
:10295000A8E700230134059319464FF00A0C2046DE
:1029600010F8012B303A092A03D9002BC6D0059163
:10297000C4E70CFB012104460123F0E703AB0093FD
:102980002A460E4B04A93846AFF30080421C064687
:10299000D6D1AB895B063FF52DAF09982CE703AB89
:1029A00000932A46054B04A9384600F079F8EDE774
:1029B0000831000812310008000000001527000847
:1029C0000E3100082DE9F047164698468A680B69D3
:1029D000DDF820909342B8BF1346336091F843204E
:1029E00007460C460AB1013333602368990642BF9B
:1029F000336802333360256815F0060506D104F10B
:102A0000190AE36832689B1AAB4226DC94F843301B
:102A10002268003B18BF012392062BD404F1430225
:102A200041463846C84701301ED02368226903F06A
:102A30000603042B02BFE5683368ED1AA3680CBFD8
:102A400025EAE57500259342C4BF9B1AED180026C0
:102A50001A34B5421AD1002008E0012352464146FB
:102A60003846C847013003D14FF0FF30BDE8F0874A
:102A70000135C6E7E1185A1C302081F84300224492
:102A800094F8451082F843100233C7E70123224629
:102A900041463846C8470130E6D00136D9E7000044
:102AA0002DE9FF470F7E0C9E782F914680460C46FD
:102AB0009A4601F1430207D8622F0AD8002F00F08E
:102AC000D180582F00F0B88004F1420684F842709B
:102AD0003AE0A7F16303152BF6D801A151F823F0D2
:102AE000392B00084D2B0008C92A0008C92A000804
:102AF000C92A0008C92A00084D2B0008C92A000865
:102B0000C92A0008C92A0008C92A00084B2C000855
:102B1000772B0008052C0008C92A0008C92A0008DC
:102B20006D2C0008C92A0008772B0008C92A000864
:102B3000C92A00080D2C000833681A1D1B68326072
:102B400004F1420684F8423001239CE03368206897
:102B5000191D3160060601D51D6803E04506FBD549
:102B6000B3F90050002D03DA2D236D4284F8433071
:102B700058480A2311E021683368080653F8045BBB
:102B800002D4490648BFADB26F2F5248336014BF1C
:102B90000A230823002184F843106668A660002EEB
:102BA00005DB21682E4321F0040121604BD016463D
:102BB000B5FBF3F103FB1157C75D06F8017D2F4606
:102BC000BB420D46F4D9082B0BD12368DF0708D58B
:102BD000236961689942DEBF302306F8013C06F1A3
:102BE000FF36921B2261CDF800A04B4603AA214676
:102BF0004046FFF7E7FE01304AD14FF0FF3004B006
:102C0000BDE8F087236843F020032360324878272B
:102C100084F84570236831681F0651F8045B02D4BC
:102C20005F0648BFADB23160D90744BF43F020030F
:102C300023601DB11023ADE72648E9E7236823F0A0
:102C400020032360F6E71646BDE73368256861690F
:102C5000181D30602E061B6801D5196002E0680659
:102C6000FBD51980002323611646BCE733681A1D83
:102C700032601E68626800213046FDF791FA08B1A3
:102C8000801B606063682361002384F84330AAE7F7
:102C90002369324649464046D0470130ADD02368CB
:102CA0009B0713D4E068039B9842B8BF1846A6E779
:102CB0000123324649464046D04701309DD0013578
:102CC000E36803995B1AAB42F2DCEBE7002504F101
:102CD0001906F5E7193100082A310008884210B5B5
:102CE00001EB020402D98442234607D8431EA142C5
:102CF00008D011F8012B03F8012FF8E70244014630
:102D00008A4200D110BD13F8014D02F8014DF7E7DA
:102D100038B5064D0023044608462B60FDF70EFE2D
:102D2000431C02D12B6803B1236038BD640300202B
:102D30000A44914200F1FF3300D1704710B511F8F9
:102D4000014B03F8014F9142F9D110BD2DE9F0413B
:102D5000074614460D4621B9BDE8F0411146FFF77C
:102D60004DBC2AB9FFF7DEFB25462846BDE8F081B9
:102D700000F01AF88442064602D8B4EB500FF4D89B
:102D800021463846FFF73AFC804608B94546ECE74D
:102D9000B4422246294628BF3246FFF7C9FF2946DA
:102DA0003846FFF7BFFBF1E751F8043C181F002B32
:102DB000BCBF0B58C01870472DE9F047089D0E4660
:102DC00004460F46002B4AD194468C45B2FA82F253
:102DD00060D942B1C2F12003974020FA03F30CFA04
:102DE00002FC1F4394404FEA1C4E1FFA8CF6B7FBBF
:102DF000FEF1230C0EFB117743EA074301FB06F0BB
:102E000098420AD91CEB030301F1FF3780F01581CA
:102E1000984240F21281023963441B1AA4B2B3FBF8
:102E2000FEF00EFB103344EA034400FB06F6A64214
:102E30000AD91CEB040400F1FF3380F00081A642A4
:102E400040F2FD806444023840EA0140A41B0021A6
:102E50001DB1D4400023C5E90043BDE8F0878B4293
:102E600005D90DB1C5E9000100210846F5E7B3FA1F
:102E700083F1002946D1B34202D3824200F2F580A9
:102E8000841A66EB030201201746002DE5D0C5E940
:102E90000047E2E7002A40F09380A1EB0C034FEAE1
:102EA0001C471FFA8CFE0121B3FBF7F607FB163017
:102EB000230C43EA00430EFB06F0984208D91CEBB2
:102EC000030306F1FF3802D2984200F2D080464652
:102ED0001B1AA4B2B3FBF7F007FB103344EA034418
:102EE0000EFB00FEA64508D91CEB040400F1FF33DD
:102EF00002D2A64500F2B6801846A4EB0E0440EAC2
:102F00000640A5E7C1F120078B4022FA07FC4CEAF6
:102F1000030C06FA01FE20FA07F426FA07F344EA46
:102F20000E0400FA01F84FEA1C404FEA1449B3FBC3
:102F3000F0FE1FFA8CF600FB1E3349EA03430EFB3A
:102F400006F9994502FA01F20BD91CEB03030EF1C5
:102F5000FF3A80F08580994540F28280AEF1020E02
:102F60006344A3EB0909A4B2B9FBF0F300FB139986
:102F700044EA094403FB06F6A64208D91CEB040404
:102F800003F1FF3068D2A64266D9023B644443EAAB
:102F90000E40A41BA0FB02E6B4427346B14652D3D6
:102FA0004FD05DB1B8EB030264EB090404FA07F7F4
:102FB00022FA01F31F43CC40C5E9007400214CE71D
:102FC000C2F1200120FA01F30CFA02FC26FA01F109
:102FD000964033434FEA1C471FFA8CFEB1FBF7F0D3
:102FE00007FB1016190C41EA064100FB0EF68E4253
:102FF00004FA02F408D91CEB010100F1FF382DD2CC
:103000008E422BD902386144891B9BB2B1FBF7F683
:1030100007FB161143EA014306FB0EF1994208D95A
:103020001CEB030306F1FF3814D2994212D9023E79
:1030300063445B1A46EA004136E73946EDE6184636
:1030400002E7F045ADD2BEEB020366EB0C06013899
:10305000B146A6E74646ECE7034698E74046D3E785
:10306000D6467EE76444023847E708460DE7023E4D
:1030700063442DE7F8B500BFF8BC08BC9E46704716
:0C308000F8B500BFF8BC08BC9E467047C5
:10308C00C8300008E9030008D430000861040008C7
:10309C00252E3230735E537461747573000000001A
:1030AC004B6F643A2025303364203D20272563275D
:1030BC000000000025642E25730000004469737025
:1030CC006C617920626172005365742062617220B8
:1030DC006368617261637465720000000000000037
:1030EC0001020304000000000000000001020304C0
:1030FC00060708090006101600061016232D302BA3
:10310C002000686C4C0065666745464700303132DC
:10311C003334353637383941424344454600303133
:10312C003233343536373839616263646566000092
:08313C0064D0FF7F01000000D8
:0431440099020008E4
:043148007502000804
:10314C007F0014000024F4000100000010000000B7
:10315C0014000020000000002C020020940200202B
:10316C00FC02002000000000000000000000000035
:10317C000000000000000000000000000000000043
:10318C000000000000000000000000000000000033
:10319C000000000000000000000000000000000023
:04000005080023F9D3
:00000001FF
